{
	"contracts/1_Storage.sol": {
		"Vote": {
			"abi": [
				{
					"inputs": [],
					"stateMutability": "nonpayable",
					"type": "constructor"
				},
				{
					"inputs": [],
					"name": "announceVotingResult",
					"outputs": [],
					"stateMutability": "nonpayable",
					"type": "function"
				},
				{
					"inputs": [
						{
							"internalType": "uint256",
							"name": "_voterId",
							"type": "uint256"
						},
						{
							"internalType": "uint256",
							"name": "_candidateId",
							"type": "uint256"
						}
					],
					"name": "castVote",
					"outputs": [],
					"stateMutability": "nonpayable",
					"type": "function"
				},
				{
					"inputs": [],
					"name": "emergencyStopVoting",
					"outputs": [],
					"stateMutability": "nonpayable",
					"type": "function"
				},
				{
					"inputs": [],
					"name": "getCandidateList",
					"outputs": [
						{
							"components": [
								{
									"internalType": "string",
									"name": "name",
									"type": "string"
								},
								{
									"internalType": "string",
									"name": "party",
									"type": "string"
								},
								{
									"internalType": "uint256",
									"name": "age",
									"type": "uint256"
								},
								{
									"internalType": "enum Vote.Gender",
									"name": "gender",
									"type": "uint8"
								},
								{
									"internalType": "uint256",
									"name": "candidateId",
									"type": "uint256"
								},
								{
									"internalType": "address",
									"name": "candidateAddress",
									"type": "address"
								},
								{
									"internalType": "uint256",
									"name": "votes",
									"type": "uint256"
								}
							],
							"internalType": "struct Vote.Candidate[]",
							"name": "",
							"type": "tuple[]"
						}
					],
					"stateMutability": "view",
					"type": "function"
				},
				{
					"inputs": [],
					"name": "getVoterList",
					"outputs": [
						{
							"components": [
								{
									"internalType": "string",
									"name": "name",
									"type": "string"
								},
								{
									"internalType": "uint256",
									"name": "age",
									"type": "uint256"
								},
								{
									"internalType": "uint256",
									"name": "voterId",
									"type": "uint256"
								},
								{
									"internalType": "enum Vote.Gender",
									"name": "gender",
									"type": "uint8"
								},
								{
									"internalType": "uint256",
									"name": "voteCandidateId",
									"type": "uint256"
								},
								{
									"internalType": "address",
									"name": "voterAddress",
									"type": "address"
								}
							],
							"internalType": "struct Vote.Voter[]",
							"name": "",
							"type": "tuple[]"
						}
					],
					"stateMutability": "view",
					"type": "function"
				},
				{
					"inputs": [],
					"name": "getVotingStatus",
					"outputs": [
						{
							"internalType": "enum Vote.VotingStatus",
							"name": "",
							"type": "uint8"
						}
					],
					"stateMutability": "view",
					"type": "function"
				},
				{
					"inputs": [
						{
							"internalType": "string",
							"name": "_name",
							"type": "string"
						},
						{
							"internalType": "string",
							"name": "_party",
							"type": "string"
						},
						{
							"internalType": "uint256",
							"name": "_age",
							"type": "uint256"
						},
						{
							"internalType": "enum Vote.Gender",
							"name": "_gender",
							"type": "uint8"
						}
					],
					"name": "registerCandidate",
					"outputs": [],
					"stateMutability": "nonpayable",
					"type": "function"
				},
				{
					"inputs": [
						{
							"internalType": "string",
							"name": "_name",
							"type": "string"
						},
						{
							"internalType": "uint256",
							"name": "_age",
							"type": "uint256"
						},
						{
							"internalType": "enum Vote.Gender",
							"name": "_gender",
							"type": "uint8"
						}
					],
					"name": "registerVoter",
					"outputs": [],
					"stateMutability": "nonpayable",
					"type": "function"
				},
				{
					"inputs": [
						{
							"internalType": "uint256",
							"name": "_startTimeDuration",
							"type": "uint256"
						},
						{
							"internalType": "uint256",
							"name": "_endTimeDuration",
							"type": "uint256"
						}
					],
					"name": "setVotingPeriod",
					"outputs": [],
					"stateMutability": "nonpayable",
					"type": "function"
				},
				{
					"inputs": [],
					"name": "winner",
					"outputs": [
						{
							"internalType": "address",
							"name": "",
							"type": "address"
						}
					],
					"stateMutability": "view",
					"type": "function"
				}
			],
			"devdoc": {
				"kind": "dev",
				"methods": {},
				"version": 1
			},
			"evm": {
				"assembly": "    /* \"contracts/1_Storage.sol\":65:5146  contract Vote {... */\n  mstore(0x40, 0x80)\n    /* \"contracts/1_Storage.sol\":533:534  1 */\n  0x01\n    /* \"contracts/1_Storage.sol\":514:534  uint nextVoterId = 1 */\n  0x02\n  sstore\n    /* \"contracts/1_Storage.sol\":563:564  1 */\n  0x01\n    /* \"contracts/1_Storage.sol\":540:564  uint nextCandidateId = 1 */\n  0x03\n  sstore\n    /* \"contracts/1_Storage.sol\":832:894  constructor() {... */\n  callvalue\n  dup1\n  iszero\n  tag_1\n  jumpi\n  0x00\n  dup1\n  revert\ntag_1:\n  pop\n    /* \"contracts/1_Storage.sol\":877:887  msg.sender */\n  caller\n    /* \"contracts/1_Storage.sol\":856:874  electionCommission */\n  0x00\n  dup1\n    /* \"contracts/1_Storage.sol\":856:887  electionCommission = msg.sender */\n  0x0100\n  exp\n  dup2\n  sload\n  dup2\n  0xffffffffffffffffffffffffffffffffffffffff\n  mul\n  not\n  and\n  swap1\n  dup4\n  0xffffffffffffffffffffffffffffffffffffffff\n  and\n  mul\n  or\n  swap1\n  sstore\n  pop\n    /* \"contracts/1_Storage.sol\":65:5146  contract Vote {... */\n  dataSize(sub_0)\n  dup1\n  dataOffset(sub_0)\n  0x00\n  codecopy\n  0x00\n  return\nstop\n\nsub_0: assembly {\n        /* \"contracts/1_Storage.sol\":65:5146  contract Vote {... */\n      mstore(0x40, 0x80)\n      callvalue\n      dup1\n      iszero\n      tag_1\n      jumpi\n      0x00\n      dup1\n      revert\n    tag_1:\n      pop\n      jumpi(tag_2, lt(calldatasize, 0x04))\n      shr(0xe0, calldataload(0x00))\n      dup1\n      0x9fa4e440\n      gt\n      tag_13\n      jumpi\n      dup1\n      0x9fa4e440\n      eq\n      tag_8\n      jumpi\n      dup1\n      0xa15a36c7\n      eq\n      tag_9\n      jumpi\n      dup1\n      0xb28d92ae\n      eq\n      tag_10\n      jumpi\n      dup1\n      0xdfbf53ae\n      eq\n      tag_11\n      jumpi\n      dup1\n      0xfdbc4006\n      eq\n      tag_12\n      jumpi\n      jump(tag_2)\n    tag_13:\n      dup1\n      0x2c0a3f89\n      eq\n      tag_3\n      jumpi\n      dup1\n      0x581c281c\n      eq\n      tag_4\n      jumpi\n      dup1\n      0x6ce2ccc0\n      eq\n      tag_5\n      jumpi\n      dup1\n      0x81ba732f\n      eq\n      tag_6\n      jumpi\n      dup1\n      0x982c777d\n      eq\n      tag_7\n      jumpi\n    tag_2:\n      0x00\n      dup1\n      revert\n        /* \"contracts/1_Storage.sol\":3596:4112  function castVote(uint _voterId, uint _candidateId) external {... */\n    tag_3:\n      tag_14\n      0x04\n      dup1\n      calldatasize\n      sub\n      dup2\n      add\n      swap1\n      tag_15\n      swap2\n      swap1\n      tag_16\n      jump\t// in\n    tag_15:\n      tag_17\n      jump\t// in\n    tag_14:\n      stop\n        /* \"contracts/1_Storage.sol\":4424:4735  function getVotingStatus() public view returns (VotingStatus) {... */\n    tag_4:\n      tag_18\n      tag_19\n      jump\t// in\n    tag_18:\n      mload(0x40)\n      tag_20\n      swap2\n      swap1\n      tag_21\n      jump\t// in\n    tag_20:\n      mload(0x40)\n      dup1\n      swap2\n      sub\n      swap1\n      return\n        /* \"contracts/1_Storage.sol\":4742:5047  function announceVotingResult() external onlyCommissioner() {... */\n    tag_5:\n      tag_22\n      tag_23\n      jump\t// in\n    tag_22:\n      stop\n        /* \"contracts/1_Storage.sol\":2856:3308  function registerVoter(... */\n    tag_6:\n      tag_24\n      0x04\n      dup1\n      calldatasize\n      sub\n      dup2\n      add\n      swap1\n      tag_25\n      swap2\n      swap1\n      tag_26\n      jump\t// in\n    tag_25:\n      tag_27\n      jump\t// in\n    tag_24:\n      stop\n        /* \"contracts/1_Storage.sol\":1211:1902  function registerCandidate(... */\n    tag_7:\n      tag_28\n      0x04\n      dup1\n      calldatasize\n      sub\n      dup2\n      add\n      swap1\n      tag_29\n      swap2\n      swap1\n      tag_30\n      jump\t// in\n    tag_29:\n      tag_31\n      jump\t// in\n    tag_28:\n      stop\n        /* \"contracts/1_Storage.sol\":5054:5144  function emergencyStopVoting() public onlyCommissioner() {... */\n    tag_8:\n      tag_32\n      tag_33\n      jump\t// in\n    tag_32:\n      stop\n        /* \"contracts/1_Storage.sol\":4119:4417  function setVotingPeriod(uint _startTimeDuration, uint _endTimeDuration) external onlyCommissioner() {... */\n    tag_9:\n      tag_34\n      0x04\n      dup1\n      calldatasize\n      sub\n      dup2\n      add\n      swap1\n      tag_35\n      swap2\n      swap1\n      tag_16\n      jump\t// in\n    tag_35:\n      tag_36\n      jump\t// in\n    tag_34:\n      stop\n        /* \"contracts/1_Storage.sol\":3315:3590  function getVoterList() public view returns (Voter[] memory) {... */\n    tag_10:\n      tag_37\n      tag_38\n      jump\t// in\n    tag_37:\n      mload(0x40)\n      tag_39\n      swap2\n      swap1\n      tag_40\n      jump\t// in\n    tag_39:\n      mload(0x40)\n      dup1\n      swap2\n      sub\n      swap1\n      return\n        /* \"contracts/1_Storage.sol\":486:507  address public winner */\n    tag_11:\n      tag_41\n      tag_42\n      jump\t// in\n    tag_41:\n      mload(0x40)\n      tag_43\n      swap2\n      swap1\n      tag_44\n      jump\t// in\n    tag_43:\n      mload(0x40)\n      dup1\n      swap2\n      sub\n      swap1\n      return\n        /* \"contracts/1_Storage.sol\":2242:2558  function getCandidateList() public view returns (Candidate[] memory) {... */\n    tag_12:\n      tag_45\n      tag_46\n      jump\t// in\n    tag_45:\n      mload(0x40)\n      tag_47\n      swap2\n      swap1\n      tag_48\n      jump\t// in\n    tag_47:\n      mload(0x40)\n      dup1\n      swap2\n      sub\n      swap1\n      return\n        /* \"contracts/1_Storage.sol\":3596:4112  function castVote(uint _voterId, uint _candidateId) external {... */\n    tag_17:\n        /* \"contracts/1_Storage.sol\":3694:3703  startTime */\n      sload(0x04)\n        /* \"contracts/1_Storage.sol\":3675:3690  block.timestamp */\n      timestamp\n        /* \"contracts/1_Storage.sol\":3675:3703  block.timestamp >= startTime */\n      lt\n      iszero\n        /* \"contracts/1_Storage.sol\":3667:3734  require(block.timestamp >= startTime, \"Voting has not started yet\") */\n      tag_50\n      jumpi\n      mload(0x40)\n      0x08c379a000000000000000000000000000000000000000000000000000000000\n      dup2\n      mstore\n      0x04\n      add\n      tag_51\n      swap1\n      tag_52\n      jump\t// in\n    tag_51:\n      mload(0x40)\n      dup1\n      swap2\n      sub\n      swap1\n      revert\n    tag_50:\n        /* \"contracts/1_Storage.sol\":3792:3793  0 */\n      0x00\n        /* \"contracts/1_Storage.sol\":3752:3764  voterDetails */\n      0x07\n        /* \"contracts/1_Storage.sol\":3752:3774  voterDetails[_voterId] */\n      0x00\n        /* \"contracts/1_Storage.sol\":3765:3773  _voterId */\n      dup5\n        /* \"contracts/1_Storage.sol\":3752:3774  voterDetails[_voterId] */\n      dup2\n      mstore\n      0x20\n      add\n      swap1\n      dup2\n      mstore\n      0x20\n      add\n      0x00\n      keccak256\n        /* \"contracts/1_Storage.sol\":3752:3790  voterDetails[_voterId].voteCandidateId */\n      0x04\n      add\n      sload\n        /* \"contracts/1_Storage.sol\":3752:3793  voterDetails[_voterId].voteCandidateId==0 */\n      eq\n        /* \"contracts/1_Storage.sol\":3744:3819  require(voterDetails[_voterId].voteCandidateId==0,\"You have already voted\") */\n      tag_53\n      jumpi\n      mload(0x40)\n      0x08c379a000000000000000000000000000000000000000000000000000000000\n      dup2\n      mstore\n      0x04\n      add\n      tag_54\n      swap1\n      tag_55\n      jump\t// in\n    tag_54:\n      mload(0x40)\n      dup1\n      swap2\n      sub\n      swap1\n      revert\n    tag_53:\n        /* \"contracts/1_Storage.sol\":3874:3884  msg.sender */\n      caller\n        /* \"contracts/1_Storage.sol\":3837:3884  voterDetails[_voterId].voterAddress==msg.sender */\n      0xffffffffffffffffffffffffffffffffffffffff\n      and\n        /* \"contracts/1_Storage.sol\":3837:3849  voterDetails */\n      0x07\n        /* \"contracts/1_Storage.sol\":3837:3859  voterDetails[_voterId] */\n      0x00\n        /* \"contracts/1_Storage.sol\":3850:3858  _voterId */\n      dup5\n        /* \"contracts/1_Storage.sol\":3837:3859  voterDetails[_voterId] */\n      dup2\n      mstore\n      0x20\n      add\n      swap1\n      dup2\n      mstore\n      0x20\n      add\n      0x00\n      keccak256\n        /* \"contracts/1_Storage.sol\":3837:3872  voterDetails[_voterId].voterAddress */\n      0x05\n      add\n      0x00\n      swap1\n      sload\n      swap1\n      0x0100\n      exp\n      swap1\n      div\n      0xffffffffffffffffffffffffffffffffffffffff\n      and\n        /* \"contracts/1_Storage.sol\":3837:3884  voterDetails[_voterId].voterAddress==msg.sender */\n      0xffffffffffffffffffffffffffffffffffffffff\n      and\n      eq\n        /* \"contracts/1_Storage.sol\":3829:3910  require(voterDetails[_voterId].voterAddress==msg.sender,\"You are not authorized\") */\n      tag_56\n      jumpi\n      mload(0x40)\n      0x08c379a000000000000000000000000000000000000000000000000000000000\n      dup2\n      mstore\n      0x04\n      add\n      tag_57\n      swap1\n      tag_58\n      jump\t// in\n    tag_57:\n      mload(0x40)\n      dup1\n      swap2\n      sub\n      swap1\n      revert\n    tag_56:\n        /* \"contracts/1_Storage.sol\":3942:3943  1 */\n      0x01\n        /* \"contracts/1_Storage.sol\":3928:3940  _candidateId */\n      dup2\n        /* \"contracts/1_Storage.sol\":3928:3943  _candidateId>=1 */\n      lt\n      iszero\n        /* \"contracts/1_Storage.sol\":3928:3962  _candidateId>=1 && _candidateId <3 */\n      dup1\n      iszero\n      tag_59\n      jumpi\n      pop\n        /* \"contracts/1_Storage.sol\":3961:3962  3 */\n      0x03\n        /* \"contracts/1_Storage.sol\":3947:3959  _candidateId */\n      dup2\n        /* \"contracts/1_Storage.sol\":3947:3962  _candidateId <3 */\n      lt\n        /* \"contracts/1_Storage.sol\":3928:3962  _candidateId>=1 && _candidateId <3 */\n    tag_59:\n        /* \"contracts/1_Storage.sol\":3920:3993  require(_candidateId>=1 && _candidateId <3,\"Candidate Id is not correct\") */\n      tag_60\n      jumpi\n      mload(0x40)\n      0x08c379a000000000000000000000000000000000000000000000000000000000\n      dup2\n      mstore\n      0x04\n      add\n      tag_61\n      swap1\n      tag_62\n      jump\t// in\n    tag_61:\n      mload(0x40)\n      dup1\n      swap2\n      sub\n      swap1\n      revert\n    tag_60:\n        /* \"contracts/1_Storage.sol\":4045:4057  _candidateId */\n      dup1\n        /* \"contracts/1_Storage.sol\":4004:4016  voterDetails */\n      0x07\n        /* \"contracts/1_Storage.sol\":4004:4026  voterDetails[_voterId] */\n      0x00\n        /* \"contracts/1_Storage.sol\":4017:4025  _voterId */\n      dup5\n        /* \"contracts/1_Storage.sol\":4004:4026  voterDetails[_voterId] */\n      dup2\n      mstore\n      0x20\n      add\n      swap1\n      dup2\n      mstore\n      0x20\n      add\n      0x00\n      keccak256\n        /* \"contracts/1_Storage.sol\":4004:4042  voterDetails[_voterId].voteCandidateId */\n      0x04\n      add\n        /* \"contracts/1_Storage.sol\":4004:4057  voterDetails[_voterId].voteCandidateId = _candidateId */\n      dup2\n      swap1\n      sstore\n      pop\n        /* \"contracts/1_Storage.sol\":4067:4083  candidateDetails */\n      0x08\n        /* \"contracts/1_Storage.sol\":4067:4097  candidateDetails[_candidateId] */\n      0x00\n        /* \"contracts/1_Storage.sol\":4084:4096  _candidateId */\n      dup3\n        /* \"contracts/1_Storage.sol\":4067:4097  candidateDetails[_candidateId] */\n      dup2\n      mstore\n      0x20\n      add\n      swap1\n      dup2\n      mstore\n      0x20\n      add\n      0x00\n      keccak256\n        /* \"contracts/1_Storage.sol\":4067:4103  candidateDetails[_candidateId].votes */\n      0x06\n      add\n      0x00\n        /* \"contracts/1_Storage.sol\":4067:4105  candidateDetails[_candidateId].votes++ */\n      dup2\n      sload\n      dup1\n      swap3\n      swap2\n      swap1\n      tag_63\n      swap1\n      tag_64\n      jump\t// in\n    tag_63:\n      swap2\n      swap1\n      pop\n      sstore\n      pop\n        /* \"contracts/1_Storage.sol\":3596:4112  function castVote(uint _voterId, uint _candidateId) external {... */\n      pop\n      pop\n      jump\t// out\n        /* \"contracts/1_Storage.sol\":4424:4735  function getVotingStatus() public view returns (VotingStatus) {... */\n    tag_19:\n        /* \"contracts/1_Storage.sol\":4472:4484  VotingStatus */\n      0x00\n        /* \"contracts/1_Storage.sol\":4510:4511  0 */\n      dup1\n        /* \"contracts/1_Storage.sol\":4499:4508  startTime */\n      sload(0x04)\n        /* \"contracts/1_Storage.sol\":4499:4511  startTime==0 */\n      sub\n        /* \"contracts/1_Storage.sol\":4496:4728  if(startTime==0){... */\n      tag_66\n      jumpi\n        /* \"contracts/1_Storage.sol\":4533:4556  VotingStatus.NotStarted */\n      0x00\n        /* \"contracts/1_Storage.sol\":4526:4556  return VotingStatus.NotStarted */\n      swap1\n      pop\n      jump(tag_65)\n        /* \"contracts/1_Storage.sol\":4496:4728  if(startTime==0){... */\n    tag_66:\n        /* \"contracts/1_Storage.sol\":4583:4598  block.timestamp */\n      timestamp\n        /* \"contracts/1_Storage.sol\":4575:4582  endTime */\n      sload(0x05)\n        /* \"contracts/1_Storage.sol\":4575:4598  endTime>block.timestamp */\n      gt\n        /* \"contracts/1_Storage.sol\":4575:4619  endTime>block.timestamp && stopVoting==false */\n      dup1\n      iszero\n      tag_68\n      jumpi\n      pop\n        /* \"contracts/1_Storage.sol\":4614:4619  false */\n      0x00\n        /* \"contracts/1_Storage.sol\":4602:4619  stopVoting==false */\n      iszero\n      iszero\n        /* \"contracts/1_Storage.sol\":4602:4612  stopVoting */\n      0x06\n      0x00\n      swap1\n      sload\n      swap1\n      0x0100\n      exp\n      swap1\n      div\n      0xff\n      and\n        /* \"contracts/1_Storage.sol\":4602:4619  stopVoting==false */\n      iszero\n      iszero\n      eq\n        /* \"contracts/1_Storage.sol\":4575:4619  endTime>block.timestamp && stopVoting==false */\n    tag_68:\n        /* \"contracts/1_Storage.sol\":4572:4728  if(endTime>block.timestamp && stopVoting==false){... */\n      iszero\n      tag_69\n      jumpi\n        /* \"contracts/1_Storage.sol\":4640:4663  VotingStatus.InProgress */\n      0x01\n        /* \"contracts/1_Storage.sol\":4633:4663  return VotingStatus.InProgress */\n      swap1\n      pop\n      jump(tag_65)\n        /* \"contracts/1_Storage.sol\":4572:4728  if(endTime>block.timestamp && stopVoting==false){... */\n    tag_69:\n        /* \"contracts/1_Storage.sol\":4699:4717  VotingStatus.Ended */\n      0x02\n        /* \"contracts/1_Storage.sol\":4692:4717  return VotingStatus.Ended */\n      swap1\n      pop\n        /* \"contracts/1_Storage.sol\":4424:4735  function getVotingStatus() public view returns (VotingStatus) {... */\n    tag_65:\n      swap1\n      jump\t// out\n        /* \"contracts/1_Storage.sol\":4742:5047  function announceVotingResult() external onlyCommissioner() {... */\n    tag_23:\n        /* \"contracts/1_Storage.sol\":1153:1163  msg.sender */\n      caller\n        /* \"contracts/1_Storage.sol\":1131:1163  electionCommission == msg.sender */\n      0xffffffffffffffffffffffffffffffffffffffff\n      and\n        /* \"contracts/1_Storage.sol\":1131:1149  electionCommission */\n      0x00\n      dup1\n      sload\n      swap1\n      0x0100\n      exp\n      swap1\n      div\n      0xffffffffffffffffffffffffffffffffffffffff\n      and\n        /* \"contracts/1_Storage.sol\":1131:1163  electionCommission == msg.sender */\n      0xffffffffffffffffffffffffffffffffffffffff\n      and\n      eq\n        /* \"contracts/1_Storage.sol\":1123:1187  require(electionCommission == msg.sender, \"Unauthorized Access\") */\n      tag_72\n      jumpi\n      mload(0x40)\n      0x08c379a000000000000000000000000000000000000000000000000000000000\n      dup2\n      mstore\n      0x04\n      add\n      tag_73\n      swap1\n      tag_74\n      jump\t// in\n    tag_73:\n      mload(0x40)\n      dup1\n      swap2\n      sub\n      swap1\n      revert\n    tag_72:\n        /* \"contracts/1_Storage.sol\":4843:4859  candidateDetails */\n      0x08\n        /* \"contracts/1_Storage.sol\":4843:4862  candidateDetails[2] */\n      0x00\n        /* \"contracts/1_Storage.sol\":4860:4861  2 */\n      0x02\n        /* \"contracts/1_Storage.sol\":4843:4862  candidateDetails[2] */\n      dup2\n      mstore\n      0x20\n      add\n      swap1\n      dup2\n      mstore\n      0x20\n      add\n      0x00\n      keccak256\n        /* \"contracts/1_Storage.sol\":4843:4868  candidateDetails[2].votes */\n      0x06\n      add\n      sload\n        /* \"contracts/1_Storage.sol\":4815:4831  candidateDetails */\n      0x08\n        /* \"contracts/1_Storage.sol\":4815:4834  candidateDetails[1] */\n      0x00\n        /* \"contracts/1_Storage.sol\":4832:4833  1 */\n      0x01\n        /* \"contracts/1_Storage.sol\":4815:4834  candidateDetails[1] */\n      dup2\n      mstore\n      0x20\n      add\n      swap1\n      dup2\n      mstore\n      0x20\n      add\n      0x00\n      keccak256\n        /* \"contracts/1_Storage.sol\":4815:4840  candidateDetails[1].votes */\n      0x06\n      add\n      sload\n        /* \"contracts/1_Storage.sol\":4815:4868  candidateDetails[1].votes > candidateDetails[2].votes */\n      gt\n        /* \"contracts/1_Storage.sol\":4812:5041  if(candidateDetails[1].votes > candidateDetails[2].votes)... */\n      iszero\n      tag_76\n      jumpi\n        /* \"contracts/1_Storage.sol\":4901:4917  candidateDetails */\n      0x08\n        /* \"contracts/1_Storage.sol\":4901:4920  candidateDetails[1] */\n      0x00\n        /* \"contracts/1_Storage.sol\":4918:4919  1 */\n      0x01\n        /* \"contracts/1_Storage.sol\":4901:4920  candidateDetails[1] */\n      dup2\n      mstore\n      0x20\n      add\n      swap1\n      dup2\n      mstore\n      0x20\n      add\n      0x00\n      keccak256\n        /* \"contracts/1_Storage.sol\":4901:4937  candidateDetails[1].candidateAddress */\n      0x05\n      add\n      0x00\n      swap1\n      sload\n      swap1\n      0x0100\n      exp\n      swap1\n      div\n      0xffffffffffffffffffffffffffffffffffffffff\n      and\n        /* \"contracts/1_Storage.sol\":4892:4898  winner */\n      0x01\n      0x00\n        /* \"contracts/1_Storage.sol\":4892:4937  winner = candidateDetails[1].candidateAddress */\n      0x0100\n      exp\n      dup2\n      sload\n      dup2\n      0xffffffffffffffffffffffffffffffffffffffff\n      mul\n      not\n      and\n      swap1\n      dup4\n      0xffffffffffffffffffffffffffffffffffffffff\n      and\n      mul\n      or\n      swap1\n      sstore\n      pop\n        /* \"contracts/1_Storage.sol\":4812:5041  if(candidateDetails[1].votes > candidateDetails[2].votes)... */\n      jump(tag_77)\n    tag_76:\n        /* \"contracts/1_Storage.sol\":4994:5010  candidateDetails */\n      0x08\n        /* \"contracts/1_Storage.sol\":4994:5013  candidateDetails[2] */\n      0x00\n        /* \"contracts/1_Storage.sol\":5011:5012  2 */\n      0x02\n        /* \"contracts/1_Storage.sol\":4994:5013  candidateDetails[2] */\n      dup2\n      mstore\n      0x20\n      add\n      swap1\n      dup2\n      mstore\n      0x20\n      add\n      0x00\n      keccak256\n        /* \"contracts/1_Storage.sol\":4994:5030  candidateDetails[2].candidateAddress */\n      0x05\n      add\n      0x00\n      swap1\n      sload\n      swap1\n      0x0100\n      exp\n      swap1\n      div\n      0xffffffffffffffffffffffffffffffffffffffff\n      and\n        /* \"contracts/1_Storage.sol\":4985:4991  winner */\n      0x01\n      0x00\n        /* \"contracts/1_Storage.sol\":4985:5030  winner = candidateDetails[2].candidateAddress */\n      0x0100\n      exp\n      dup2\n      sload\n      dup2\n      0xffffffffffffffffffffffffffffffffffffffff\n      mul\n      not\n      and\n      swap1\n      dup4\n      0xffffffffffffffffffffffffffffffffffffffff\n      and\n      mul\n      or\n      swap1\n      sstore\n      pop\n        /* \"contracts/1_Storage.sol\":4812:5041  if(candidateDetails[1].votes > candidateDetails[2].votes)... */\n    tag_77:\n        /* \"contracts/1_Storage.sol\":4742:5047  function announceVotingResult() external onlyCommissioner() {... */\n      jump\t// out\n        /* \"contracts/1_Storage.sol\":2856:3308  function registerVoter(... */\n    tag_27:\n        /* \"contracts/1_Storage.sol\":2986:3018  isVoterNotRegistered(msg.sender) */\n      tag_79\n        /* \"contracts/1_Storage.sol\":3007:3017  msg.sender */\n      caller\n        /* \"contracts/1_Storage.sol\":2986:3006  isVoterNotRegistered */\n      tag_80\n        /* \"contracts/1_Storage.sol\":2986:3018  isVoterNotRegistered(msg.sender) */\n      jump\t// in\n    tag_79:\n        /* \"contracts/1_Storage.sol\":2978:3048  require(isVoterNotRegistered(msg.sender),\"You are already registered\") */\n      tag_81\n      jumpi\n      mload(0x40)\n      0x08c379a000000000000000000000000000000000000000000000000000000000\n      dup2\n      mstore\n      0x04\n      add\n      tag_82\n      swap1\n      tag_83\n      jump\t// in\n    tag_82:\n      mload(0x40)\n      dup1\n      swap2\n      sub\n      swap1\n      revert\n    tag_81:\n        /* \"contracts/1_Storage.sol\":3086:3278  Voter({... */\n      mload(0x40)\n      dup1\n      0xc0\n      add\n      0x40\n      mstore\n      dup1\n        /* \"contracts/1_Storage.sol\":3111:3116  _name */\n      dup6\n      dup6\n        /* \"contracts/1_Storage.sol\":3086:3278  Voter({... */\n      dup1\n      dup1\n      0x1f\n      add\n      0x20\n      dup1\n      swap2\n      div\n      mul\n      0x20\n      add\n      mload(0x40)\n      swap1\n      dup2\n      add\n      0x40\n      mstore\n      dup1\n      swap4\n      swap3\n      swap2\n      swap1\n      dup2\n      dup2\n      mstore\n      0x20\n      add\n      dup4\n      dup4\n      dup1\n      dup3\n      dup5\n      calldatacopy\n      0x00\n      dup2\n      dup5\n      add\n      mstore\n      not(0x1f)\n      0x1f\n      dup3\n      add\n      and\n      swap1\n      pop\n      dup1\n      dup4\n      add\n      swap3\n      pop\n      pop\n      pop\n      pop\n      pop\n      pop\n      pop\n      dup2\n      mstore\n      0x20\n      add\n        /* \"contracts/1_Storage.sol\":3134:3138  _age */\n      dup4\n        /* \"contracts/1_Storage.sol\":3086:3278  Voter({... */\n      dup2\n      mstore\n      0x20\n      add\n        /* \"contracts/1_Storage.sol\":3160:3171  nextVoterId */\n      sload(0x02)\n        /* \"contracts/1_Storage.sol\":3086:3278  Voter({... */\n      dup2\n      mstore\n      0x20\n      add\n        /* \"contracts/1_Storage.sol\":3192:3199  _gender */\n      dup3\n        /* \"contracts/1_Storage.sol\":3086:3278  Voter({... */\n      0x03\n      dup2\n      gt\n      iszero\n      tag_84\n      jumpi\n      tag_85\n      tag_86\n      jump\t// in\n    tag_85:\n    tag_84:\n      dup2\n      mstore\n      0x20\n      add\n        /* \"contracts/1_Storage.sol\":3229:3230  0 */\n      0x00\n        /* \"contracts/1_Storage.sol\":3086:3278  Voter({... */\n      dup2\n      mstore\n      0x20\n      add\n        /* \"contracts/1_Storage.sol\":3257:3267  msg.sender */\n      caller\n        /* \"contracts/1_Storage.sol\":3086:3278  Voter({... */\n      0xffffffffffffffffffffffffffffffffffffffff\n      and\n      dup2\n      mstore\n      pop\n        /* \"contracts/1_Storage.sol\":3058:3070  voterDetails */\n      0x07\n        /* \"contracts/1_Storage.sol\":3058:3083  voterDetails[nextVoterId] */\n      0x00\n        /* \"contracts/1_Storage.sol\":3071:3082  nextVoterId */\n      sload(0x02)\n        /* \"contracts/1_Storage.sol\":3058:3083  voterDetails[nextVoterId] */\n      dup2\n      mstore\n      0x20\n      add\n      swap1\n      dup2\n      mstore\n      0x20\n      add\n      0x00\n      keccak256\n        /* \"contracts/1_Storage.sol\":3058:3278  voterDetails[nextVoterId] = Voter({... */\n      0x00\n      dup3\n      add\n      mload\n      dup2\n      0x00\n      add\n      swap1\n      dup2\n      tag_87\n      swap2\n      swap1\n      tag_88\n      jump\t// in\n    tag_87:\n      pop\n      0x20\n      dup3\n      add\n      mload\n      dup2\n      0x01\n      add\n      sstore\n      0x40\n      dup3\n      add\n      mload\n      dup2\n      0x02\n      add\n      sstore\n      0x60\n      dup3\n      add\n      mload\n      dup2\n      0x03\n      add\n      exp(0x0100, 0x00)\n      dup2\n      sload\n      dup2\n      0xff\n      mul\n      not\n      and\n      swap1\n      dup4\n      0x03\n      dup2\n      gt\n      iszero\n      tag_89\n      jumpi\n      tag_90\n      tag_86\n      jump\t// in\n    tag_90:\n    tag_89:\n      mul\n      or\n      swap1\n      sstore\n      pop\n      0x80\n      dup3\n      add\n      mload\n      dup2\n      0x04\n      add\n      sstore\n      0xa0\n      dup3\n      add\n      mload\n      dup2\n      0x05\n      add\n      exp(0x0100, 0x00)\n      dup2\n      sload\n      dup2\n      0xffffffffffffffffffffffffffffffffffffffff\n      mul\n      not\n      and\n      swap1\n      dup4\n      0xffffffffffffffffffffffffffffffffffffffff\n      and\n      mul\n      or\n      swap1\n      sstore\n      pop\n      swap1\n      pop\n      pop\n        /* \"contracts/1_Storage.sol\":3288:3299  nextVoterId */\n      0x02\n      0x00\n        /* \"contracts/1_Storage.sol\":3288:3301  nextVoterId++ */\n      dup2\n      sload\n      dup1\n      swap3\n      swap2\n      swap1\n      tag_91\n      swap1\n      tag_64\n      jump\t// in\n    tag_91:\n      swap2\n      swap1\n      pop\n      sstore\n      pop\n        /* \"contracts/1_Storage.sol\":2856:3308  function registerVoter(... */\n      pop\n      pop\n      pop\n      pop\n      jump\t// out\n        /* \"contracts/1_Storage.sol\":1211:1902  function registerCandidate(... */\n    tag_31:\n        /* \"contracts/1_Storage.sol\":1377:1413  isCandidateNotRegistered(msg.sender) */\n      tag_93\n        /* \"contracts/1_Storage.sol\":1402:1412  msg.sender */\n      caller\n        /* \"contracts/1_Storage.sol\":1377:1401  isCandidateNotRegistered */\n      tag_94\n        /* \"contracts/1_Storage.sol\":1377:1413  isCandidateNotRegistered(msg.sender) */\n      jump\t// in\n    tag_93:\n        /* \"contracts/1_Storage.sol\":1369:1436  require(isCandidateNotRegistered(msg.sender), \"Already Registered\") */\n      tag_95\n      jumpi\n      mload(0x40)\n      0x08c379a000000000000000000000000000000000000000000000000000000000\n      dup2\n      mstore\n      0x04\n      add\n      tag_96\n      swap1\n      tag_97\n      jump\t// in\n    tag_96:\n      mload(0x40)\n      dup1\n      swap2\n      sub\n      swap1\n      revert\n    tag_95:\n        /* \"contracts/1_Storage.sol\":1470:1471  3 */\n      0x03\n        /* \"contracts/1_Storage.sol\":1454:1469  nextCandidateId */\n      dup1\n      sload\n        /* \"contracts/1_Storage.sol\":1454:1471  nextCandidateId<3 */\n      lt\n        /* \"contracts/1_Storage.sol\":1446:1503  require(nextCandidateId<3, \"Candidate Registration Full\") */\n      tag_98\n      jumpi\n      mload(0x40)\n      0x08c379a000000000000000000000000000000000000000000000000000000000\n      dup2\n      mstore\n      0x04\n      add\n      tag_99\n      swap1\n      tag_100\n      jump\t// in\n    tag_99:\n      mload(0x40)\n      dup1\n      swap2\n      sub\n      swap1\n      revert\n    tag_98:\n        /* \"contracts/1_Storage.sol\":1533:1551  electionCommission */\n      0x00\n      dup1\n      sload\n      swap1\n      0x0100\n      exp\n      swap1\n      div\n      0xffffffffffffffffffffffffffffffffffffffff\n      and\n        /* \"contracts/1_Storage.sol\":1521:1551  msg.sender!=electionCommission */\n      0xffffffffffffffffffffffffffffffffffffffff\n      and\n        /* \"contracts/1_Storage.sol\":1521:1531  msg.sender */\n      caller\n        /* \"contracts/1_Storage.sol\":1521:1551  msg.sender!=electionCommission */\n      0xffffffffffffffffffffffffffffffffffffffff\n      and\n      sub\n        /* \"contracts/1_Storage.sol\":1513:1597  require(msg.sender!=electionCommission,\"Election Commision not allowed to register\") */\n      tag_101\n      jumpi\n      mload(0x40)\n      0x08c379a000000000000000000000000000000000000000000000000000000000\n      dup2\n      mstore\n      0x04\n      add\n      tag_102\n      swap1\n      tag_103\n      jump\t// in\n    tag_102:\n      mload(0x40)\n      dup1\n      swap2\n      sub\n      swap1\n      revert\n    tag_101:\n        /* \"contracts/1_Storage.sol\":1644:1868  Candidate({... */\n      mload(0x40)\n      dup1\n      0xe0\n      add\n      0x40\n      mstore\n      dup1\n        /* \"contracts/1_Storage.sol\":1673:1678  _name */\n      dup8\n      dup8\n        /* \"contracts/1_Storage.sol\":1644:1868  Candidate({... */\n      dup1\n      dup1\n      0x1f\n      add\n      0x20\n      dup1\n      swap2\n      div\n      mul\n      0x20\n      add\n      mload(0x40)\n      swap1\n      dup2\n      add\n      0x40\n      mstore\n      dup1\n      swap4\n      swap3\n      swap2\n      swap1\n      dup2\n      dup2\n      mstore\n      0x20\n      add\n      dup4\n      dup4\n      dup1\n      dup3\n      dup5\n      calldatacopy\n      0x00\n      dup2\n      dup5\n      add\n      mstore\n      not(0x1f)\n      0x1f\n      dup3\n      add\n      and\n      swap1\n      pop\n      dup1\n      dup4\n      add\n      swap3\n      pop\n      pop\n      pop\n      pop\n      pop\n      pop\n      pop\n      dup2\n      mstore\n      0x20\n      add\n        /* \"contracts/1_Storage.sol\":1698:1704  _party */\n      dup6\n      dup6\n        /* \"contracts/1_Storage.sol\":1644:1868  Candidate({... */\n      dup1\n      dup1\n      0x1f\n      add\n      0x20\n      dup1\n      swap2\n      div\n      mul\n      0x20\n      add\n      mload(0x40)\n      swap1\n      dup2\n      add\n      0x40\n      mstore\n      dup1\n      swap4\n      swap3\n      swap2\n      swap1\n      dup2\n      dup2\n      mstore\n      0x20\n      add\n      dup4\n      dup4\n      dup1\n      dup3\n      dup5\n      calldatacopy\n      0x00\n      dup2\n      dup5\n      add\n      mstore\n      not(0x1f)\n      0x1f\n      dup3\n      add\n      and\n      swap1\n      pop\n      dup1\n      dup4\n      add\n      swap3\n      pop\n      pop\n      pop\n      pop\n      pop\n      pop\n      pop\n      dup2\n      mstore\n      0x20\n      add\n        /* \"contracts/1_Storage.sol\":1722:1726  _age */\n      dup4\n        /* \"contracts/1_Storage.sol\":1644:1868  Candidate({... */\n      dup2\n      mstore\n      0x20\n      add\n        /* \"contracts/1_Storage.sol\":1747:1754  _gender */\n      dup3\n        /* \"contracts/1_Storage.sol\":1644:1868  Candidate({... */\n      0x03\n      dup2\n      gt\n      iszero\n      tag_104\n      jumpi\n      tag_105\n      tag_86\n      jump\t// in\n    tag_105:\n    tag_104:\n      dup2\n      mstore\n      0x20\n      add\n        /* \"contracts/1_Storage.sol\":1780:1795  nextCandidateId */\n      sload(0x03)\n        /* \"contracts/1_Storage.sol\":1644:1868  Candidate({... */\n      dup2\n      mstore\n      0x20\n      add\n        /* \"contracts/1_Storage.sol\":1826:1836  msg.sender */\n      caller\n        /* \"contracts/1_Storage.sol\":1644:1868  Candidate({... */\n      0xffffffffffffffffffffffffffffffffffffffff\n      and\n      dup2\n      mstore\n      0x20\n      add\n        /* \"contracts/1_Storage.sol\":1856:1857  0 */\n      0x00\n        /* \"contracts/1_Storage.sol\":1644:1868  Candidate({... */\n      dup2\n      mstore\n      pop\n        /* \"contracts/1_Storage.sol\":1608:1624  candidateDetails */\n      0x08\n        /* \"contracts/1_Storage.sol\":1608:1641  candidateDetails[nextCandidateId] */\n      0x00\n        /* \"contracts/1_Storage.sol\":1625:1640  nextCandidateId */\n      sload(0x03)\n        /* \"contracts/1_Storage.sol\":1608:1641  candidateDetails[nextCandidateId] */\n      dup2\n      mstore\n      0x20\n      add\n      swap1\n      dup2\n      mstore\n      0x20\n      add\n      0x00\n      keccak256\n        /* \"contracts/1_Storage.sol\":1608:1868  candidateDetails[nextCandidateId] = Candidate({... */\n      0x00\n      dup3\n      add\n      mload\n      dup2\n      0x00\n      add\n      swap1\n      dup2\n      tag_106\n      swap2\n      swap1\n      tag_88\n      jump\t// in\n    tag_106:\n      pop\n      0x20\n      dup3\n      add\n      mload\n      dup2\n      0x01\n      add\n      swap1\n      dup2\n      tag_107\n      swap2\n      swap1\n      tag_88\n      jump\t// in\n    tag_107:\n      pop\n      0x40\n      dup3\n      add\n      mload\n      dup2\n      0x02\n      add\n      sstore\n      0x60\n      dup3\n      add\n      mload\n      dup2\n      0x03\n      add\n      exp(0x0100, 0x00)\n      dup2\n      sload\n      dup2\n      0xff\n      mul\n      not\n      and\n      swap1\n      dup4\n      0x03\n      dup2\n      gt\n      iszero\n      tag_108\n      jumpi\n      tag_109\n      tag_86\n      jump\t// in\n    tag_109:\n    tag_108:\n      mul\n      or\n      swap1\n      sstore\n      pop\n      0x80\n      dup3\n      add\n      mload\n      dup2\n      0x04\n      add\n      sstore\n      0xa0\n      dup3\n      add\n      mload\n      dup2\n      0x05\n      add\n      exp(0x0100, 0x00)\n      dup2\n      sload\n      dup2\n      0xffffffffffffffffffffffffffffffffffffffff\n      mul\n      not\n      and\n      swap1\n      dup4\n      0xffffffffffffffffffffffffffffffffffffffff\n      and\n      mul\n      or\n      swap1\n      sstore\n      pop\n      0xc0\n      dup3\n      add\n      mload\n      dup2\n      0x06\n      add\n      sstore\n      swap1\n      pop\n      pop\n        /* \"contracts/1_Storage.sol\":1878:1893  nextCandidateId */\n      0x03\n      0x00\n        /* \"contracts/1_Storage.sol\":1878:1895  nextCandidateId++ */\n      dup2\n      sload\n      dup1\n      swap3\n      swap2\n      swap1\n      tag_110\n      swap1\n      tag_64\n      jump\t// in\n    tag_110:\n      swap2\n      swap1\n      pop\n      sstore\n      pop\n        /* \"contracts/1_Storage.sol\":1211:1902  function registerCandidate(... */\n      pop\n      pop\n      pop\n      pop\n      pop\n      pop\n      jump\t// out\n        /* \"contracts/1_Storage.sol\":5054:5144  function emergencyStopVoting() public onlyCommissioner() {... */\n    tag_33:\n        /* \"contracts/1_Storage.sol\":1153:1163  msg.sender */\n      caller\n        /* \"contracts/1_Storage.sol\":1131:1163  electionCommission == msg.sender */\n      0xffffffffffffffffffffffffffffffffffffffff\n      and\n        /* \"contracts/1_Storage.sol\":1131:1149  electionCommission */\n      0x00\n      dup1\n      sload\n      swap1\n      0x0100\n      exp\n      swap1\n      div\n      0xffffffffffffffffffffffffffffffffffffffff\n      and\n        /* \"contracts/1_Storage.sol\":1131:1163  electionCommission == msg.sender */\n      0xffffffffffffffffffffffffffffffffffffffff\n      and\n      eq\n        /* \"contracts/1_Storage.sol\":1123:1187  require(electionCommission == msg.sender, \"Unauthorized Access\") */\n      tag_112\n      jumpi\n      mload(0x40)\n      0x08c379a000000000000000000000000000000000000000000000000000000000\n      dup2\n      mstore\n      0x04\n      add\n      tag_113\n      swap1\n      tag_74\n      jump\t// in\n    tag_113:\n      mload(0x40)\n      dup1\n      swap2\n      sub\n      swap1\n      revert\n    tag_112:\n        /* \"contracts/1_Storage.sol\":5133:5137  true */\n      0x01\n        /* \"contracts/1_Storage.sol\":5120:5130  stopVoting */\n      0x06\n      0x00\n        /* \"contracts/1_Storage.sol\":5120:5137  stopVoting = true */\n      0x0100\n      exp\n      dup2\n      sload\n      dup2\n      0xff\n      mul\n      not\n      and\n      swap1\n      dup4\n      iszero\n      iszero\n      mul\n      or\n      swap1\n      sstore\n      pop\n        /* \"contracts/1_Storage.sol\":5054:5144  function emergencyStopVoting() public onlyCommissioner() {... */\n      jump\t// out\n        /* \"contracts/1_Storage.sol\":4119:4417  function setVotingPeriod(uint _startTimeDuration, uint _endTimeDuration) external onlyCommissioner() {... */\n    tag_36:\n        /* \"contracts/1_Storage.sol\":1153:1163  msg.sender */\n      caller\n        /* \"contracts/1_Storage.sol\":1131:1163  electionCommission == msg.sender */\n      0xffffffffffffffffffffffffffffffffffffffff\n      and\n        /* \"contracts/1_Storage.sol\":1131:1149  electionCommission */\n      0x00\n      dup1\n      sload\n      swap1\n      0x0100\n      exp\n      swap1\n      div\n      0xffffffffffffffffffffffffffffffffffffffff\n      and\n        /* \"contracts/1_Storage.sol\":1131:1163  electionCommission == msg.sender */\n      0xffffffffffffffffffffffffffffffffffffffff\n      and\n      eq\n        /* \"contracts/1_Storage.sol\":1123:1187  require(electionCommission == msg.sender, \"Unauthorized Access\") */\n      tag_116\n      jumpi\n      mload(0x40)\n      0x08c379a000000000000000000000000000000000000000000000000000000000\n      dup2\n      mstore\n      0x04\n      add\n      tag_117\n      swap1\n      tag_74\n      jump\t// in\n    tag_117:\n      mload(0x40)\n      dup1\n      swap2\n      sub\n      swap1\n      revert\n    tag_116:\n        /* \"contracts/1_Storage.sol\":4255:4259  3600 */\n      0x0e10\n        /* \"contracts/1_Storage.sol\":4238:4254  _endTimeDuration */\n      dup2\n        /* \"contracts/1_Storage.sol\":4238:4259  _endTimeDuration>3600 */\n      gt\n        /* \"contracts/1_Storage.sol\":4230:4307  require(_endTimeDuration>3600,\"_endTimeDuration must be greater than 1 hour\") */\n      tag_119\n      jumpi\n      mload(0x40)\n      0x08c379a000000000000000000000000000000000000000000000000000000000\n      dup2\n      mstore\n      0x04\n      add\n      tag_120\n      swap1\n      tag_121\n      jump\t// in\n    tag_120:\n      mload(0x40)\n      dup1\n      swap2\n      sub\n      swap1\n      revert\n    tag_119:\n        /* \"contracts/1_Storage.sol\":4346:4364  _startTimeDuration */\n      dup2\n        /* \"contracts/1_Storage.sol\":4330:4345  block.timestamp */\n      timestamp\n        /* \"contracts/1_Storage.sol\":4330:4364  block.timestamp+_startTimeDuration */\n      tag_122\n      swap2\n      swap1\n      tag_123\n      jump\t// in\n    tag_122:\n        /* \"contracts/1_Storage.sol\":4318:4327  startTime */\n      0x04\n        /* \"contracts/1_Storage.sol\":4318:4364  startTime = block.timestamp+_startTimeDuration */\n      dup2\n      swap1\n      sstore\n      pop\n        /* \"contracts/1_Storage.sol\":4394:4410  _endTimeDuration */\n      dup1\n        /* \"contracts/1_Storage.sol\":4384:4393  startTime */\n      sload(0x04)\n        /* \"contracts/1_Storage.sol\":4384:4410  startTime+_endTimeDuration */\n      tag_124\n      swap2\n      swap1\n      tag_123\n      jump\t// in\n    tag_124:\n        /* \"contracts/1_Storage.sol\":4374:4381  endTime */\n      0x05\n        /* \"contracts/1_Storage.sol\":4374:4410  endTime = startTime+_endTimeDuration */\n      dup2\n      swap1\n      sstore\n      pop\n        /* \"contracts/1_Storage.sol\":4119:4417  function setVotingPeriod(uint _startTimeDuration, uint _endTimeDuration) external onlyCommissioner() {... */\n      pop\n      pop\n      jump\t// out\n        /* \"contracts/1_Storage.sol\":3315:3590  function getVoterList() public view returns (Voter[] memory) {... */\n    tag_38:\n        /* \"contracts/1_Storage.sol\":3360:3374  Voter[] memory */\n      0x60\n        /* \"contracts/1_Storage.sol\":3386:3410  Voter[] memory voterList */\n      0x00\n        /* \"contracts/1_Storage.sol\":3438:3439  1 */\n      0x01\n        /* \"contracts/1_Storage.sol\":3426:3437  nextVoterId */\n      sload(0x02)\n        /* \"contracts/1_Storage.sol\":3426:3439  nextVoterId-1 */\n      tag_126\n      swap2\n      swap1\n      tag_127\n      jump\t// in\n    tag_126:\n        /* \"contracts/1_Storage.sol\":3413:3440  new Voter[] (nextVoterId-1) */\n      0xffffffffffffffff\n      dup2\n      gt\n      iszero\n      tag_128\n      jumpi\n      tag_129\n      tag_130\n      jump\t// in\n    tag_129:\n    tag_128:\n      mload(0x40)\n      swap1\n      dup1\n      dup3\n      mstore\n      dup1\n      0x20\n      mul\n      0x20\n      add\n      dup3\n      add\n      0x40\n      mstore\n      dup1\n      iszero\n      tag_131\n      jumpi\n      dup2\n      0x20\n      add\n    tag_132:\n      tag_133\n      tag_134\n      jump\t// in\n    tag_133:\n      dup2\n      mstore\n      0x20\n      add\n      swap1\n      0x01\n      swap1\n      sub\n      swap1\n      dup2\n      tag_132\n      jumpi\n      swap1\n      pop\n    tag_131:\n      pop\n        /* \"contracts/1_Storage.sol\":3386:3440  Voter[] memory voterList = new Voter[] (nextVoterId-1) */\n      swap1\n      pop\n        /* \"contracts/1_Storage.sol\":3454:3460  uint i */\n      0x00\n        /* \"contracts/1_Storage.sol\":3450:3558  for(uint i = 0; i < voterList.length; i++)... */\n    tag_135:\n        /* \"contracts/1_Storage.sol\":3470:3479  voterList */\n      dup2\n        /* \"contracts/1_Storage.sol\":3470:3486  voterList.length */\n      mload\n        /* \"contracts/1_Storage.sol\":3466:3467  i */\n      dup2\n        /* \"contracts/1_Storage.sol\":3466:3486  i < voterList.length */\n      lt\n        /* \"contracts/1_Storage.sol\":3450:3558  for(uint i = 0; i < voterList.length; i++)... */\n      iszero\n      tag_136\n      jumpi\n        /* \"contracts/1_Storage.sol\":3530:3542  voterDetails */\n      0x07\n        /* \"contracts/1_Storage.sol\":3530:3547  voterDetails[i+1] */\n      0x00\n        /* \"contracts/1_Storage.sol\":3545:3546  1 */\n      0x01\n        /* \"contracts/1_Storage.sol\":3543:3544  i */\n      dup4\n        /* \"contracts/1_Storage.sol\":3543:3546  i+1 */\n      tag_138\n      swap2\n      swap1\n      tag_123\n      jump\t// in\n    tag_138:\n        /* \"contracts/1_Storage.sol\":3530:3547  voterDetails[i+1] */\n      dup2\n      mstore\n      0x20\n      add\n      swap1\n      dup2\n      mstore\n      0x20\n      add\n      0x00\n      keccak256\n        /* \"contracts/1_Storage.sol\":3515:3547  voterList[i] = voterDetails[i+1] */\n      mload(0x40)\n      dup1\n      0xc0\n      add\n      0x40\n      mstore\n      swap1\n      dup2\n      0x00\n      dup3\n      add\n      dup1\n      sload\n      tag_139\n      swap1\n      tag_140\n      jump\t// in\n    tag_139:\n      dup1\n      0x1f\n      add\n      0x20\n      dup1\n      swap2\n      div\n      mul\n      0x20\n      add\n      mload(0x40)\n      swap1\n      dup2\n      add\n      0x40\n      mstore\n      dup1\n      swap3\n      swap2\n      swap1\n      dup2\n      dup2\n      mstore\n      0x20\n      add\n      dup3\n      dup1\n      sload\n      tag_141\n      swap1\n      tag_140\n      jump\t// in\n    tag_141:\n      dup1\n      iszero\n      tag_142\n      jumpi\n      dup1\n      0x1f\n      lt\n      tag_143\n      jumpi\n      0x0100\n      dup1\n      dup4\n      sload\n      div\n      mul\n      dup4\n      mstore\n      swap2\n      0x20\n      add\n      swap2\n      jump(tag_142)\n    tag_143:\n      dup3\n      add\n      swap2\n      swap1\n      0x00\n      mstore\n      keccak256(0x00, 0x20)\n      swap1\n    tag_144:\n      dup2\n      sload\n      dup2\n      mstore\n      swap1\n      0x01\n      add\n      swap1\n      0x20\n      add\n      dup1\n      dup4\n      gt\n      tag_144\n      jumpi\n      dup3\n      swap1\n      sub\n      0x1f\n      and\n      dup3\n      add\n      swap2\n    tag_142:\n      pop\n      pop\n      pop\n      pop\n      pop\n      dup2\n      mstore\n      0x20\n      add\n      0x01\n      dup3\n      add\n      sload\n      dup2\n      mstore\n      0x20\n      add\n      0x02\n      dup3\n      add\n      sload\n      dup2\n      mstore\n      0x20\n      add\n      0x03\n      dup3\n      add\n      0x00\n      swap1\n      sload\n      swap1\n      0x0100\n      exp\n      swap1\n      div\n      0xff\n      and\n      0x03\n      dup2\n      gt\n      iszero\n      tag_145\n      jumpi\n      tag_146\n      tag_86\n      jump\t// in\n    tag_146:\n    tag_145:\n      0x03\n      dup2\n      gt\n      iszero\n      tag_147\n      jumpi\n      tag_148\n      tag_86\n      jump\t// in\n    tag_148:\n    tag_147:\n      dup2\n      mstore\n      0x20\n      add\n      0x04\n      dup3\n      add\n      sload\n      dup2\n      mstore\n      0x20\n      add\n      0x05\n      dup3\n      add\n      0x00\n      swap1\n      sload\n      swap1\n      0x0100\n      exp\n      swap1\n      div\n      0xffffffffffffffffffffffffffffffffffffffff\n      and\n      0xffffffffffffffffffffffffffffffffffffffff\n      and\n      0xffffffffffffffffffffffffffffffffffffffff\n      and\n      dup2\n      mstore\n      pop\n      pop\n        /* \"contracts/1_Storage.sol\":3515:3524  voterList */\n      dup3\n        /* \"contracts/1_Storage.sol\":3525:3526  i */\n      dup3\n        /* \"contracts/1_Storage.sol\":3515:3527  voterList[i] */\n      dup2\n      mload\n      dup2\n      lt\n      tag_149\n      jumpi\n      tag_150\n      tag_151\n      jump\t// in\n    tag_150:\n    tag_149:\n      0x20\n      mul\n      0x20\n      add\n      add\n        /* \"contracts/1_Storage.sol\":3515:3547  voterList[i] = voterDetails[i+1] */\n      dup2\n      swap1\n      mstore\n      pop\n        /* \"contracts/1_Storage.sol\":3488:3491  i++ */\n      dup1\n      dup1\n      0x01\n      add\n      swap2\n      pop\n      pop\n        /* \"contracts/1_Storage.sol\":3450:3558  for(uint i = 0; i < voterList.length; i++)... */\n      jump(tag_135)\n    tag_136:\n      pop\n        /* \"contracts/1_Storage.sol\":3574:3583  voterList */\n      dup1\n        /* \"contracts/1_Storage.sol\":3567:3583  return voterList */\n      swap2\n      pop\n      pop\n        /* \"contracts/1_Storage.sol\":3315:3590  function getVoterList() public view returns (Voter[] memory) {... */\n      swap1\n      jump\t// out\n        /* \"contracts/1_Storage.sol\":486:507  address public winner */\n    tag_42:\n      0x01\n      0x00\n      swap1\n      sload\n      swap1\n      0x0100\n      exp\n      swap1\n      div\n      0xffffffffffffffffffffffffffffffffffffffff\n      and\n      dup2\n      jump\t// out\n        /* \"contracts/1_Storage.sol\":2242:2558  function getCandidateList() public view returns (Candidate[] memory) {... */\n    tag_46:\n        /* \"contracts/1_Storage.sol\":2291:2309  Candidate[] memory */\n      0x60\n        /* \"contracts/1_Storage.sol\":2321:2353  Candidate[] memory candidateList */\n      0x00\n        /* \"contracts/1_Storage.sol\":2389:2390  1 */\n      0x01\n        /* \"contracts/1_Storage.sol\":2373:2388  nextCandidateId */\n      sload(0x03)\n        /* \"contracts/1_Storage.sol\":2373:2390  nextCandidateId-1 */\n      tag_153\n      swap2\n      swap1\n      tag_127\n      jump\t// in\n    tag_153:\n        /* \"contracts/1_Storage.sol\":2356:2391  new Candidate[] (nextCandidateId-1) */\n      0xffffffffffffffff\n      dup2\n      gt\n      iszero\n      tag_154\n      jumpi\n      tag_155\n      tag_130\n      jump\t// in\n    tag_155:\n    tag_154:\n      mload(0x40)\n      swap1\n      dup1\n      dup3\n      mstore\n      dup1\n      0x20\n      mul\n      0x20\n      add\n      dup3\n      add\n      0x40\n      mstore\n      dup1\n      iszero\n      tag_156\n      jumpi\n      dup2\n      0x20\n      add\n    tag_157:\n      tag_158\n      tag_159\n      jump\t// in\n    tag_158:\n      dup2\n      mstore\n      0x20\n      add\n      swap1\n      0x01\n      swap1\n      sub\n      swap1\n      dup2\n      tag_157\n      jumpi\n      swap1\n      pop\n    tag_156:\n      pop\n        /* \"contracts/1_Storage.sol\":2321:2391  Candidate[] memory candidateList = new Candidate[] (nextCandidateId-1) */\n      swap1\n      pop\n        /* \"contracts/1_Storage.sol\":2406:2412  uint i */\n      0x00\n        /* \"contracts/1_Storage.sol\":2401:2522  for (uint i = 0; i < candidateList.length; i++)... */\n    tag_160:\n        /* \"contracts/1_Storage.sol\":2422:2435  candidateList */\n      dup2\n        /* \"contracts/1_Storage.sol\":2422:2442  candidateList.length */\n      mload\n        /* \"contracts/1_Storage.sol\":2418:2419  i */\n      dup2\n        /* \"contracts/1_Storage.sol\":2418:2442  i < candidateList.length */\n      lt\n        /* \"contracts/1_Storage.sol\":2401:2522  for (uint i = 0; i < candidateList.length; i++)... */\n      iszero\n      tag_161\n      jumpi\n        /* \"contracts/1_Storage.sol\":2490:2506  candidateDetails */\n      0x08\n        /* \"contracts/1_Storage.sol\":2490:2511  candidateDetails[i+1] */\n      0x00\n        /* \"contracts/1_Storage.sol\":2509:2510  1 */\n      0x01\n        /* \"contracts/1_Storage.sol\":2507:2508  i */\n      dup4\n        /* \"contracts/1_Storage.sol\":2507:2510  i+1 */\n      tag_163\n      swap2\n      swap1\n      tag_123\n      jump\t// in\n    tag_163:\n        /* \"contracts/1_Storage.sol\":2490:2511  candidateDetails[i+1] */\n      dup2\n      mstore\n      0x20\n      add\n      swap1\n      dup2\n      mstore\n      0x20\n      add\n      0x00\n      keccak256\n        /* \"contracts/1_Storage.sol\":2471:2511  candidateList[i] = candidateDetails[i+1] */\n      mload(0x40)\n      dup1\n      0xe0\n      add\n      0x40\n      mstore\n      swap1\n      dup2\n      0x00\n      dup3\n      add\n      dup1\n      sload\n      tag_164\n      swap1\n      tag_140\n      jump\t// in\n    tag_164:\n      dup1\n      0x1f\n      add\n      0x20\n      dup1\n      swap2\n      div\n      mul\n      0x20\n      add\n      mload(0x40)\n      swap1\n      dup2\n      add\n      0x40\n      mstore\n      dup1\n      swap3\n      swap2\n      swap1\n      dup2\n      dup2\n      mstore\n      0x20\n      add\n      dup3\n      dup1\n      sload\n      tag_165\n      swap1\n      tag_140\n      jump\t// in\n    tag_165:\n      dup1\n      iszero\n      tag_166\n      jumpi\n      dup1\n      0x1f\n      lt\n      tag_167\n      jumpi\n      0x0100\n      dup1\n      dup4\n      sload\n      div\n      mul\n      dup4\n      mstore\n      swap2\n      0x20\n      add\n      swap2\n      jump(tag_166)\n    tag_167:\n      dup3\n      add\n      swap2\n      swap1\n      0x00\n      mstore\n      keccak256(0x00, 0x20)\n      swap1\n    tag_168:\n      dup2\n      sload\n      dup2\n      mstore\n      swap1\n      0x01\n      add\n      swap1\n      0x20\n      add\n      dup1\n      dup4\n      gt\n      tag_168\n      jumpi\n      dup3\n      swap1\n      sub\n      0x1f\n      and\n      dup3\n      add\n      swap2\n    tag_166:\n      pop\n      pop\n      pop\n      pop\n      pop\n      dup2\n      mstore\n      0x20\n      add\n      0x01\n      dup3\n      add\n      dup1\n      sload\n      tag_169\n      swap1\n      tag_140\n      jump\t// in\n    tag_169:\n      dup1\n      0x1f\n      add\n      0x20\n      dup1\n      swap2\n      div\n      mul\n      0x20\n      add\n      mload(0x40)\n      swap1\n      dup2\n      add\n      0x40\n      mstore\n      dup1\n      swap3\n      swap2\n      swap1\n      dup2\n      dup2\n      mstore\n      0x20\n      add\n      dup3\n      dup1\n      sload\n      tag_170\n      swap1\n      tag_140\n      jump\t// in\n    tag_170:\n      dup1\n      iszero\n      tag_171\n      jumpi\n      dup1\n      0x1f\n      lt\n      tag_172\n      jumpi\n      0x0100\n      dup1\n      dup4\n      sload\n      div\n      mul\n      dup4\n      mstore\n      swap2\n      0x20\n      add\n      swap2\n      jump(tag_171)\n    tag_172:\n      dup3\n      add\n      swap2\n      swap1\n      0x00\n      mstore\n      keccak256(0x00, 0x20)\n      swap1\n    tag_173:\n      dup2\n      sload\n      dup2\n      mstore\n      swap1\n      0x01\n      add\n      swap1\n      0x20\n      add\n      dup1\n      dup4\n      gt\n      tag_173\n      jumpi\n      dup3\n      swap1\n      sub\n      0x1f\n      and\n      dup3\n      add\n      swap2\n    tag_171:\n      pop\n      pop\n      pop\n      pop\n      pop\n      dup2\n      mstore\n      0x20\n      add\n      0x02\n      dup3\n      add\n      sload\n      dup2\n      mstore\n      0x20\n      add\n      0x03\n      dup3\n      add\n      0x00\n      swap1\n      sload\n      swap1\n      0x0100\n      exp\n      swap1\n      div\n      0xff\n      and\n      0x03\n      dup2\n      gt\n      iszero\n      tag_174\n      jumpi\n      tag_175\n      tag_86\n      jump\t// in\n    tag_175:\n    tag_174:\n      0x03\n      dup2\n      gt\n      iszero\n      tag_176\n      jumpi\n      tag_177\n      tag_86\n      jump\t// in\n    tag_177:\n    tag_176:\n      dup2\n      mstore\n      0x20\n      add\n      0x04\n      dup3\n      add\n      sload\n      dup2\n      mstore\n      0x20\n      add\n      0x05\n      dup3\n      add\n      0x00\n      swap1\n      sload\n      swap1\n      0x0100\n      exp\n      swap1\n      div\n      0xffffffffffffffffffffffffffffffffffffffff\n      and\n      0xffffffffffffffffffffffffffffffffffffffff\n      and\n      0xffffffffffffffffffffffffffffffffffffffff\n      and\n      dup2\n      mstore\n      0x20\n      add\n      0x06\n      dup3\n      add\n      sload\n      dup2\n      mstore\n      pop\n      pop\n        /* \"contracts/1_Storage.sol\":2471:2484  candidateList */\n      dup3\n        /* \"contracts/1_Storage.sol\":2485:2486  i */\n      dup3\n        /* \"contracts/1_Storage.sol\":2471:2487  candidateList[i] */\n      dup2\n      mload\n      dup2\n      lt\n      tag_178\n      jumpi\n      tag_179\n      tag_151\n      jump\t// in\n    tag_179:\n    tag_178:\n      0x20\n      mul\n      0x20\n      add\n      add\n        /* \"contracts/1_Storage.sol\":2471:2511  candidateList[i] = candidateDetails[i+1] */\n      dup2\n      swap1\n      mstore\n      pop\n        /* \"contracts/1_Storage.sol\":2444:2447  i++ */\n      dup1\n      dup1\n      0x01\n      add\n      swap2\n      pop\n      pop\n        /* \"contracts/1_Storage.sol\":2401:2522  for (uint i = 0; i < candidateList.length; i++)... */\n      jump(tag_160)\n    tag_161:\n      pop\n        /* \"contracts/1_Storage.sol\":2538:2551  candidateList */\n      dup1\n        /* \"contracts/1_Storage.sol\":2531:2551  return candidateList */\n      swap2\n      pop\n      pop\n        /* \"contracts/1_Storage.sol\":2242:2558  function getCandidateList() public view returns (Candidate[] memory) {... */\n      swap1\n      jump\t// out\n        /* \"contracts/1_Storage.sol\":2565:2850  function isVoterNotRegistered(address _person) internal view returns (bool) {... */\n    tag_80:\n        /* \"contracts/1_Storage.sol\":2635:2639  bool */\n      0x00\n        /* \"contracts/1_Storage.sol\":2656:2662  uint i */\n      dup1\n        /* \"contracts/1_Storage.sol\":2665:2666  1 */\n      0x01\n        /* \"contracts/1_Storage.sol\":2656:2666  uint i = 1 */\n      swap1\n      pop\n        /* \"contracts/1_Storage.sol\":2651:2823  for (uint i = 1; i < nextVoterId; i++)... */\n    tag_181:\n        /* \"contracts/1_Storage.sol\":2672:2683  nextVoterId */\n      sload(0x02)\n        /* \"contracts/1_Storage.sol\":2668:2669  i */\n      dup2\n        /* \"contracts/1_Storage.sol\":2668:2683  i < nextVoterId */\n      lt\n        /* \"contracts/1_Storage.sol\":2651:2823  for (uint i = 1; i < nextVoterId; i++)... */\n      iszero\n      tag_182\n      jumpi\n        /* \"contracts/1_Storage.sol\":2747:2754  _person */\n      dup3\n        /* \"contracts/1_Storage.sol\":2715:2754  voterDetails[i].voterAddress == _person */\n      0xffffffffffffffffffffffffffffffffffffffff\n      and\n        /* \"contracts/1_Storage.sol\":2715:2727  voterDetails */\n      0x07\n        /* \"contracts/1_Storage.sol\":2715:2730  voterDetails[i] */\n      0x00\n        /* \"contracts/1_Storage.sol\":2728:2729  i */\n      dup4\n        /* \"contracts/1_Storage.sol\":2715:2730  voterDetails[i] */\n      dup2\n      mstore\n      0x20\n      add\n      swap1\n      dup2\n      mstore\n      0x20\n      add\n      0x00\n      keccak256\n        /* \"contracts/1_Storage.sol\":2715:2743  voterDetails[i].voterAddress */\n      0x05\n      add\n      0x00\n      swap1\n      sload\n      swap1\n      0x0100\n      exp\n      swap1\n      div\n      0xffffffffffffffffffffffffffffffffffffffff\n      and\n        /* \"contracts/1_Storage.sol\":2715:2754  voterDetails[i].voterAddress == _person */\n      0xffffffffffffffffffffffffffffffffffffffff\n      and\n      sub\n        /* \"contracts/1_Storage.sol\":2712:2813  if(voterDetails[i].voterAddress == _person)... */\n      tag_184\n      jumpi\n        /* \"contracts/1_Storage.sol\":2793:2798  false */\n      0x00\n        /* \"contracts/1_Storage.sol\":2786:2798  return false */\n      swap2\n      pop\n      pop\n      jump(tag_180)\n        /* \"contracts/1_Storage.sol\":2712:2813  if(voterDetails[i].voterAddress == _person)... */\n    tag_184:\n        /* \"contracts/1_Storage.sol\":2685:2688  i++ */\n      dup1\n      dup1\n      0x01\n      add\n      swap2\n      pop\n      pop\n        /* \"contracts/1_Storage.sol\":2651:2823  for (uint i = 1; i < nextVoterId; i++)... */\n      jump(tag_181)\n    tag_182:\n      pop\n        /* \"contracts/1_Storage.sol\":2839:2843  true */\n      0x01\n        /* \"contracts/1_Storage.sol\":2832:2843  return true */\n      swap1\n      pop\n        /* \"contracts/1_Storage.sol\":2565:2850  function isVoterNotRegistered(address _person) internal view returns (bool) {... */\n    tag_180:\n      swap2\n      swap1\n      pop\n      jump\t// out\n        /* \"contracts/1_Storage.sol\":1909:2235  function isCandidateNotRegistered(address _person) internal view returns (bool) {... */\n    tag_94:\n        /* \"contracts/1_Storage.sol\":1983:1987  bool */\n      0x00\n        /* \"contracts/1_Storage.sol\":2007:2013  uint i */\n      dup1\n        /* \"contracts/1_Storage.sol\":2016:2017  1 */\n      0x01\n        /* \"contracts/1_Storage.sol\":2007:2017  uint i = 1 */\n      swap1\n      pop\n        /* \"contracts/1_Storage.sol\":2002:2208  for (uint i = 1; i < nextCandidateId; i++)... */\n    tag_186:\n        /* \"contracts/1_Storage.sol\":2023:2038  nextCandidateId */\n      sload(0x03)\n        /* \"contracts/1_Storage.sol\":2019:2020  i */\n      dup2\n        /* \"contracts/1_Storage.sol\":2019:2038  i < nextCandidateId */\n      lt\n        /* \"contracts/1_Storage.sol\":2002:2208  for (uint i = 1; i < nextCandidateId; i++)... */\n      iszero\n      tag_187\n      jumpi\n        /* \"contracts/1_Storage.sol\":2117:2124  _person */\n      dup3\n        /* \"contracts/1_Storage.sol\":2077:2124  candidateDetails[i].candidateAddress == _person */\n      0xffffffffffffffffffffffffffffffffffffffff\n      and\n        /* \"contracts/1_Storage.sol\":2077:2093  candidateDetails */\n      0x08\n        /* \"contracts/1_Storage.sol\":2077:2096  candidateDetails[i] */\n      0x00\n        /* \"contracts/1_Storage.sol\":2094:2095  i */\n      dup4\n        /* \"contracts/1_Storage.sol\":2077:2096  candidateDetails[i] */\n      dup2\n      mstore\n      0x20\n      add\n      swap1\n      dup2\n      mstore\n      0x20\n      add\n      0x00\n      keccak256\n        /* \"contracts/1_Storage.sol\":2077:2113  candidateDetails[i].candidateAddress */\n      0x05\n      add\n      0x00\n      swap1\n      sload\n      swap1\n      0x0100\n      exp\n      swap1\n      div\n      0xffffffffffffffffffffffffffffffffffffffff\n      and\n        /* \"contracts/1_Storage.sol\":2077:2124  candidateDetails[i].candidateAddress == _person */\n      0xffffffffffffffffffffffffffffffffffffffff\n      and\n      sub\n        /* \"contracts/1_Storage.sol\":2074:2195  if(candidateDetails[i].candidateAddress == _person)... */\n      tag_189\n      jumpi\n        /* \"contracts/1_Storage.sol\":2171:2176  false */\n      0x00\n        /* \"contracts/1_Storage.sol\":2164:2176  return false */\n      swap2\n      pop\n      pop\n      jump(tag_185)\n        /* \"contracts/1_Storage.sol\":2074:2195  if(candidateDetails[i].candidateAddress == _person)... */\n    tag_189:\n        /* \"contracts/1_Storage.sol\":2040:2043  i++ */\n      dup1\n      dup1\n      0x01\n      add\n      swap2\n      pop\n      pop\n        /* \"contracts/1_Storage.sol\":2002:2208  for (uint i = 1; i < nextCandidateId; i++)... */\n      jump(tag_186)\n    tag_187:\n      pop\n        /* \"contracts/1_Storage.sol\":2224:2228  true */\n      0x01\n        /* \"contracts/1_Storage.sol\":2217:2228  return true */\n      swap1\n      pop\n        /* \"contracts/1_Storage.sol\":1909:2235  function isCandidateNotRegistered(address _person) internal view returns (bool) {... */\n    tag_185:\n      swap2\n      swap1\n      pop\n      jump\t// out\n    tag_134:\n      mload(0x40)\n      dup1\n      0xc0\n      add\n      0x40\n      mstore\n      dup1\n      0x60\n      dup2\n      mstore\n      0x20\n      add\n      0x00\n      dup2\n      mstore\n      0x20\n      add\n      0x00\n      dup2\n      mstore\n      0x20\n      add\n      0x00\n      0x03\n      dup2\n      gt\n      iszero\n      tag_190\n      jumpi\n      tag_191\n      tag_86\n      jump\t// in\n    tag_191:\n    tag_190:\n      dup2\n      mstore\n      0x20\n      add\n      0x00\n      dup2\n      mstore\n      0x20\n      add\n      and(0xffffffffffffffffffffffffffffffffffffffff, 0x00)\n      dup2\n      mstore\n      pop\n      swap1\n      jump\t// out\n    tag_159:\n      mload(0x40)\n      dup1\n      0xe0\n      add\n      0x40\n      mstore\n      dup1\n      0x60\n      dup2\n      mstore\n      0x20\n      add\n      0x60\n      dup2\n      mstore\n      0x20\n      add\n      0x00\n      dup2\n      mstore\n      0x20\n      add\n      0x00\n      0x03\n      dup2\n      gt\n      iszero\n      tag_192\n      jumpi\n      tag_193\n      tag_86\n      jump\t// in\n    tag_193:\n    tag_192:\n      dup2\n      mstore\n      0x20\n      add\n      0x00\n      dup2\n      mstore\n      0x20\n      add\n      and(0xffffffffffffffffffffffffffffffffffffffff, 0x00)\n      dup2\n      mstore\n      0x20\n      add\n      0x00\n      dup2\n      mstore\n      pop\n      swap1\n      jump\t// out\n        /* \"#utility.yul\":88:205   */\n    tag_195:\n        /* \"#utility.yul\":197:198   */\n      0x00\n        /* \"#utility.yul\":194:195   */\n      dup1\n        /* \"#utility.yul\":187:199   */\n      revert\n        /* \"#utility.yul\":211:328   */\n    tag_196:\n        /* \"#utility.yul\":320:321   */\n      0x00\n        /* \"#utility.yul\":317:318   */\n      dup1\n        /* \"#utility.yul\":310:322   */\n      revert\n        /* \"#utility.yul\":334:411   */\n    tag_197:\n        /* \"#utility.yul\":371:378   */\n      0x00\n        /* \"#utility.yul\":400:405   */\n      dup2\n        /* \"#utility.yul\":389:405   */\n      swap1\n      pop\n        /* \"#utility.yul\":334:411   */\n      swap2\n      swap1\n      pop\n      jump\t// out\n        /* \"#utility.yul\":417:539   */\n    tag_198:\n        /* \"#utility.yul\":490:514   */\n      tag_282\n        /* \"#utility.yul\":508:513   */\n      dup2\n        /* \"#utility.yul\":490:514   */\n      tag_197\n      jump\t// in\n    tag_282:\n        /* \"#utility.yul\":483:488   */\n      dup2\n        /* \"#utility.yul\":480:515   */\n      eq\n        /* \"#utility.yul\":470:533   */\n      tag_283\n      jumpi\n        /* \"#utility.yul\":529:530   */\n      0x00\n        /* \"#utility.yul\":526:527   */\n      dup1\n        /* \"#utility.yul\":519:531   */\n      revert\n        /* \"#utility.yul\":470:533   */\n    tag_283:\n        /* \"#utility.yul\":417:539   */\n      pop\n      jump\t// out\n        /* \"#utility.yul\":545:684   */\n    tag_199:\n        /* \"#utility.yul\":591:596   */\n      0x00\n        /* \"#utility.yul\":629:635   */\n      dup2\n        /* \"#utility.yul\":616:636   */\n      calldataload\n        /* \"#utility.yul\":607:636   */\n      swap1\n      pop\n        /* \"#utility.yul\":645:678   */\n      tag_285\n        /* \"#utility.yul\":672:677   */\n      dup2\n        /* \"#utility.yul\":645:678   */\n      tag_198\n      jump\t// in\n    tag_285:\n        /* \"#utility.yul\":545:684   */\n      swap3\n      swap2\n      pop\n      pop\n      jump\t// out\n        /* \"#utility.yul\":690:1164   */\n    tag_16:\n        /* \"#utility.yul\":758:764   */\n      0x00\n        /* \"#utility.yul\":766:772   */\n      dup1\n        /* \"#utility.yul\":815:817   */\n      0x40\n        /* \"#utility.yul\":803:812   */\n      dup4\n        /* \"#utility.yul\":794:801   */\n      dup6\n        /* \"#utility.yul\":790:813   */\n      sub\n        /* \"#utility.yul\":786:818   */\n      slt\n        /* \"#utility.yul\":783:902   */\n      iszero\n      tag_287\n      jumpi\n        /* \"#utility.yul\":821:900   */\n      tag_288\n      tag_195\n      jump\t// in\n    tag_288:\n        /* \"#utility.yul\":783:902   */\n    tag_287:\n        /* \"#utility.yul\":941:942   */\n      0x00\n        /* \"#utility.yul\":966:1019   */\n      tag_289\n        /* \"#utility.yul\":1011:1018   */\n      dup6\n        /* \"#utility.yul\":1002:1008   */\n      dup3\n        /* \"#utility.yul\":991:1000   */\n      dup7\n        /* \"#utility.yul\":987:1009   */\n      add\n        /* \"#utility.yul\":966:1019   */\n      tag_199\n      jump\t// in\n    tag_289:\n        /* \"#utility.yul\":956:1019   */\n      swap3\n      pop\n        /* \"#utility.yul\":912:1029   */\n      pop\n        /* \"#utility.yul\":1068:1070   */\n      0x20\n        /* \"#utility.yul\":1094:1147   */\n      tag_290\n        /* \"#utility.yul\":1139:1146   */\n      dup6\n        /* \"#utility.yul\":1130:1136   */\n      dup3\n        /* \"#utility.yul\":1119:1128   */\n      dup7\n        /* \"#utility.yul\":1115:1137   */\n      add\n        /* \"#utility.yul\":1094:1147   */\n      tag_199\n      jump\t// in\n    tag_290:\n        /* \"#utility.yul\":1084:1147   */\n      swap2\n      pop\n        /* \"#utility.yul\":1039:1157   */\n      pop\n        /* \"#utility.yul\":690:1164   */\n      swap3\n      pop\n      swap3\n      swap1\n      pop\n      jump\t// out\n        /* \"#utility.yul\":1170:1350   */\n    tag_86:\n        /* \"#utility.yul\":1218:1295   */\n      0x4e487b7100000000000000000000000000000000000000000000000000000000\n        /* \"#utility.yul\":1215:1216   */\n      0x00\n        /* \"#utility.yul\":1208:1296   */\n      mstore\n        /* \"#utility.yul\":1315:1319   */\n      0x21\n        /* \"#utility.yul\":1312:1313   */\n      0x04\n        /* \"#utility.yul\":1305:1320   */\n      mstore\n        /* \"#utility.yul\":1339:1343   */\n      0x24\n        /* \"#utility.yul\":1336:1337   */\n      0x00\n        /* \"#utility.yul\":1329:1344   */\n      revert\n        /* \"#utility.yul\":1356:1476   */\n    tag_200:\n        /* \"#utility.yul\":1444:1445   */\n      0x03\n        /* \"#utility.yul\":1437:1442   */\n      dup2\n        /* \"#utility.yul\":1434:1446   */\n      lt\n        /* \"#utility.yul\":1424:1470   */\n      tag_293\n      jumpi\n        /* \"#utility.yul\":1450:1468   */\n      tag_294\n      tag_86\n      jump\t// in\n    tag_294:\n        /* \"#utility.yul\":1424:1470   */\n    tag_293:\n        /* \"#utility.yul\":1356:1476   */\n      pop\n      jump\t// out\n        /* \"#utility.yul\":1482:1623   */\n    tag_201:\n        /* \"#utility.yul\":1534:1541   */\n      0x00\n        /* \"#utility.yul\":1563:1568   */\n      dup2\n        /* \"#utility.yul\":1552:1568   */\n      swap1\n      pop\n        /* \"#utility.yul\":1569:1617   */\n      tag_296\n        /* \"#utility.yul\":1611:1616   */\n      dup3\n        /* \"#utility.yul\":1569:1617   */\n      tag_200\n      jump\t// in\n    tag_296:\n        /* \"#utility.yul\":1482:1623   */\n      swap2\n      swap1\n      pop\n      jump\t// out\n        /* \"#utility.yul\":1629:1770   */\n    tag_202:\n        /* \"#utility.yul\":1692:1701   */\n      0x00\n        /* \"#utility.yul\":1725:1764   */\n      tag_298\n        /* \"#utility.yul\":1758:1763   */\n      dup3\n        /* \"#utility.yul\":1725:1764   */\n      tag_201\n      jump\t// in\n    tag_298:\n        /* \"#utility.yul\":1712:1764   */\n      swap1\n      pop\n        /* \"#utility.yul\":1629:1770   */\n      swap2\n      swap1\n      pop\n      jump\t// out\n        /* \"#utility.yul\":1776:1933   */\n    tag_203:\n        /* \"#utility.yul\":1876:1926   */\n      tag_300\n        /* \"#utility.yul\":1920:1925   */\n      dup2\n        /* \"#utility.yul\":1876:1926   */\n      tag_202\n      jump\t// in\n    tag_300:\n        /* \"#utility.yul\":1871:1874   */\n      dup3\n        /* \"#utility.yul\":1864:1927   */\n      mstore\n        /* \"#utility.yul\":1776:1933   */\n      pop\n      pop\n      jump\t// out\n        /* \"#utility.yul\":1939:2187   */\n    tag_21:\n        /* \"#utility.yul\":2045:2049   */\n      0x00\n        /* \"#utility.yul\":2083:2085   */\n      0x20\n        /* \"#utility.yul\":2072:2081   */\n      dup3\n        /* \"#utility.yul\":2068:2086   */\n      add\n        /* \"#utility.yul\":2060:2086   */\n      swap1\n      pop\n        /* \"#utility.yul\":2096:2180   */\n      tag_302\n        /* \"#utility.yul\":2177:2178   */\n      0x00\n        /* \"#utility.yul\":2166:2175   */\n      dup4\n        /* \"#utility.yul\":2162:2179   */\n      add\n        /* \"#utility.yul\":2153:2159   */\n      dup5\n        /* \"#utility.yul\":2096:2180   */\n      tag_203\n      jump\t// in\n    tag_302:\n        /* \"#utility.yul\":1939:2187   */\n      swap3\n      swap2\n      pop\n      pop\n      jump\t// out\n        /* \"#utility.yul\":2193:2310   */\n    tag_204:\n        /* \"#utility.yul\":2302:2303   */\n      0x00\n        /* \"#utility.yul\":2299:2300   */\n      dup1\n        /* \"#utility.yul\":2292:2304   */\n      revert\n        /* \"#utility.yul\":2316:2433   */\n    tag_205:\n        /* \"#utility.yul\":2425:2426   */\n      0x00\n        /* \"#utility.yul\":2422:2423   */\n      dup1\n        /* \"#utility.yul\":2415:2427   */\n      revert\n        /* \"#utility.yul\":2439:2556   */\n    tag_206:\n        /* \"#utility.yul\":2548:2549   */\n      0x00\n        /* \"#utility.yul\":2545:2546   */\n      dup1\n        /* \"#utility.yul\":2538:2550   */\n      revert\n        /* \"#utility.yul\":2576:3129   */\n    tag_207:\n        /* \"#utility.yul\":2634:2642   */\n      0x00\n        /* \"#utility.yul\":2644:2650   */\n      dup1\n        /* \"#utility.yul\":2694:2697   */\n      dup4\n        /* \"#utility.yul\":2687:2691   */\n      0x1f\n        /* \"#utility.yul\":2679:2685   */\n      dup5\n        /* \"#utility.yul\":2675:2692   */\n      add\n        /* \"#utility.yul\":2671:2698   */\n      slt\n        /* \"#utility.yul\":2661:2783   */\n      tag_307\n      jumpi\n        /* \"#utility.yul\":2702:2781   */\n      tag_308\n      tag_204\n      jump\t// in\n    tag_308:\n        /* \"#utility.yul\":2661:2783   */\n    tag_307:\n        /* \"#utility.yul\":2815:2821   */\n      dup3\n        /* \"#utility.yul\":2802:2822   */\n      calldataload\n        /* \"#utility.yul\":2792:2822   */\n      swap1\n      pop\n        /* \"#utility.yul\":2845:2863   */\n      0xffffffffffffffff\n        /* \"#utility.yul\":2837:2843   */\n      dup2\n        /* \"#utility.yul\":2834:2864   */\n      gt\n        /* \"#utility.yul\":2831:2948   */\n      iszero\n      tag_309\n      jumpi\n        /* \"#utility.yul\":2867:2946   */\n      tag_310\n      tag_205\n      jump\t// in\n    tag_310:\n        /* \"#utility.yul\":2831:2948   */\n    tag_309:\n        /* \"#utility.yul\":2981:2985   */\n      0x20\n        /* \"#utility.yul\":2973:2979   */\n      dup4\n        /* \"#utility.yul\":2969:2986   */\n      add\n        /* \"#utility.yul\":2957:2986   */\n      swap2\n      pop\n        /* \"#utility.yul\":3035:3038   */\n      dup4\n        /* \"#utility.yul\":3027:3031   */\n      0x01\n        /* \"#utility.yul\":3019:3025   */\n      dup3\n        /* \"#utility.yul\":3015:3032   */\n      mul\n        /* \"#utility.yul\":3005:3013   */\n      dup4\n        /* \"#utility.yul\":3001:3033   */\n      add\n        /* \"#utility.yul\":2998:3039   */\n      gt\n        /* \"#utility.yul\":2995:3123   */\n      iszero\n      tag_311\n      jumpi\n        /* \"#utility.yul\":3042:3121   */\n      tag_312\n      tag_206\n      jump\t// in\n    tag_312:\n        /* \"#utility.yul\":2995:3123   */\n    tag_311:\n        /* \"#utility.yul\":2576:3129   */\n      swap3\n      pop\n      swap3\n      swap1\n      pop\n      jump\t// out\n        /* \"#utility.yul\":3135:3243   */\n    tag_208:\n        /* \"#utility.yul\":3217:3218   */\n      0x04\n        /* \"#utility.yul\":3210:3215   */\n      dup2\n        /* \"#utility.yul\":3207:3219   */\n      lt\n        /* \"#utility.yul\":3197:3237   */\n      tag_314\n      jumpi\n        /* \"#utility.yul\":3233:3234   */\n      0x00\n        /* \"#utility.yul\":3230:3231   */\n      dup1\n        /* \"#utility.yul\":3223:3235   */\n      revert\n        /* \"#utility.yul\":3197:3237   */\n    tag_314:\n        /* \"#utility.yul\":3135:3243   */\n      pop\n      jump\t// out\n        /* \"#utility.yul\":3249:3406   */\n    tag_209:\n        /* \"#utility.yul\":3304:3309   */\n      0x00\n        /* \"#utility.yul\":3342:3348   */\n      dup2\n        /* \"#utility.yul\":3329:3349   */\n      calldataload\n        /* \"#utility.yul\":3320:3349   */\n      swap1\n      pop\n        /* \"#utility.yul\":3358:3400   */\n      tag_316\n        /* \"#utility.yul\":3394:3399   */\n      dup2\n        /* \"#utility.yul\":3358:3400   */\n      tag_208\n      jump\t// in\n    tag_316:\n        /* \"#utility.yul\":3249:3406   */\n      swap3\n      swap2\n      pop\n      pop\n      jump\t// out\n        /* \"#utility.yul\":3412:4249   */\n    tag_26:\n        /* \"#utility.yul\":3510:3516   */\n      0x00\n        /* \"#utility.yul\":3518:3524   */\n      dup1\n        /* \"#utility.yul\":3526:3532   */\n      0x00\n        /* \"#utility.yul\":3534:3540   */\n      dup1\n        /* \"#utility.yul\":3583:3585   */\n      0x60\n        /* \"#utility.yul\":3571:3580   */\n      dup6\n        /* \"#utility.yul\":3562:3569   */\n      dup8\n        /* \"#utility.yul\":3558:3581   */\n      sub\n        /* \"#utility.yul\":3554:3586   */\n      slt\n        /* \"#utility.yul\":3551:3670   */\n      iszero\n      tag_318\n      jumpi\n        /* \"#utility.yul\":3589:3668   */\n      tag_319\n      tag_195\n      jump\t// in\n    tag_319:\n        /* \"#utility.yul\":3551:3670   */\n    tag_318:\n        /* \"#utility.yul\":3737:3738   */\n      0x00\n        /* \"#utility.yul\":3726:3735   */\n      dup6\n        /* \"#utility.yul\":3722:3739   */\n      add\n        /* \"#utility.yul\":3709:3740   */\n      calldataload\n        /* \"#utility.yul\":3767:3785   */\n      0xffffffffffffffff\n        /* \"#utility.yul\":3759:3765   */\n      dup2\n        /* \"#utility.yul\":3756:3786   */\n      gt\n        /* \"#utility.yul\":3753:3870   */\n      iszero\n      tag_320\n      jumpi\n        /* \"#utility.yul\":3789:3868   */\n      tag_321\n      tag_196\n      jump\t// in\n    tag_321:\n        /* \"#utility.yul\":3753:3870   */\n    tag_320:\n        /* \"#utility.yul\":3902:3967   */\n      tag_322\n        /* \"#utility.yul\":3959:3966   */\n      dup8\n        /* \"#utility.yul\":3950:3956   */\n      dup3\n        /* \"#utility.yul\":3939:3948   */\n      dup9\n        /* \"#utility.yul\":3935:3957   */\n      add\n        /* \"#utility.yul\":3902:3967   */\n      tag_207\n      jump\t// in\n    tag_322:\n        /* \"#utility.yul\":3884:3967   */\n      swap5\n      pop\n      swap5\n      pop\n        /* \"#utility.yul\":3680:3977   */\n      pop\n        /* \"#utility.yul\":4016:4018   */\n      0x20\n        /* \"#utility.yul\":4042:4095   */\n      tag_323\n        /* \"#utility.yul\":4087:4094   */\n      dup8\n        /* \"#utility.yul\":4078:4084   */\n      dup3\n        /* \"#utility.yul\":4067:4076   */\n      dup9\n        /* \"#utility.yul\":4063:4085   */\n      add\n        /* \"#utility.yul\":4042:4095   */\n      tag_199\n      jump\t// in\n    tag_323:\n        /* \"#utility.yul\":4032:4095   */\n      swap3\n      pop\n        /* \"#utility.yul\":3987:4105   */\n      pop\n        /* \"#utility.yul\":4144:4146   */\n      0x40\n        /* \"#utility.yul\":4170:4232   */\n      tag_324\n        /* \"#utility.yul\":4224:4231   */\n      dup8\n        /* \"#utility.yul\":4215:4221   */\n      dup3\n        /* \"#utility.yul\":4204:4213   */\n      dup9\n        /* \"#utility.yul\":4200:4222   */\n      add\n        /* \"#utility.yul\":4170:4232   */\n      tag_209\n      jump\t// in\n    tag_324:\n        /* \"#utility.yul\":4160:4232   */\n      swap2\n      pop\n        /* \"#utility.yul\":4115:4242   */\n      pop\n        /* \"#utility.yul\":3412:4249   */\n      swap3\n      swap6\n      swap2\n      swap5\n      pop\n      swap3\n      pop\n      jump\t// out\n        /* \"#utility.yul\":4255:5438   */\n    tag_30:\n        /* \"#utility.yul\":4374:4380   */\n      0x00\n        /* \"#utility.yul\":4382:4388   */\n      dup1\n        /* \"#utility.yul\":4390:4396   */\n      0x00\n        /* \"#utility.yul\":4398:4404   */\n      dup1\n        /* \"#utility.yul\":4406:4412   */\n      0x00\n        /* \"#utility.yul\":4414:4420   */\n      dup1\n        /* \"#utility.yul\":4463:4466   */\n      0x80\n        /* \"#utility.yul\":4451:4460   */\n      dup8\n        /* \"#utility.yul\":4442:4449   */\n      dup10\n        /* \"#utility.yul\":4438:4461   */\n      sub\n        /* \"#utility.yul\":4434:4467   */\n      slt\n        /* \"#utility.yul\":4431:4551   */\n      iszero\n      tag_326\n      jumpi\n        /* \"#utility.yul\":4470:4549   */\n      tag_327\n      tag_195\n      jump\t// in\n    tag_327:\n        /* \"#utility.yul\":4431:4551   */\n    tag_326:\n        /* \"#utility.yul\":4618:4619   */\n      0x00\n        /* \"#utility.yul\":4607:4616   */\n      dup8\n        /* \"#utility.yul\":4603:4620   */\n      add\n        /* \"#utility.yul\":4590:4621   */\n      calldataload\n        /* \"#utility.yul\":4648:4666   */\n      0xffffffffffffffff\n        /* \"#utility.yul\":4640:4646   */\n      dup2\n        /* \"#utility.yul\":4637:4667   */\n      gt\n        /* \"#utility.yul\":4634:4751   */\n      iszero\n      tag_328\n      jumpi\n        /* \"#utility.yul\":4670:4749   */\n      tag_329\n      tag_196\n      jump\t// in\n    tag_329:\n        /* \"#utility.yul\":4634:4751   */\n    tag_328:\n        /* \"#utility.yul\":4783:4848   */\n      tag_330\n        /* \"#utility.yul\":4840:4847   */\n      dup10\n        /* \"#utility.yul\":4831:4837   */\n      dup3\n        /* \"#utility.yul\":4820:4829   */\n      dup11\n        /* \"#utility.yul\":4816:4838   */\n      add\n        /* \"#utility.yul\":4783:4848   */\n      tag_207\n      jump\t// in\n    tag_330:\n        /* \"#utility.yul\":4765:4848   */\n      swap7\n      pop\n      swap7\n      pop\n        /* \"#utility.yul\":4561:4858   */\n      pop\n        /* \"#utility.yul\":4925:4927   */\n      0x20\n        /* \"#utility.yul\":4914:4923   */\n      dup8\n        /* \"#utility.yul\":4910:4928   */\n      add\n        /* \"#utility.yul\":4897:4929   */\n      calldataload\n        /* \"#utility.yul\":4956:4974   */\n      0xffffffffffffffff\n        /* \"#utility.yul\":4948:4954   */\n      dup2\n        /* \"#utility.yul\":4945:4975   */\n      gt\n        /* \"#utility.yul\":4942:5059   */\n      iszero\n      tag_331\n      jumpi\n        /* \"#utility.yul\":4978:5057   */\n      tag_332\n      tag_196\n      jump\t// in\n    tag_332:\n        /* \"#utility.yul\":4942:5059   */\n    tag_331:\n        /* \"#utility.yul\":5091:5156   */\n      tag_333\n        /* \"#utility.yul\":5148:5155   */\n      dup10\n        /* \"#utility.yul\":5139:5145   */\n      dup3\n        /* \"#utility.yul\":5128:5137   */\n      dup11\n        /* \"#utility.yul\":5124:5146   */\n      add\n        /* \"#utility.yul\":5091:5156   */\n      tag_207\n      jump\t// in\n    tag_333:\n        /* \"#utility.yul\":5073:5156   */\n      swap5\n      pop\n      swap5\n      pop\n        /* \"#utility.yul\":4868:5166   */\n      pop\n        /* \"#utility.yul\":5205:5207   */\n      0x40\n        /* \"#utility.yul\":5231:5284   */\n      tag_334\n        /* \"#utility.yul\":5276:5283   */\n      dup10\n        /* \"#utility.yul\":5267:5273   */\n      dup3\n        /* \"#utility.yul\":5256:5265   */\n      dup11\n        /* \"#utility.yul\":5252:5274   */\n      add\n        /* \"#utility.yul\":5231:5284   */\n      tag_199\n      jump\t// in\n    tag_334:\n        /* \"#utility.yul\":5221:5284   */\n      swap3\n      pop\n        /* \"#utility.yul\":5176:5294   */\n      pop\n        /* \"#utility.yul\":5333:5335   */\n      0x60\n        /* \"#utility.yul\":5359:5421   */\n      tag_335\n        /* \"#utility.yul\":5413:5420   */\n      dup10\n        /* \"#utility.yul\":5404:5410   */\n      dup3\n        /* \"#utility.yul\":5393:5402   */\n      dup11\n        /* \"#utility.yul\":5389:5411   */\n      add\n        /* \"#utility.yul\":5359:5421   */\n      tag_209\n      jump\t// in\n    tag_335:\n        /* \"#utility.yul\":5349:5421   */\n      swap2\n      pop\n        /* \"#utility.yul\":5304:5431   */\n      pop\n        /* \"#utility.yul\":4255:5438   */\n      swap3\n      swap6\n      pop\n      swap3\n      swap6\n      pop\n      swap3\n      swap6\n      jump\t// out\n        /* \"#utility.yul\":5444:5579   */\n    tag_210:\n        /* \"#utility.yul\":5532:5538   */\n      0x00\n        /* \"#utility.yul\":5566:5571   */\n      dup2\n        /* \"#utility.yul\":5560:5572   */\n      mload\n        /* \"#utility.yul\":5550:5572   */\n      swap1\n      pop\n        /* \"#utility.yul\":5444:5579   */\n      swap2\n      swap1\n      pop\n      jump\t// out\n        /* \"#utility.yul\":5585:5790   */\n    tag_211:\n        /* \"#utility.yul\":5705:5716   */\n      0x00\n        /* \"#utility.yul\":5739:5745   */\n      dup3\n        /* \"#utility.yul\":5734:5737   */\n      dup3\n        /* \"#utility.yul\":5727:5746   */\n      mstore\n        /* \"#utility.yul\":5779:5783   */\n      0x20\n        /* \"#utility.yul\":5774:5777   */\n      dup3\n        /* \"#utility.yul\":5770:5784   */\n      add\n        /* \"#utility.yul\":5755:5784   */\n      swap1\n      pop\n        /* \"#utility.yul\":5585:5790   */\n      swap3\n      swap2\n      pop\n      pop\n      jump\t// out\n        /* \"#utility.yul\":5796:5949   */\n    tag_212:\n        /* \"#utility.yul\":5884:5888   */\n      0x00\n        /* \"#utility.yul\":5907:5910   */\n      dup2\n        /* \"#utility.yul\":5899:5910   */\n      swap1\n      pop\n        /* \"#utility.yul\":5937:5941   */\n      0x20\n        /* \"#utility.yul\":5932:5935   */\n      dup3\n        /* \"#utility.yul\":5928:5942   */\n      add\n        /* \"#utility.yul\":5920:5942   */\n      swap1\n      pop\n        /* \"#utility.yul\":5796:5949   */\n      swap2\n      swap1\n      pop\n      jump\t// out\n        /* \"#utility.yul\":5955:6054   */\n    tag_213:\n        /* \"#utility.yul\":6007:6013   */\n      0x00\n        /* \"#utility.yul\":6041:6046   */\n      dup2\n        /* \"#utility.yul\":6035:6047   */\n      mload\n        /* \"#utility.yul\":6025:6047   */\n      swap1\n      pop\n        /* \"#utility.yul\":5955:6054   */\n      swap2\n      swap1\n      pop\n      jump\t// out\n        /* \"#utility.yul\":6060:6219   */\n    tag_214:\n        /* \"#utility.yul\":6134:6145   */\n      0x00\n        /* \"#utility.yul\":6168:6174   */\n      dup3\n        /* \"#utility.yul\":6163:6166   */\n      dup3\n        /* \"#utility.yul\":6156:6175   */\n      mstore\n        /* \"#utility.yul\":6208:6212   */\n      0x20\n        /* \"#utility.yul\":6203:6206   */\n      dup3\n        /* \"#utility.yul\":6199:6213   */\n      add\n        /* \"#utility.yul\":6184:6213   */\n      swap1\n      pop\n        /* \"#utility.yul\":6060:6219   */\n      swap3\n      swap2\n      pop\n      pop\n      jump\t// out\n        /* \"#utility.yul\":6225:6364   */\n    tag_215:\n        /* \"#utility.yul\":6314:6320   */\n      dup3\n        /* \"#utility.yul\":6309:6312   */\n      dup2\n        /* \"#utility.yul\":6304:6307   */\n      dup4\n        /* \"#utility.yul\":6298:6321   */\n      mcopy\n        /* \"#utility.yul\":6355:6356   */\n      0x00\n        /* \"#utility.yul\":6346:6352   */\n      dup4\n        /* \"#utility.yul\":6341:6344   */\n      dup4\n        /* \"#utility.yul\":6337:6353   */\n      add\n        /* \"#utility.yul\":6330:6357   */\n      mstore\n        /* \"#utility.yul\":6225:6364   */\n      pop\n      pop\n      pop\n      jump\t// out\n        /* \"#utility.yul\":6370:6472   */\n    tag_216:\n        /* \"#utility.yul\":6411:6417   */\n      0x00\n        /* \"#utility.yul\":6462:6464   */\n      0x1f\n        /* \"#utility.yul\":6458:6465   */\n      not\n        /* \"#utility.yul\":6453:6455   */\n      0x1f\n        /* \"#utility.yul\":6446:6451   */\n      dup4\n        /* \"#utility.yul\":6442:6456   */\n      add\n        /* \"#utility.yul\":6438:6466   */\n      and\n        /* \"#utility.yul\":6428:6466   */\n      swap1\n      pop\n        /* \"#utility.yul\":6370:6472   */\n      swap2\n      swap1\n      pop\n      jump\t// out\n        /* \"#utility.yul\":6478:6835   */\n    tag_217:\n        /* \"#utility.yul\":6556:6559   */\n      0x00\n        /* \"#utility.yul\":6584:6623   */\n      tag_344\n        /* \"#utility.yul\":6617:6622   */\n      dup3\n        /* \"#utility.yul\":6584:6623   */\n      tag_213\n      jump\t// in\n    tag_344:\n        /* \"#utility.yul\":6639:6700   */\n      tag_345\n        /* \"#utility.yul\":6693:6699   */\n      dup2\n        /* \"#utility.yul\":6688:6691   */\n      dup6\n        /* \"#utility.yul\":6639:6700   */\n      tag_214\n      jump\t// in\n    tag_345:\n        /* \"#utility.yul\":6632:6700   */\n      swap4\n      pop\n        /* \"#utility.yul\":6709:6774   */\n      tag_346\n        /* \"#utility.yul\":6767:6773   */\n      dup2\n        /* \"#utility.yul\":6762:6765   */\n      dup6\n        /* \"#utility.yul\":6755:6759   */\n      0x20\n        /* \"#utility.yul\":6748:6753   */\n      dup7\n        /* \"#utility.yul\":6744:6760   */\n      add\n        /* \"#utility.yul\":6709:6774   */\n      tag_215\n      jump\t// in\n    tag_346:\n        /* \"#utility.yul\":6799:6828   */\n      tag_347\n        /* \"#utility.yul\":6821:6827   */\n      dup2\n        /* \"#utility.yul\":6799:6828   */\n      tag_216\n      jump\t// in\n    tag_347:\n        /* \"#utility.yul\":6794:6797   */\n      dup5\n        /* \"#utility.yul\":6790:6829   */\n      add\n        /* \"#utility.yul\":6783:6829   */\n      swap2\n      pop\n        /* \"#utility.yul\":6560:6835   */\n      pop\n        /* \"#utility.yul\":6478:6835   */\n      swap3\n      swap2\n      pop\n      pop\n      jump\t// out\n        /* \"#utility.yul\":6841:6949   */\n    tag_218:\n        /* \"#utility.yul\":6918:6942   */\n      tag_349\n        /* \"#utility.yul\":6936:6941   */\n      dup2\n        /* \"#utility.yul\":6918:6942   */\n      tag_197\n      jump\t// in\n    tag_349:\n        /* \"#utility.yul\":6913:6916   */\n      dup3\n        /* \"#utility.yul\":6906:6943   */\n      mstore\n        /* \"#utility.yul\":6841:6949   */\n      pop\n      pop\n      jump\t// out\n        /* \"#utility.yul\":6955:7069   */\n    tag_219:\n        /* \"#utility.yul\":7037:7038   */\n      0x04\n        /* \"#utility.yul\":7030:7035   */\n      dup2\n        /* \"#utility.yul\":7027:7039   */\n      lt\n        /* \"#utility.yul\":7017:7063   */\n      tag_351\n      jumpi\n        /* \"#utility.yul\":7043:7061   */\n      tag_352\n      tag_86\n      jump\t// in\n    tag_352:\n        /* \"#utility.yul\":7017:7063   */\n    tag_351:\n        /* \"#utility.yul\":6955:7069   */\n      pop\n      jump\t// out\n        /* \"#utility.yul\":7075:7204   */\n    tag_220:\n        /* \"#utility.yul\":7121:7128   */\n      0x00\n        /* \"#utility.yul\":7150:7155   */\n      dup2\n        /* \"#utility.yul\":7139:7155   */\n      swap1\n      pop\n        /* \"#utility.yul\":7156:7198   */\n      tag_354\n        /* \"#utility.yul\":7192:7197   */\n      dup3\n        /* \"#utility.yul\":7156:7198   */\n      tag_219\n      jump\t// in\n    tag_354:\n        /* \"#utility.yul\":7075:7204   */\n      swap2\n      swap1\n      pop\n      jump\t// out\n        /* \"#utility.yul\":7210:7339   */\n    tag_221:\n        /* \"#utility.yul\":7267:7276   */\n      0x00\n        /* \"#utility.yul\":7300:7333   */\n      tag_356\n        /* \"#utility.yul\":7327:7332   */\n      dup3\n        /* \"#utility.yul\":7300:7333   */\n      tag_220\n      jump\t// in\n    tag_356:\n        /* \"#utility.yul\":7287:7333   */\n      swap1\n      pop\n        /* \"#utility.yul\":7210:7339   */\n      swap2\n      swap1\n      pop\n      jump\t// out\n        /* \"#utility.yul\":7345:7480   */\n    tag_222:\n        /* \"#utility.yul\":7429:7473   */\n      tag_358\n        /* \"#utility.yul\":7467:7472   */\n      dup2\n        /* \"#utility.yul\":7429:7473   */\n      tag_221\n      jump\t// in\n    tag_358:\n        /* \"#utility.yul\":7424:7427   */\n      dup3\n        /* \"#utility.yul\":7417:7474   */\n      mstore\n        /* \"#utility.yul\":7345:7480   */\n      pop\n      pop\n      jump\t// out\n        /* \"#utility.yul\":7486:7612   */\n    tag_223:\n        /* \"#utility.yul\":7523:7530   */\n      0x00\n        /* \"#utility.yul\":7563:7605   */\n      0xffffffffffffffffffffffffffffffffffffffff\n        /* \"#utility.yul\":7556:7561   */\n      dup3\n        /* \"#utility.yul\":7552:7606   */\n      and\n        /* \"#utility.yul\":7541:7606   */\n      swap1\n      pop\n        /* \"#utility.yul\":7486:7612   */\n      swap2\n      swap1\n      pop\n      jump\t// out\n        /* \"#utility.yul\":7618:7714   */\n    tag_224:\n        /* \"#utility.yul\":7655:7662   */\n      0x00\n        /* \"#utility.yul\":7684:7708   */\n      tag_361\n        /* \"#utility.yul\":7702:7707   */\n      dup3\n        /* \"#utility.yul\":7684:7708   */\n      tag_223\n      jump\t// in\n    tag_361:\n        /* \"#utility.yul\":7673:7708   */\n      swap1\n      pop\n        /* \"#utility.yul\":7618:7714   */\n      swap2\n      swap1\n      pop\n      jump\t// out\n        /* \"#utility.yul\":7720:7828   */\n    tag_225:\n        /* \"#utility.yul\":7797:7821   */\n      tag_363\n        /* \"#utility.yul\":7815:7820   */\n      dup2\n        /* \"#utility.yul\":7797:7821   */\n      tag_224\n      jump\t// in\n    tag_363:\n        /* \"#utility.yul\":7792:7795   */\n      dup3\n        /* \"#utility.yul\":7785:7822   */\n      mstore\n        /* \"#utility.yul\":7720:7828   */\n      pop\n      pop\n      jump\t// out\n        /* \"#utility.yul\":7880:9194   */\n    tag_226:\n        /* \"#utility.yul\":7981:7984   */\n      0x00\n        /* \"#utility.yul\":8017:8021   */\n      0xc0\n        /* \"#utility.yul\":8012:8015   */\n      dup4\n        /* \"#utility.yul\":8008:8022   */\n      add\n        /* \"#utility.yul\":8104:8108   */\n      0x00\n        /* \"#utility.yul\":8097:8102   */\n      dup4\n        /* \"#utility.yul\":8093:8109   */\n      add\n        /* \"#utility.yul\":8087:8110   */\n      mload\n        /* \"#utility.yul\":8157:8160   */\n      dup5\n        /* \"#utility.yul\":8151:8155   */\n      dup3\n        /* \"#utility.yul\":8147:8161   */\n      sub\n        /* \"#utility.yul\":8140:8144   */\n      0x00\n        /* \"#utility.yul\":8135:8138   */\n      dup7\n        /* \"#utility.yul\":8131:8145   */\n      add\n        /* \"#utility.yul\":8124:8162   */\n      mstore\n        /* \"#utility.yul\":8183:8256   */\n      tag_365\n        /* \"#utility.yul\":8251:8255   */\n      dup3\n        /* \"#utility.yul\":8237:8249   */\n      dup3\n        /* \"#utility.yul\":8183:8256   */\n      tag_217\n      jump\t// in\n    tag_365:\n        /* \"#utility.yul\":8175:8256   */\n      swap2\n      pop\n        /* \"#utility.yul\":8032:8267   */\n      pop\n        /* \"#utility.yul\":8348:8352   */\n      0x20\n        /* \"#utility.yul\":8341:8346   */\n      dup4\n        /* \"#utility.yul\":8337:8353   */\n      add\n        /* \"#utility.yul\":8331:8354   */\n      mload\n        /* \"#utility.yul\":8367:8430   */\n      tag_366\n        /* \"#utility.yul\":8424:8428   */\n      0x20\n        /* \"#utility.yul\":8419:8422   */\n      dup7\n        /* \"#utility.yul\":8415:8429   */\n      add\n        /* \"#utility.yul\":8401:8413   */\n      dup3\n        /* \"#utility.yul\":8367:8430   */\n      tag_218\n      jump\t// in\n    tag_366:\n        /* \"#utility.yul\":8277:8440   */\n      pop\n        /* \"#utility.yul\":8525:8529   */\n      0x40\n        /* \"#utility.yul\":8518:8523   */\n      dup4\n        /* \"#utility.yul\":8514:8530   */\n      add\n        /* \"#utility.yul\":8508:8531   */\n      mload\n        /* \"#utility.yul\":8544:8607   */\n      tag_367\n        /* \"#utility.yul\":8601:8605   */\n      0x40\n        /* \"#utility.yul\":8596:8599   */\n      dup7\n        /* \"#utility.yul\":8592:8606   */\n      add\n        /* \"#utility.yul\":8578:8590   */\n      dup3\n        /* \"#utility.yul\":8544:8607   */\n      tag_218\n      jump\t// in\n    tag_367:\n        /* \"#utility.yul\":8450:8617   */\n      pop\n        /* \"#utility.yul\":8701:8705   */\n      0x60\n        /* \"#utility.yul\":8694:8699   */\n      dup4\n        /* \"#utility.yul\":8690:8706   */\n      add\n        /* \"#utility.yul\":8684:8707   */\n      mload\n        /* \"#utility.yul\":8720:8790   */\n      tag_368\n        /* \"#utility.yul\":8784:8788   */\n      0x60\n        /* \"#utility.yul\":8779:8782   */\n      dup7\n        /* \"#utility.yul\":8775:8789   */\n      add\n        /* \"#utility.yul\":8761:8773   */\n      dup3\n        /* \"#utility.yul\":8720:8790   */\n      tag_222\n      jump\t// in\n    tag_368:\n        /* \"#utility.yul\":8627:8800   */\n      pop\n        /* \"#utility.yul\":8893:8897   */\n      0x80\n        /* \"#utility.yul\":8886:8891   */\n      dup4\n        /* \"#utility.yul\":8882:8898   */\n      add\n        /* \"#utility.yul\":8876:8899   */\n      mload\n        /* \"#utility.yul\":8912:8975   */\n      tag_369\n        /* \"#utility.yul\":8969:8973   */\n      0x80\n        /* \"#utility.yul\":8964:8967   */\n      dup7\n        /* \"#utility.yul\":8960:8974   */\n      add\n        /* \"#utility.yul\":8946:8958   */\n      dup3\n        /* \"#utility.yul\":8912:8975   */\n      tag_218\n      jump\t// in\n    tag_369:\n        /* \"#utility.yul\":8810:8985   */\n      pop\n        /* \"#utility.yul\":9075:9079   */\n      0xa0\n        /* \"#utility.yul\":9068:9073   */\n      dup4\n        /* \"#utility.yul\":9064:9080   */\n      add\n        /* \"#utility.yul\":9058:9081   */\n      mload\n        /* \"#utility.yul\":9094:9157   */\n      tag_370\n        /* \"#utility.yul\":9151:9155   */\n      0xa0\n        /* \"#utility.yul\":9146:9149   */\n      dup7\n        /* \"#utility.yul\":9142:9156   */\n      add\n        /* \"#utility.yul\":9128:9140   */\n      dup3\n        /* \"#utility.yul\":9094:9157   */\n      tag_225\n      jump\t// in\n    tag_370:\n        /* \"#utility.yul\":8995:9167   */\n      pop\n        /* \"#utility.yul\":9184:9188   */\n      dup1\n        /* \"#utility.yul\":9177:9188   */\n      swap2\n      pop\n        /* \"#utility.yul\":7986:9194   */\n      pop\n        /* \"#utility.yul\":7880:9194   */\n      swap3\n      swap2\n      pop\n      pop\n      jump\t// out\n        /* \"#utility.yul\":9200:9440   */\n    tag_227:\n        /* \"#utility.yul\":9311:9321   */\n      0x00\n        /* \"#utility.yul\":9346:9434   */\n      tag_372\n        /* \"#utility.yul\":9430:9433   */\n      dup4\n        /* \"#utility.yul\":9422:9428   */\n      dup4\n        /* \"#utility.yul\":9346:9434   */\n      tag_226\n      jump\t// in\n    tag_372:\n        /* \"#utility.yul\":9332:9434   */\n      swap1\n      pop\n        /* \"#utility.yul\":9200:9440   */\n      swap3\n      swap2\n      pop\n      pop\n      jump\t// out\n        /* \"#utility.yul\":9446:9580   */\n    tag_228:\n        /* \"#utility.yul\":9537:9541   */\n      0x00\n        /* \"#utility.yul\":9569:9573   */\n      0x20\n        /* \"#utility.yul\":9564:9567   */\n      dup3\n        /* \"#utility.yul\":9560:9574   */\n      add\n        /* \"#utility.yul\":9552:9574   */\n      swap1\n      pop\n        /* \"#utility.yul\":9446:9580   */\n      swap2\n      swap1\n      pop\n      jump\t// out\n        /* \"#utility.yul\":9636:10715   */\n    tag_229:\n        /* \"#utility.yul\":9797:9800   */\n      0x00\n        /* \"#utility.yul\":9826:9901   */\n      tag_375\n        /* \"#utility.yul\":9895:9900   */\n      dup3\n        /* \"#utility.yul\":9826:9901   */\n      tag_210\n      jump\t// in\n    tag_375:\n        /* \"#utility.yul\":9917:10024   */\n      tag_376\n        /* \"#utility.yul\":10017:10023   */\n      dup2\n        /* \"#utility.yul\":10012:10015   */\n      dup6\n        /* \"#utility.yul\":9917:10024   */\n      tag_211\n      jump\t// in\n    tag_376:\n        /* \"#utility.yul\":9910:10024   */\n      swap4\n      pop\n        /* \"#utility.yul\":10050:10053   */\n      dup4\n        /* \"#utility.yul\":10095:10099   */\n      0x20\n        /* \"#utility.yul\":10087:10093   */\n      dup3\n        /* \"#utility.yul\":10083:10100   */\n      mul\n        /* \"#utility.yul\":10078:10081   */\n      dup6\n        /* \"#utility.yul\":10074:10101   */\n      add\n        /* \"#utility.yul\":10125:10202   */\n      tag_377\n        /* \"#utility.yul\":10196:10201   */\n      dup6\n        /* \"#utility.yul\":10125:10202   */\n      tag_212\n      jump\t// in\n    tag_377:\n        /* \"#utility.yul\":10225:10232   */\n      dup1\n        /* \"#utility.yul\":10256:10257   */\n      0x00\n        /* \"#utility.yul\":10241:10670   */\n    tag_378:\n        /* \"#utility.yul\":10266:10272   */\n      dup6\n        /* \"#utility.yul\":10263:10264   */\n      dup2\n        /* \"#utility.yul\":10260:10273   */\n      lt\n        /* \"#utility.yul\":10241:10670   */\n      iszero\n      tag_380\n      jumpi\n        /* \"#utility.yul\":10337:10346   */\n      dup5\n        /* \"#utility.yul\":10331:10335   */\n      dup5\n        /* \"#utility.yul\":10327:10347   */\n      sub\n        /* \"#utility.yul\":10322:10325   */\n      dup10\n        /* \"#utility.yul\":10315:10348   */\n      mstore\n        /* \"#utility.yul\":10388:10394   */\n      dup2\n        /* \"#utility.yul\":10382:10395   */\n      mload\n        /* \"#utility.yul\":10416:10522   */\n      tag_381\n        /* \"#utility.yul\":10517:10521   */\n      dup6\n        /* \"#utility.yul\":10502:10515   */\n      dup3\n        /* \"#utility.yul\":10416:10522   */\n      tag_227\n      jump\t// in\n    tag_381:\n        /* \"#utility.yul\":10408:10522   */\n      swap5\n      pop\n        /* \"#utility.yul\":10545:10626   */\n      tag_382\n        /* \"#utility.yul\":10619:10625   */\n      dup4\n        /* \"#utility.yul\":10545:10626   */\n      tag_228\n      jump\t// in\n    tag_382:\n        /* \"#utility.yul\":10535:10626   */\n      swap3\n      pop\n        /* \"#utility.yul\":10655:10659   */\n      0x20\n        /* \"#utility.yul\":10650:10653   */\n      dup11\n        /* \"#utility.yul\":10646:10660   */\n      add\n        /* \"#utility.yul\":10639:10660   */\n      swap10\n      pop\n        /* \"#utility.yul\":10301:10670   */\n      pop\n        /* \"#utility.yul\":10288:10289   */\n      0x01\n        /* \"#utility.yul\":10285:10286   */\n      dup2\n        /* \"#utility.yul\":10281:10290   */\n      add\n        /* \"#utility.yul\":10276:10290   */\n      swap1\n      pop\n        /* \"#utility.yul\":10241:10670   */\n      jump(tag_378)\n    tag_380:\n        /* \"#utility.yul\":10245:10259   */\n      pop\n        /* \"#utility.yul\":10686:10690   */\n      dup3\n        /* \"#utility.yul\":10679:10690   */\n      swap8\n      pop\n        /* \"#utility.yul\":10706:10709   */\n      dup8\n        /* \"#utility.yul\":10699:10709   */\n      swap6\n      pop\n        /* \"#utility.yul\":9802:10715   */\n      pop\n      pop\n      pop\n      pop\n      pop\n        /* \"#utility.yul\":9636:10715   */\n      swap3\n      swap2\n      pop\n      pop\n      jump\t// out\n        /* \"#utility.yul\":10721:11178   */\n    tag_40:\n        /* \"#utility.yul\":10906:10910   */\n      0x00\n        /* \"#utility.yul\":10944:10946   */\n      0x20\n        /* \"#utility.yul\":10933:10942   */\n      dup3\n        /* \"#utility.yul\":10929:10947   */\n      add\n        /* \"#utility.yul\":10921:10947   */\n      swap1\n      pop\n        /* \"#utility.yul\":10993:11002   */\n      dup2\n        /* \"#utility.yul\":10987:10991   */\n      dup2\n        /* \"#utility.yul\":10983:11003   */\n      sub\n        /* \"#utility.yul\":10979:10980   */\n      0x00\n        /* \"#utility.yul\":10968:10977   */\n      dup4\n        /* \"#utility.yul\":10964:10981   */\n      add\n        /* \"#utility.yul\":10957:11004   */\n      mstore\n        /* \"#utility.yul\":11021:11171   */\n      tag_384\n        /* \"#utility.yul\":11166:11170   */\n      dup2\n        /* \"#utility.yul\":11157:11163   */\n      dup5\n        /* \"#utility.yul\":11021:11171   */\n      tag_229\n      jump\t// in\n    tag_384:\n        /* \"#utility.yul\":11013:11171   */\n      swap1\n      pop\n        /* \"#utility.yul\":10721:11178   */\n      swap3\n      swap2\n      pop\n      pop\n      jump\t// out\n        /* \"#utility.yul\":11184:11302   */\n    tag_230:\n        /* \"#utility.yul\":11271:11295   */\n      tag_386\n        /* \"#utility.yul\":11289:11294   */\n      dup2\n        /* \"#utility.yul\":11271:11295   */\n      tag_224\n      jump\t// in\n    tag_386:\n        /* \"#utility.yul\":11266:11269   */\n      dup3\n        /* \"#utility.yul\":11259:11296   */\n      mstore\n        /* \"#utility.yul\":11184:11302   */\n      pop\n      pop\n      jump\t// out\n        /* \"#utility.yul\":11308:11530   */\n    tag_44:\n        /* \"#utility.yul\":11401:11405   */\n      0x00\n        /* \"#utility.yul\":11439:11441   */\n      0x20\n        /* \"#utility.yul\":11428:11437   */\n      dup3\n        /* \"#utility.yul\":11424:11442   */\n      add\n        /* \"#utility.yul\":11416:11442   */\n      swap1\n      pop\n        /* \"#utility.yul\":11452:11523   */\n      tag_388\n        /* \"#utility.yul\":11520:11521   */\n      0x00\n        /* \"#utility.yul\":11509:11518   */\n      dup4\n        /* \"#utility.yul\":11505:11522   */\n      add\n        /* \"#utility.yul\":11496:11502   */\n      dup5\n        /* \"#utility.yul\":11452:11523   */\n      tag_230\n      jump\t// in\n    tag_388:\n        /* \"#utility.yul\":11308:11530   */\n      swap3\n      swap2\n      pop\n      pop\n      jump\t// out\n        /* \"#utility.yul\":11536:11675   */\n    tag_231:\n        /* \"#utility.yul\":11628:11634   */\n      0x00\n        /* \"#utility.yul\":11662:11667   */\n      dup2\n        /* \"#utility.yul\":11656:11668   */\n      mload\n        /* \"#utility.yul\":11646:11668   */\n      swap1\n      pop\n        /* \"#utility.yul\":11536:11675   */\n      swap2\n      swap1\n      pop\n      jump\t// out\n        /* \"#utility.yul\":11681:11890   */\n    tag_232:\n        /* \"#utility.yul\":11805:11816   */\n      0x00\n        /* \"#utility.yul\":11839:11845   */\n      dup3\n        /* \"#utility.yul\":11834:11837   */\n      dup3\n        /* \"#utility.yul\":11827:11846   */\n      mstore\n        /* \"#utility.yul\":11879:11883   */\n      0x20\n        /* \"#utility.yul\":11874:11877   */\n      dup3\n        /* \"#utility.yul\":11870:11884   */\n      add\n        /* \"#utility.yul\":11855:11884   */\n      swap1\n      pop\n        /* \"#utility.yul\":11681:11890   */\n      swap3\n      swap2\n      pop\n      pop\n      jump\t// out\n        /* \"#utility.yul\":11896:12053   */\n    tag_233:\n        /* \"#utility.yul\":11988:11992   */\n      0x00\n        /* \"#utility.yul\":12011:12014   */\n      dup2\n        /* \"#utility.yul\":12003:12014   */\n      swap1\n      pop\n        /* \"#utility.yul\":12041:12045   */\n      0x20\n        /* \"#utility.yul\":12036:12039   */\n      dup3\n        /* \"#utility.yul\":12032:12046   */\n      add\n        /* \"#utility.yul\":12024:12046   */\n      swap1\n      pop\n        /* \"#utility.yul\":11896:12053   */\n      swap2\n      swap1\n      pop\n      jump\t// out\n        /* \"#utility.yul\":12113:13679   */\n    tag_234:\n        /* \"#utility.yul\":12222:12225   */\n      0x00\n        /* \"#utility.yul\":12258:12262   */\n      0xe0\n        /* \"#utility.yul\":12253:12256   */\n      dup4\n        /* \"#utility.yul\":12249:12263   */\n      add\n        /* \"#utility.yul\":12345:12349   */\n      0x00\n        /* \"#utility.yul\":12338:12343   */\n      dup4\n        /* \"#utility.yul\":12334:12350   */\n      add\n        /* \"#utility.yul\":12328:12351   */\n      mload\n        /* \"#utility.yul\":12398:12401   */\n      dup5\n        /* \"#utility.yul\":12392:12396   */\n      dup3\n        /* \"#utility.yul\":12388:12402   */\n      sub\n        /* \"#utility.yul\":12381:12385   */\n      0x00\n        /* \"#utility.yul\":12376:12379   */\n      dup7\n        /* \"#utility.yul\":12372:12386   */\n      add\n        /* \"#utility.yul\":12365:12403   */\n      mstore\n        /* \"#utility.yul\":12424:12497   */\n      tag_393\n        /* \"#utility.yul\":12492:12496   */\n      dup3\n        /* \"#utility.yul\":12478:12490   */\n      dup3\n        /* \"#utility.yul\":12424:12497   */\n      tag_217\n      jump\t// in\n    tag_393:\n        /* \"#utility.yul\":12416:12497   */\n      swap2\n      pop\n        /* \"#utility.yul\":12273:12508   */\n      pop\n        /* \"#utility.yul\":12591:12595   */\n      0x20\n        /* \"#utility.yul\":12584:12589   */\n      dup4\n        /* \"#utility.yul\":12580:12596   */\n      add\n        /* \"#utility.yul\":12574:12597   */\n      mload\n        /* \"#utility.yul\":12644:12647   */\n      dup5\n        /* \"#utility.yul\":12638:12642   */\n      dup3\n        /* \"#utility.yul\":12634:12648   */\n      sub\n        /* \"#utility.yul\":12627:12631   */\n      0x20\n        /* \"#utility.yul\":12622:12625   */\n      dup7\n        /* \"#utility.yul\":12618:12632   */\n      add\n        /* \"#utility.yul\":12611:12649   */\n      mstore\n        /* \"#utility.yul\":12670:12743   */\n      tag_394\n        /* \"#utility.yul\":12738:12742   */\n      dup3\n        /* \"#utility.yul\":12724:12736   */\n      dup3\n        /* \"#utility.yul\":12670:12743   */\n      tag_217\n      jump\t// in\n    tag_394:\n        /* \"#utility.yul\":12662:12743   */\n      swap2\n      pop\n        /* \"#utility.yul\":12518:12754   */\n      pop\n        /* \"#utility.yul\":12835:12839   */\n      0x40\n        /* \"#utility.yul\":12828:12833   */\n      dup4\n        /* \"#utility.yul\":12824:12840   */\n      add\n        /* \"#utility.yul\":12818:12841   */\n      mload\n        /* \"#utility.yul\":12854:12917   */\n      tag_395\n        /* \"#utility.yul\":12911:12915   */\n      0x40\n        /* \"#utility.yul\":12906:12909   */\n      dup7\n        /* \"#utility.yul\":12902:12916   */\n      add\n        /* \"#utility.yul\":12888:12900   */\n      dup3\n        /* \"#utility.yul\":12854:12917   */\n      tag_218\n      jump\t// in\n    tag_395:\n        /* \"#utility.yul\":12764:12927   */\n      pop\n        /* \"#utility.yul\":13011:13015   */\n      0x60\n        /* \"#utility.yul\":13004:13009   */\n      dup4\n        /* \"#utility.yul\":13000:13016   */\n      add\n        /* \"#utility.yul\":12994:13017   */\n      mload\n        /* \"#utility.yul\":13030:13100   */\n      tag_396\n        /* \"#utility.yul\":13094:13098   */\n      0x60\n        /* \"#utility.yul\":13089:13092   */\n      dup7\n        /* \"#utility.yul\":13085:13099   */\n      add\n        /* \"#utility.yul\":13071:13083   */\n      dup3\n        /* \"#utility.yul\":13030:13100   */\n      tag_222\n      jump\t// in\n    tag_396:\n        /* \"#utility.yul\":12937:13110   */\n      pop\n        /* \"#utility.yul\":13199:13203   */\n      0x80\n        /* \"#utility.yul\":13192:13197   */\n      dup4\n        /* \"#utility.yul\":13188:13204   */\n      add\n        /* \"#utility.yul\":13182:13205   */\n      mload\n        /* \"#utility.yul\":13218:13281   */\n      tag_397\n        /* \"#utility.yul\":13275:13279   */\n      0x80\n        /* \"#utility.yul\":13270:13273   */\n      dup7\n        /* \"#utility.yul\":13266:13280   */\n      add\n        /* \"#utility.yul\":13252:13264   */\n      dup3\n        /* \"#utility.yul\":13218:13281   */\n      tag_218\n      jump\t// in\n    tag_397:\n        /* \"#utility.yul\":13120:13291   */\n      pop\n        /* \"#utility.yul\":13385:13389   */\n      0xa0\n        /* \"#utility.yul\":13378:13383   */\n      dup4\n        /* \"#utility.yul\":13374:13390   */\n      add\n        /* \"#utility.yul\":13368:13391   */\n      mload\n        /* \"#utility.yul\":13404:13467   */\n      tag_398\n        /* \"#utility.yul\":13461:13465   */\n      0xa0\n        /* \"#utility.yul\":13456:13459   */\n      dup7\n        /* \"#utility.yul\":13452:13466   */\n      add\n        /* \"#utility.yul\":13438:13450   */\n      dup3\n        /* \"#utility.yul\":13404:13467   */\n      tag_225\n      jump\t// in\n    tag_398:\n        /* \"#utility.yul\":13301:13477   */\n      pop\n        /* \"#utility.yul\":13560:13564   */\n      0xc0\n        /* \"#utility.yul\":13553:13558   */\n      dup4\n        /* \"#utility.yul\":13549:13565   */\n      add\n        /* \"#utility.yul\":13543:13566   */\n      mload\n        /* \"#utility.yul\":13579:13642   */\n      tag_399\n        /* \"#utility.yul\":13636:13640   */\n      0xc0\n        /* \"#utility.yul\":13631:13634   */\n      dup7\n        /* \"#utility.yul\":13627:13641   */\n      add\n        /* \"#utility.yul\":13613:13625   */\n      dup3\n        /* \"#utility.yul\":13579:13642   */\n      tag_218\n      jump\t// in\n    tag_399:\n        /* \"#utility.yul\":13487:13652   */\n      pop\n        /* \"#utility.yul\":13669:13673   */\n      dup1\n        /* \"#utility.yul\":13662:13673   */\n      swap2\n      pop\n        /* \"#utility.yul\":12227:13679   */\n      pop\n        /* \"#utility.yul\":12113:13679   */\n      swap3\n      swap2\n      pop\n      pop\n      jump\t// out\n        /* \"#utility.yul\":13685:13941   */\n    tag_235:\n        /* \"#utility.yul\":13804:13814   */\n      0x00\n        /* \"#utility.yul\":13839:13935   */\n      tag_401\n        /* \"#utility.yul\":13931:13934   */\n      dup4\n        /* \"#utility.yul\":13923:13929   */\n      dup4\n        /* \"#utility.yul\":13839:13935   */\n      tag_234\n      jump\t// in\n    tag_401:\n        /* \"#utility.yul\":13825:13935   */\n      swap1\n      pop\n        /* \"#utility.yul\":13685:13941   */\n      swap3\n      swap2\n      pop\n      pop\n      jump\t// out\n        /* \"#utility.yul\":13947:14085   */\n    tag_236:\n        /* \"#utility.yul\":14042:14046   */\n      0x00\n        /* \"#utility.yul\":14074:14078   */\n      0x20\n        /* \"#utility.yul\":14069:14072   */\n      dup3\n        /* \"#utility.yul\":14065:14079   */\n      add\n        /* \"#utility.yul\":14057:14079   */\n      swap1\n      pop\n        /* \"#utility.yul\":13947:14085   */\n      swap2\n      swap1\n      pop\n      jump\t// out\n        /* \"#utility.yul\":14149:15260   */\n    tag_237:\n        /* \"#utility.yul\":14318:14321   */\n      0x00\n        /* \"#utility.yul\":14347:14426   */\n      tag_404\n        /* \"#utility.yul\":14420:14425   */\n      dup3\n        /* \"#utility.yul\":14347:14426   */\n      tag_231\n      jump\t// in\n    tag_404:\n        /* \"#utility.yul\":14442:14553   */\n      tag_405\n        /* \"#utility.yul\":14546:14552   */\n      dup2\n        /* \"#utility.yul\":14541:14544   */\n      dup6\n        /* \"#utility.yul\":14442:14553   */\n      tag_232\n      jump\t// in\n    tag_405:\n        /* \"#utility.yul\":14435:14553   */\n      swap4\n      pop\n        /* \"#utility.yul\":14579:14582   */\n      dup4\n        /* \"#utility.yul\":14624:14628   */\n      0x20\n        /* \"#utility.yul\":14616:14622   */\n      dup3\n        /* \"#utility.yul\":14612:14629   */\n      mul\n        /* \"#utility.yul\":14607:14610   */\n      dup6\n        /* \"#utility.yul\":14603:14630   */\n      add\n        /* \"#utility.yul\":14654:14735   */\n      tag_406\n        /* \"#utility.yul\":14729:14734   */\n      dup6\n        /* \"#utility.yul\":14654:14735   */\n      tag_233\n      jump\t// in\n    tag_406:\n        /* \"#utility.yul\":14758:14765   */\n      dup1\n        /* \"#utility.yul\":14789:14790   */\n      0x00\n        /* \"#utility.yul\":14774:15215   */\n    tag_407:\n        /* \"#utility.yul\":14799:14805   */\n      dup6\n        /* \"#utility.yul\":14796:14797   */\n      dup2\n        /* \"#utility.yul\":14793:14806   */\n      lt\n        /* \"#utility.yul\":14774:15215   */\n      iszero\n      tag_409\n      jumpi\n        /* \"#utility.yul\":14870:14879   */\n      dup5\n        /* \"#utility.yul\":14864:14868   */\n      dup5\n        /* \"#utility.yul\":14860:14880   */\n      sub\n        /* \"#utility.yul\":14855:14858   */\n      dup10\n        /* \"#utility.yul\":14848:14881   */\n      mstore\n        /* \"#utility.yul\":14921:14927   */\n      dup2\n        /* \"#utility.yul\":14915:14928   */\n      mload\n        /* \"#utility.yul\":14949:15063   */\n      tag_410\n        /* \"#utility.yul\":15058:15062   */\n      dup6\n        /* \"#utility.yul\":15043:15056   */\n      dup3\n        /* \"#utility.yul\":14949:15063   */\n      tag_235\n      jump\t// in\n    tag_410:\n        /* \"#utility.yul\":14941:15063   */\n      swap5\n      pop\n        /* \"#utility.yul\":15086:15171   */\n      tag_411\n        /* \"#utility.yul\":15164:15170   */\n      dup4\n        /* \"#utility.yul\":15086:15171   */\n      tag_236\n      jump\t// in\n    tag_411:\n        /* \"#utility.yul\":15076:15171   */\n      swap3\n      pop\n        /* \"#utility.yul\":15200:15204   */\n      0x20\n        /* \"#utility.yul\":15195:15198   */\n      dup11\n        /* \"#utility.yul\":15191:15205   */\n      add\n        /* \"#utility.yul\":15184:15205   */\n      swap10\n      pop\n        /* \"#utility.yul\":14834:15215   */\n      pop\n        /* \"#utility.yul\":14821:14822   */\n      0x01\n        /* \"#utility.yul\":14818:14819   */\n      dup2\n        /* \"#utility.yul\":14814:14823   */\n      add\n        /* \"#utility.yul\":14809:14823   */\n      swap1\n      pop\n        /* \"#utility.yul\":14774:15215   */\n      jump(tag_407)\n    tag_409:\n        /* \"#utility.yul\":14778:14792   */\n      pop\n        /* \"#utility.yul\":15231:15235   */\n      dup3\n        /* \"#utility.yul\":15224:15235   */\n      swap8\n      pop\n        /* \"#utility.yul\":15251:15254   */\n      dup8\n        /* \"#utility.yul\":15244:15254   */\n      swap6\n      pop\n        /* \"#utility.yul\":14323:15260   */\n      pop\n      pop\n      pop\n      pop\n      pop\n        /* \"#utility.yul\":14149:15260   */\n      swap3\n      swap2\n      pop\n      pop\n      jump\t// out\n        /* \"#utility.yul\":15266:15739   */\n    tag_48:\n        /* \"#utility.yul\":15459:15463   */\n      0x00\n        /* \"#utility.yul\":15497:15499   */\n      0x20\n        /* \"#utility.yul\":15486:15495   */\n      dup3\n        /* \"#utility.yul\":15482:15500   */\n      add\n        /* \"#utility.yul\":15474:15500   */\n      swap1\n      pop\n        /* \"#utility.yul\":15546:15555   */\n      dup2\n        /* \"#utility.yul\":15540:15544   */\n      dup2\n        /* \"#utility.yul\":15536:15556   */\n      sub\n        /* \"#utility.yul\":15532:15533   */\n      0x00\n        /* \"#utility.yul\":15521:15530   */\n      dup4\n        /* \"#utility.yul\":15517:15534   */\n      add\n        /* \"#utility.yul\":15510:15557   */\n      mstore\n        /* \"#utility.yul\":15574:15732   */\n      tag_413\n        /* \"#utility.yul\":15727:15731   */\n      dup2\n        /* \"#utility.yul\":15718:15724   */\n      dup5\n        /* \"#utility.yul\":15574:15732   */\n      tag_237\n      jump\t// in\n    tag_413:\n        /* \"#utility.yul\":15566:15732   */\n      swap1\n      pop\n        /* \"#utility.yul\":15266:15739   */\n      swap3\n      swap2\n      pop\n      pop\n      jump\t// out\n        /* \"#utility.yul\":15745:15914   */\n    tag_238:\n        /* \"#utility.yul\":15829:15840   */\n      0x00\n        /* \"#utility.yul\":15863:15869   */\n      dup3\n        /* \"#utility.yul\":15858:15861   */\n      dup3\n        /* \"#utility.yul\":15851:15870   */\n      mstore\n        /* \"#utility.yul\":15903:15907   */\n      0x20\n        /* \"#utility.yul\":15898:15901   */\n      dup3\n        /* \"#utility.yul\":15894:15908   */\n      add\n        /* \"#utility.yul\":15879:15908   */\n      swap1\n      pop\n        /* \"#utility.yul\":15745:15914   */\n      swap3\n      swap2\n      pop\n      pop\n      jump\t// out\n        /* \"#utility.yul\":15920:16096   */\n    tag_239:\n        /* \"#utility.yul\":16060:16088   */\n      0x566f74696e6720686173206e6f74207374617274656420796574000000000000\n        /* \"#utility.yul\":16056:16057   */\n      0x00\n        /* \"#utility.yul\":16048:16054   */\n      dup3\n        /* \"#utility.yul\":16044:16058   */\n      add\n        /* \"#utility.yul\":16037:16089   */\n      mstore\n        /* \"#utility.yul\":15920:16096   */\n      pop\n      jump\t// out\n        /* \"#utility.yul\":16102:16468   */\n    tag_240:\n        /* \"#utility.yul\":16244:16247   */\n      0x00\n        /* \"#utility.yul\":16265:16332   */\n      tag_417\n        /* \"#utility.yul\":16329:16331   */\n      0x1a\n        /* \"#utility.yul\":16324:16327   */\n      dup4\n        /* \"#utility.yul\":16265:16332   */\n      tag_238\n      jump\t// in\n    tag_417:\n        /* \"#utility.yul\":16258:16332   */\n      swap2\n      pop\n        /* \"#utility.yul\":16341:16434   */\n      tag_418\n        /* \"#utility.yul\":16430:16433   */\n      dup3\n        /* \"#utility.yul\":16341:16434   */\n      tag_239\n      jump\t// in\n    tag_418:\n        /* \"#utility.yul\":16459:16461   */\n      0x20\n        /* \"#utility.yul\":16454:16457   */\n      dup3\n        /* \"#utility.yul\":16450:16462   */\n      add\n        /* \"#utility.yul\":16443:16462   */\n      swap1\n      pop\n        /* \"#utility.yul\":16102:16468   */\n      swap2\n      swap1\n      pop\n      jump\t// out\n        /* \"#utility.yul\":16474:16893   */\n    tag_52:\n        /* \"#utility.yul\":16640:16644   */\n      0x00\n        /* \"#utility.yul\":16678:16680   */\n      0x20\n        /* \"#utility.yul\":16667:16676   */\n      dup3\n        /* \"#utility.yul\":16663:16681   */\n      add\n        /* \"#utility.yul\":16655:16681   */\n      swap1\n      pop\n        /* \"#utility.yul\":16727:16736   */\n      dup2\n        /* \"#utility.yul\":16721:16725   */\n      dup2\n        /* \"#utility.yul\":16717:16737   */\n      sub\n        /* \"#utility.yul\":16713:16714   */\n      0x00\n        /* \"#utility.yul\":16702:16711   */\n      dup4\n        /* \"#utility.yul\":16698:16715   */\n      add\n        /* \"#utility.yul\":16691:16738   */\n      mstore\n        /* \"#utility.yul\":16755:16886   */\n      tag_420\n        /* \"#utility.yul\":16881:16885   */\n      dup2\n        /* \"#utility.yul\":16755:16886   */\n      tag_240\n      jump\t// in\n    tag_420:\n        /* \"#utility.yul\":16747:16886   */\n      swap1\n      pop\n        /* \"#utility.yul\":16474:16893   */\n      swap2\n      swap1\n      pop\n      jump\t// out\n        /* \"#utility.yul\":16899:17071   */\n    tag_241:\n        /* \"#utility.yul\":17039:17063   */\n      0x596f75206861766520616c726561647920766f74656400000000000000000000\n        /* \"#utility.yul\":17035:17036   */\n      0x00\n        /* \"#utility.yul\":17027:17033   */\n      dup3\n        /* \"#utility.yul\":17023:17037   */\n      add\n        /* \"#utility.yul\":17016:17064   */\n      mstore\n        /* \"#utility.yul\":16899:17071   */\n      pop\n      jump\t// out\n        /* \"#utility.yul\":17077:17443   */\n    tag_242:\n        /* \"#utility.yul\":17219:17222   */\n      0x00\n        /* \"#utility.yul\":17240:17307   */\n      tag_423\n        /* \"#utility.yul\":17304:17306   */\n      0x16\n        /* \"#utility.yul\":17299:17302   */\n      dup4\n        /* \"#utility.yul\":17240:17307   */\n      tag_238\n      jump\t// in\n    tag_423:\n        /* \"#utility.yul\":17233:17307   */\n      swap2\n      pop\n        /* \"#utility.yul\":17316:17409   */\n      tag_424\n        /* \"#utility.yul\":17405:17408   */\n      dup3\n        /* \"#utility.yul\":17316:17409   */\n      tag_241\n      jump\t// in\n    tag_424:\n        /* \"#utility.yul\":17434:17436   */\n      0x20\n        /* \"#utility.yul\":17429:17432   */\n      dup3\n        /* \"#utility.yul\":17425:17437   */\n      add\n        /* \"#utility.yul\":17418:17437   */\n      swap1\n      pop\n        /* \"#utility.yul\":17077:17443   */\n      swap2\n      swap1\n      pop\n      jump\t// out\n        /* \"#utility.yul\":17449:17868   */\n    tag_55:\n        /* \"#utility.yul\":17615:17619   */\n      0x00\n        /* \"#utility.yul\":17653:17655   */\n      0x20\n        /* \"#utility.yul\":17642:17651   */\n      dup3\n        /* \"#utility.yul\":17638:17656   */\n      add\n        /* \"#utility.yul\":17630:17656   */\n      swap1\n      pop\n        /* \"#utility.yul\":17702:17711   */\n      dup2\n        /* \"#utility.yul\":17696:17700   */\n      dup2\n        /* \"#utility.yul\":17692:17712   */\n      sub\n        /* \"#utility.yul\":17688:17689   */\n      0x00\n        /* \"#utility.yul\":17677:17686   */\n      dup4\n        /* \"#utility.yul\":17673:17690   */\n      add\n        /* \"#utility.yul\":17666:17713   */\n      mstore\n        /* \"#utility.yul\":17730:17861   */\n      tag_426\n        /* \"#utility.yul\":17856:17860   */\n      dup2\n        /* \"#utility.yul\":17730:17861   */\n      tag_242\n      jump\t// in\n    tag_426:\n        /* \"#utility.yul\":17722:17861   */\n      swap1\n      pop\n        /* \"#utility.yul\":17449:17868   */\n      swap2\n      swap1\n      pop\n      jump\t// out\n        /* \"#utility.yul\":17874:18046   */\n    tag_243:\n        /* \"#utility.yul\":18014:18038   */\n      0x596f7520617265206e6f7420617574686f72697a656400000000000000000000\n        /* \"#utility.yul\":18010:18011   */\n      0x00\n        /* \"#utility.yul\":18002:18008   */\n      dup3\n        /* \"#utility.yul\":17998:18012   */\n      add\n        /* \"#utility.yul\":17991:18039   */\n      mstore\n        /* \"#utility.yul\":17874:18046   */\n      pop\n      jump\t// out\n        /* \"#utility.yul\":18052:18418   */\n    tag_244:\n        /* \"#utility.yul\":18194:18197   */\n      0x00\n        /* \"#utility.yul\":18215:18282   */\n      tag_429\n        /* \"#utility.yul\":18279:18281   */\n      0x16\n        /* \"#utility.yul\":18274:18277   */\n      dup4\n        /* \"#utility.yul\":18215:18282   */\n      tag_238\n      jump\t// in\n    tag_429:\n        /* \"#utility.yul\":18208:18282   */\n      swap2\n      pop\n        /* \"#utility.yul\":18291:18384   */\n      tag_430\n        /* \"#utility.yul\":18380:18383   */\n      dup3\n        /* \"#utility.yul\":18291:18384   */\n      tag_243\n      jump\t// in\n    tag_430:\n        /* \"#utility.yul\":18409:18411   */\n      0x20\n        /* \"#utility.yul\":18404:18407   */\n      dup3\n        /* \"#utility.yul\":18400:18412   */\n      add\n        /* \"#utility.yul\":18393:18412   */\n      swap1\n      pop\n        /* \"#utility.yul\":18052:18418   */\n      swap2\n      swap1\n      pop\n      jump\t// out\n        /* \"#utility.yul\":18424:18843   */\n    tag_58:\n        /* \"#utility.yul\":18590:18594   */\n      0x00\n        /* \"#utility.yul\":18628:18630   */\n      0x20\n        /* \"#utility.yul\":18617:18626   */\n      dup3\n        /* \"#utility.yul\":18613:18631   */\n      add\n        /* \"#utility.yul\":18605:18631   */\n      swap1\n      pop\n        /* \"#utility.yul\":18677:18686   */\n      dup2\n        /* \"#utility.yul\":18671:18675   */\n      dup2\n        /* \"#utility.yul\":18667:18687   */\n      sub\n        /* \"#utility.yul\":18663:18664   */\n      0x00\n        /* \"#utility.yul\":18652:18661   */\n      dup4\n        /* \"#utility.yul\":18648:18665   */\n      add\n        /* \"#utility.yul\":18641:18688   */\n      mstore\n        /* \"#utility.yul\":18705:18836   */\n      tag_432\n        /* \"#utility.yul\":18831:18835   */\n      dup2\n        /* \"#utility.yul\":18705:18836   */\n      tag_244\n      jump\t// in\n    tag_432:\n        /* \"#utility.yul\":18697:18836   */\n      swap1\n      pop\n        /* \"#utility.yul\":18424:18843   */\n      swap2\n      swap1\n      pop\n      jump\t// out\n        /* \"#utility.yul\":18849:19026   */\n    tag_245:\n        /* \"#utility.yul\":18989:19018   */\n      0x43616e646964617465204964206973206e6f7420636f72726563740000000000\n        /* \"#utility.yul\":18985:18986   */\n      0x00\n        /* \"#utility.yul\":18977:18983   */\n      dup3\n        /* \"#utility.yul\":18973:18987   */\n      add\n        /* \"#utility.yul\":18966:19019   */\n      mstore\n        /* \"#utility.yul\":18849:19026   */\n      pop\n      jump\t// out\n        /* \"#utility.yul\":19032:19398   */\n    tag_246:\n        /* \"#utility.yul\":19174:19177   */\n      0x00\n        /* \"#utility.yul\":19195:19262   */\n      tag_435\n        /* \"#utility.yul\":19259:19261   */\n      0x1b\n        /* \"#utility.yul\":19254:19257   */\n      dup4\n        /* \"#utility.yul\":19195:19262   */\n      tag_238\n      jump\t// in\n    tag_435:\n        /* \"#utility.yul\":19188:19262   */\n      swap2\n      pop\n        /* \"#utility.yul\":19271:19364   */\n      tag_436\n        /* \"#utility.yul\":19360:19363   */\n      dup3\n        /* \"#utility.yul\":19271:19364   */\n      tag_245\n      jump\t// in\n    tag_436:\n        /* \"#utility.yul\":19389:19391   */\n      0x20\n        /* \"#utility.yul\":19384:19387   */\n      dup3\n        /* \"#utility.yul\":19380:19392   */\n      add\n        /* \"#utility.yul\":19373:19392   */\n      swap1\n      pop\n        /* \"#utility.yul\":19032:19398   */\n      swap2\n      swap1\n      pop\n      jump\t// out\n        /* \"#utility.yul\":19404:19823   */\n    tag_62:\n        /* \"#utility.yul\":19570:19574   */\n      0x00\n        /* \"#utility.yul\":19608:19610   */\n      0x20\n        /* \"#utility.yul\":19597:19606   */\n      dup3\n        /* \"#utility.yul\":19593:19611   */\n      add\n        /* \"#utility.yul\":19585:19611   */\n      swap1\n      pop\n        /* \"#utility.yul\":19657:19666   */\n      dup2\n        /* \"#utility.yul\":19651:19655   */\n      dup2\n        /* \"#utility.yul\":19647:19667   */\n      sub\n        /* \"#utility.yul\":19643:19644   */\n      0x00\n        /* \"#utility.yul\":19632:19641   */\n      dup4\n        /* \"#utility.yul\":19628:19645   */\n      add\n        /* \"#utility.yul\":19621:19668   */\n      mstore\n        /* \"#utility.yul\":19685:19816   */\n      tag_438\n        /* \"#utility.yul\":19811:19815   */\n      dup2\n        /* \"#utility.yul\":19685:19816   */\n      tag_246\n      jump\t// in\n    tag_438:\n        /* \"#utility.yul\":19677:19816   */\n      swap1\n      pop\n        /* \"#utility.yul\":19404:19823   */\n      swap2\n      swap1\n      pop\n      jump\t// out\n        /* \"#utility.yul\":19829:20009   */\n    tag_247:\n        /* \"#utility.yul\":19877:19954   */\n      0x4e487b7100000000000000000000000000000000000000000000000000000000\n        /* \"#utility.yul\":19874:19875   */\n      0x00\n        /* \"#utility.yul\":19867:19955   */\n      mstore\n        /* \"#utility.yul\":19974:19978   */\n      0x11\n        /* \"#utility.yul\":19971:19972   */\n      0x04\n        /* \"#utility.yul\":19964:19979   */\n      mstore\n        /* \"#utility.yul\":19998:20002   */\n      0x24\n        /* \"#utility.yul\":19995:19996   */\n      0x00\n        /* \"#utility.yul\":19988:20003   */\n      revert\n        /* \"#utility.yul\":20015:20248   */\n    tag_64:\n        /* \"#utility.yul\":20054:20057   */\n      0x00\n        /* \"#utility.yul\":20077:20101   */\n      tag_441\n        /* \"#utility.yul\":20095:20100   */\n      dup3\n        /* \"#utility.yul\":20077:20101   */\n      tag_197\n      jump\t// in\n    tag_441:\n        /* \"#utility.yul\":20068:20101   */\n      swap2\n      pop\n        /* \"#utility.yul\":20123:20189   */\n      0xffffffffffffffffffffffffffffffffffffffffffffffffffffffffffffffff\n        /* \"#utility.yul\":20116:20121   */\n      dup3\n        /* \"#utility.yul\":20113:20190   */\n      sub\n        /* \"#utility.yul\":20110:20213   */\n      tag_442\n      jumpi\n        /* \"#utility.yul\":20193:20211   */\n      tag_443\n      tag_247\n      jump\t// in\n    tag_443:\n        /* \"#utility.yul\":20110:20213   */\n    tag_442:\n        /* \"#utility.yul\":20240:20241   */\n      0x01\n        /* \"#utility.yul\":20233:20238   */\n      dup3\n        /* \"#utility.yul\":20229:20242   */\n      add\n        /* \"#utility.yul\":20222:20242   */\n      swap1\n      pop\n        /* \"#utility.yul\":20015:20248   */\n      swap2\n      swap1\n      pop\n      jump\t// out\n        /* \"#utility.yul\":20254:20423   */\n    tag_248:\n        /* \"#utility.yul\":20394:20415   */\n      0x556e617574686f72697a65642041636365737300000000000000000000000000\n        /* \"#utility.yul\":20390:20391   */\n      0x00\n        /* \"#utility.yul\":20382:20388   */\n      dup3\n        /* \"#utility.yul\":20378:20392   */\n      add\n        /* \"#utility.yul\":20371:20416   */\n      mstore\n        /* \"#utility.yul\":20254:20423   */\n      pop\n      jump\t// out\n        /* \"#utility.yul\":20429:20795   */\n    tag_249:\n        /* \"#utility.yul\":20571:20574   */\n      0x00\n        /* \"#utility.yul\":20592:20659   */\n      tag_446\n        /* \"#utility.yul\":20656:20658   */\n      0x13\n        /* \"#utility.yul\":20651:20654   */\n      dup4\n        /* \"#utility.yul\":20592:20659   */\n      tag_238\n      jump\t// in\n    tag_446:\n        /* \"#utility.yul\":20585:20659   */\n      swap2\n      pop\n        /* \"#utility.yul\":20668:20761   */\n      tag_447\n        /* \"#utility.yul\":20757:20760   */\n      dup3\n        /* \"#utility.yul\":20668:20761   */\n      tag_248\n      jump\t// in\n    tag_447:\n        /* \"#utility.yul\":20786:20788   */\n      0x20\n        /* \"#utility.yul\":20781:20784   */\n      dup3\n        /* \"#utility.yul\":20777:20789   */\n      add\n        /* \"#utility.yul\":20770:20789   */\n      swap1\n      pop\n        /* \"#utility.yul\":20429:20795   */\n      swap2\n      swap1\n      pop\n      jump\t// out\n        /* \"#utility.yul\":20801:21220   */\n    tag_74:\n        /* \"#utility.yul\":20967:20971   */\n      0x00\n        /* \"#utility.yul\":21005:21007   */\n      0x20\n        /* \"#utility.yul\":20994:21003   */\n      dup3\n        /* \"#utility.yul\":20990:21008   */\n      add\n        /* \"#utility.yul\":20982:21008   */\n      swap1\n      pop\n        /* \"#utility.yul\":21054:21063   */\n      dup2\n        /* \"#utility.yul\":21048:21052   */\n      dup2\n        /* \"#utility.yul\":21044:21064   */\n      sub\n        /* \"#utility.yul\":21040:21041   */\n      0x00\n        /* \"#utility.yul\":21029:21038   */\n      dup4\n        /* \"#utility.yul\":21025:21042   */\n      add\n        /* \"#utility.yul\":21018:21065   */\n      mstore\n        /* \"#utility.yul\":21082:21213   */\n      tag_449\n        /* \"#utility.yul\":21208:21212   */\n      dup2\n        /* \"#utility.yul\":21082:21213   */\n      tag_249\n      jump\t// in\n    tag_449:\n        /* \"#utility.yul\":21074:21213   */\n      swap1\n      pop\n        /* \"#utility.yul\":20801:21220   */\n      swap2\n      swap1\n      pop\n      jump\t// out\n        /* \"#utility.yul\":21226:21402   */\n    tag_250:\n        /* \"#utility.yul\":21366:21394   */\n      0x596f752061726520616c72656164792072656769737465726564000000000000\n        /* \"#utility.yul\":21362:21363   */\n      0x00\n        /* \"#utility.yul\":21354:21360   */\n      dup3\n        /* \"#utility.yul\":21350:21364   */\n      add\n        /* \"#utility.yul\":21343:21395   */\n      mstore\n        /* \"#utility.yul\":21226:21402   */\n      pop\n      jump\t// out\n        /* \"#utility.yul\":21408:21774   */\n    tag_251:\n        /* \"#utility.yul\":21550:21553   */\n      0x00\n        /* \"#utility.yul\":21571:21638   */\n      tag_452\n        /* \"#utility.yul\":21635:21637   */\n      0x1a\n        /* \"#utility.yul\":21630:21633   */\n      dup4\n        /* \"#utility.yul\":21571:21638   */\n      tag_238\n      jump\t// in\n    tag_452:\n        /* \"#utility.yul\":21564:21638   */\n      swap2\n      pop\n        /* \"#utility.yul\":21647:21740   */\n      tag_453\n        /* \"#utility.yul\":21736:21739   */\n      dup3\n        /* \"#utility.yul\":21647:21740   */\n      tag_250\n      jump\t// in\n    tag_453:\n        /* \"#utility.yul\":21765:21767   */\n      0x20\n        /* \"#utility.yul\":21760:21763   */\n      dup3\n        /* \"#utility.yul\":21756:21768   */\n      add\n        /* \"#utility.yul\":21749:21768   */\n      swap1\n      pop\n        /* \"#utility.yul\":21408:21774   */\n      swap2\n      swap1\n      pop\n      jump\t// out\n        /* \"#utility.yul\":21780:22199   */\n    tag_83:\n        /* \"#utility.yul\":21946:21950   */\n      0x00\n        /* \"#utility.yul\":21984:21986   */\n      0x20\n        /* \"#utility.yul\":21973:21982   */\n      dup3\n        /* \"#utility.yul\":21969:21987   */\n      add\n        /* \"#utility.yul\":21961:21987   */\n      swap1\n      pop\n        /* \"#utility.yul\":22033:22042   */\n      dup2\n        /* \"#utility.yul\":22027:22031   */\n      dup2\n        /* \"#utility.yul\":22023:22043   */\n      sub\n        /* \"#utility.yul\":22019:22020   */\n      0x00\n        /* \"#utility.yul\":22008:22017   */\n      dup4\n        /* \"#utility.yul\":22004:22021   */\n      add\n        /* \"#utility.yul\":21997:22044   */\n      mstore\n        /* \"#utility.yul\":22061:22192   */\n      tag_455\n        /* \"#utility.yul\":22187:22191   */\n      dup2\n        /* \"#utility.yul\":22061:22192   */\n      tag_251\n      jump\t// in\n    tag_455:\n        /* \"#utility.yul\":22053:22192   */\n      swap1\n      pop\n        /* \"#utility.yul\":21780:22199   */\n      swap2\n      swap1\n      pop\n      jump\t// out\n        /* \"#utility.yul\":22205:22385   */\n    tag_130:\n        /* \"#utility.yul\":22253:22330   */\n      0x4e487b7100000000000000000000000000000000000000000000000000000000\n        /* \"#utility.yul\":22250:22251   */\n      0x00\n        /* \"#utility.yul\":22243:22331   */\n      mstore\n        /* \"#utility.yul\":22350:22354   */\n      0x41\n        /* \"#utility.yul\":22347:22348   */\n      0x04\n        /* \"#utility.yul\":22340:22355   */\n      mstore\n        /* \"#utility.yul\":22374:22378   */\n      0x24\n        /* \"#utility.yul\":22371:22372   */\n      0x00\n        /* \"#utility.yul\":22364:22379   */\n      revert\n        /* \"#utility.yul\":22391:22571   */\n    tag_252:\n        /* \"#utility.yul\":22439:22516   */\n      0x4e487b7100000000000000000000000000000000000000000000000000000000\n        /* \"#utility.yul\":22436:22437   */\n      0x00\n        /* \"#utility.yul\":22429:22517   */\n      mstore\n        /* \"#utility.yul\":22536:22540   */\n      0x22\n        /* \"#utility.yul\":22533:22534   */\n      0x04\n        /* \"#utility.yul\":22526:22541   */\n      mstore\n        /* \"#utility.yul\":22560:22564   */\n      0x24\n        /* \"#utility.yul\":22557:22558   */\n      0x00\n        /* \"#utility.yul\":22550:22565   */\n      revert\n        /* \"#utility.yul\":22577:22897   */\n    tag_140:\n        /* \"#utility.yul\":22621:22627   */\n      0x00\n        /* \"#utility.yul\":22658:22659   */\n      0x02\n        /* \"#utility.yul\":22652:22656   */\n      dup3\n        /* \"#utility.yul\":22648:22660   */\n      div\n        /* \"#utility.yul\":22638:22660   */\n      swap1\n      pop\n        /* \"#utility.yul\":22705:22706   */\n      0x01\n        /* \"#utility.yul\":22699:22703   */\n      dup3\n        /* \"#utility.yul\":22695:22707   */\n      and\n        /* \"#utility.yul\":22726:22744   */\n      dup1\n        /* \"#utility.yul\":22716:22797   */\n      tag_459\n      jumpi\n        /* \"#utility.yul\":22782:22786   */\n      0x7f\n        /* \"#utility.yul\":22774:22780   */\n      dup3\n        /* \"#utility.yul\":22770:22787   */\n      and\n        /* \"#utility.yul\":22760:22787   */\n      swap2\n      pop\n        /* \"#utility.yul\":22716:22797   */\n    tag_459:\n        /* \"#utility.yul\":22844:22846   */\n      0x20\n        /* \"#utility.yul\":22836:22842   */\n      dup3\n        /* \"#utility.yul\":22833:22847   */\n      lt\n        /* \"#utility.yul\":22813:22831   */\n      dup2\n        /* \"#utility.yul\":22810:22848   */\n      sub\n        /* \"#utility.yul\":22807:22891   */\n      tag_460\n      jumpi\n        /* \"#utility.yul\":22863:22881   */\n      tag_461\n      tag_252\n      jump\t// in\n    tag_461:\n        /* \"#utility.yul\":22807:22891   */\n    tag_460:\n        /* \"#utility.yul\":22628:22897   */\n      pop\n        /* \"#utility.yul\":22577:22897   */\n      swap2\n      swap1\n      pop\n      jump\t// out\n        /* \"#utility.yul\":22903:23044   */\n    tag_253:\n        /* \"#utility.yul\":22952:22956   */\n      0x00\n        /* \"#utility.yul\":22975:22978   */\n      dup2\n        /* \"#utility.yul\":22967:22978   */\n      swap1\n      pop\n        /* \"#utility.yul\":22998:23001   */\n      dup2\n        /* \"#utility.yul\":22995:22996   */\n      0x00\n        /* \"#utility.yul\":22988:23002   */\n      mstore\n        /* \"#utility.yul\":23032:23036   */\n      0x20\n        /* \"#utility.yul\":23029:23030   */\n      0x00\n        /* \"#utility.yul\":23019:23037   */\n      keccak256\n        /* \"#utility.yul\":23011:23037   */\n      swap1\n      pop\n        /* \"#utility.yul\":22903:23044   */\n      swap2\n      swap1\n      pop\n      jump\t// out\n        /* \"#utility.yul\":23050:23143   */\n    tag_254:\n        /* \"#utility.yul\":23087:23093   */\n      0x00\n        /* \"#utility.yul\":23134:23136   */\n      0x20\n        /* \"#utility.yul\":23129:23131   */\n      0x1f\n        /* \"#utility.yul\":23122:23127   */\n      dup4\n        /* \"#utility.yul\":23118:23132   */\n      add\n        /* \"#utility.yul\":23114:23137   */\n      div\n        /* \"#utility.yul\":23104:23137   */\n      swap1\n      pop\n        /* \"#utility.yul\":23050:23143   */\n      swap2\n      swap1\n      pop\n      jump\t// out\n        /* \"#utility.yul\":23149:23256   */\n    tag_255:\n        /* \"#utility.yul\":23193:23201   */\n      0x00\n        /* \"#utility.yul\":23243:23248   */\n      dup3\n        /* \"#utility.yul\":23237:23241   */\n      dup3\n        /* \"#utility.yul\":23233:23249   */\n      shl\n        /* \"#utility.yul\":23212:23249   */\n      swap1\n      pop\n        /* \"#utility.yul\":23149:23256   */\n      swap3\n      swap2\n      pop\n      pop\n      jump\t// out\n        /* \"#utility.yul\":23262:23655   */\n    tag_256:\n        /* \"#utility.yul\":23331:23337   */\n      0x00\n        /* \"#utility.yul\":23381:23382   */\n      0x08\n        /* \"#utility.yul\":23369:23379   */\n      dup4\n        /* \"#utility.yul\":23365:23383   */\n      mul\n        /* \"#utility.yul\":23404:23501   */\n      tag_466\n        /* \"#utility.yul\":23434:23500   */\n      0xffffffffffffffffffffffffffffffffffffffffffffffffffffffffffffffff\n        /* \"#utility.yul\":23423:23432   */\n      dup3\n        /* \"#utility.yul\":23404:23501   */\n      tag_255\n      jump\t// in\n    tag_466:\n        /* \"#utility.yul\":23522:23561   */\n      tag_467\n        /* \"#utility.yul\":23552:23560   */\n      dup7\n        /* \"#utility.yul\":23541:23550   */\n      dup4\n        /* \"#utility.yul\":23522:23561   */\n      tag_255\n      jump\t// in\n    tag_467:\n        /* \"#utility.yul\":23510:23561   */\n      swap6\n      pop\n        /* \"#utility.yul\":23594:23598   */\n      dup1\n        /* \"#utility.yul\":23590:23599   */\n      not\n        /* \"#utility.yul\":23583:23588   */\n      dup5\n        /* \"#utility.yul\":23579:23600   */\n      and\n        /* \"#utility.yul\":23570:23600   */\n      swap4\n      pop\n        /* \"#utility.yul\":23643:23647   */\n      dup1\n        /* \"#utility.yul\":23633:23641   */\n      dup7\n        /* \"#utility.yul\":23629:23648   */\n      and\n        /* \"#utility.yul\":23622:23627   */\n      dup5\n        /* \"#utility.yul\":23619:23649   */\n      or\n        /* \"#utility.yul\":23609:23649   */\n      swap3\n      pop\n        /* \"#utility.yul\":23338:23655   */\n      pop\n      pop\n        /* \"#utility.yul\":23262:23655   */\n      swap4\n      swap3\n      pop\n      pop\n      pop\n      jump\t// out\n        /* \"#utility.yul\":23661:23721   */\n    tag_257:\n        /* \"#utility.yul\":23689:23692   */\n      0x00\n        /* \"#utility.yul\":23710:23715   */\n      dup2\n        /* \"#utility.yul\":23703:23715   */\n      swap1\n      pop\n        /* \"#utility.yul\":23661:23721   */\n      swap2\n      swap1\n      pop\n      jump\t// out\n        /* \"#utility.yul\":23727:23869   */\n    tag_258:\n        /* \"#utility.yul\":23777:23786   */\n      0x00\n        /* \"#utility.yul\":23810:23863   */\n      tag_470\n        /* \"#utility.yul\":23828:23862   */\n      tag_471\n        /* \"#utility.yul\":23837:23861   */\n      tag_472\n        /* \"#utility.yul\":23855:23860   */\n      dup5\n        /* \"#utility.yul\":23837:23861   */\n      tag_197\n      jump\t// in\n    tag_472:\n        /* \"#utility.yul\":23828:23862   */\n      tag_257\n      jump\t// in\n    tag_471:\n        /* \"#utility.yul\":23810:23863   */\n      tag_197\n      jump\t// in\n    tag_470:\n        /* \"#utility.yul\":23797:23863   */\n      swap1\n      pop\n        /* \"#utility.yul\":23727:23869   */\n      swap2\n      swap1\n      pop\n      jump\t// out\n        /* \"#utility.yul\":23875:23950   */\n    tag_259:\n        /* \"#utility.yul\":23918:23921   */\n      0x00\n        /* \"#utility.yul\":23939:23944   */\n      dup2\n        /* \"#utility.yul\":23932:23944   */\n      swap1\n      pop\n        /* \"#utility.yul\":23875:23950   */\n      swap2\n      swap1\n      pop\n      jump\t// out\n        /* \"#utility.yul\":23956:24225   */\n    tag_260:\n        /* \"#utility.yul\":24066:24105   */\n      tag_475\n        /* \"#utility.yul\":24097:24104   */\n      dup4\n        /* \"#utility.yul\":24066:24105   */\n      tag_258\n      jump\t// in\n    tag_475:\n        /* \"#utility.yul\":24127:24218   */\n      tag_476\n        /* \"#utility.yul\":24176:24217   */\n      tag_477\n        /* \"#utility.yul\":24200:24216   */\n      dup3\n        /* \"#utility.yul\":24176:24217   */\n      tag_259\n      jump\t// in\n    tag_477:\n        /* \"#utility.yul\":24168:24174   */\n      dup5\n        /* \"#utility.yul\":24161:24165   */\n      dup5\n        /* \"#utility.yul\":24155:24166   */\n      sload\n        /* \"#utility.yul\":24127:24218   */\n      tag_256\n      jump\t// in\n    tag_476:\n        /* \"#utility.yul\":24121:24125   */\n      dup3\n        /* \"#utility.yul\":24114:24219   */\n      sstore\n        /* \"#utility.yul\":24032:24225   */\n      pop\n        /* \"#utility.yul\":23956:24225   */\n      pop\n      pop\n      pop\n      jump\t// out\n        /* \"#utility.yul\":24231:24304   */\n    tag_261:\n        /* \"#utility.yul\":24276:24279   */\n      0x00\n        /* \"#utility.yul\":24231:24304   */\n      swap1\n      jump\t// out\n        /* \"#utility.yul\":24310:24499   */\n    tag_262:\n        /* \"#utility.yul\":24387:24419   */\n      tag_480\n      tag_261\n      jump\t// in\n    tag_480:\n        /* \"#utility.yul\":24428:24493   */\n      tag_481\n        /* \"#utility.yul\":24486:24492   */\n      dup2\n        /* \"#utility.yul\":24478:24484   */\n      dup5\n        /* \"#utility.yul\":24472:24476   */\n      dup5\n        /* \"#utility.yul\":24428:24493   */\n      tag_260\n      jump\t// in\n    tag_481:\n        /* \"#utility.yul\":24363:24499   */\n      pop\n        /* \"#utility.yul\":24310:24499   */\n      pop\n      pop\n      jump\t// out\n        /* \"#utility.yul\":24505:24691   */\n    tag_263:\n        /* \"#utility.yul\":24565:24685   */\n    tag_483:\n        /* \"#utility.yul\":24582:24585   */\n      dup2\n        /* \"#utility.yul\":24575:24580   */\n      dup2\n        /* \"#utility.yul\":24572:24586   */\n      lt\n        /* \"#utility.yul\":24565:24685   */\n      iszero\n      tag_485\n      jumpi\n        /* \"#utility.yul\":24636:24675   */\n      tag_486\n        /* \"#utility.yul\":24673:24674   */\n      0x00\n        /* \"#utility.yul\":24666:24671   */\n      dup3\n        /* \"#utility.yul\":24636:24675   */\n      tag_262\n      jump\t// in\n    tag_486:\n        /* \"#utility.yul\":24609:24610   */\n      0x01\n        /* \"#utility.yul\":24602:24607   */\n      dup2\n        /* \"#utility.yul\":24598:24611   */\n      add\n        /* \"#utility.yul\":24589:24611   */\n      swap1\n      pop\n        /* \"#utility.yul\":24565:24685   */\n      jump(tag_483)\n    tag_485:\n        /* \"#utility.yul\":24505:24691   */\n      pop\n      pop\n      jump\t// out\n        /* \"#utility.yul\":24697:25240   */\n    tag_264:\n        /* \"#utility.yul\":24798:24800   */\n      0x1f\n        /* \"#utility.yul\":24793:24796   */\n      dup3\n        /* \"#utility.yul\":24790:24801   */\n      gt\n        /* \"#utility.yul\":24787:25233   */\n      iszero\n      tag_488\n      jumpi\n        /* \"#utility.yul\":24832:24870   */\n      tag_489\n        /* \"#utility.yul\":24864:24869   */\n      dup2\n        /* \"#utility.yul\":24832:24870   */\n      tag_253\n      jump\t// in\n    tag_489:\n        /* \"#utility.yul\":24916:24945   */\n      tag_490\n        /* \"#utility.yul\":24934:24944   */\n      dup5\n        /* \"#utility.yul\":24916:24945   */\n      tag_254\n      jump\t// in\n    tag_490:\n        /* \"#utility.yul\":24906:24914   */\n      dup2\n        /* \"#utility.yul\":24902:24946   */\n      add\n        /* \"#utility.yul\":25099:25101   */\n      0x20\n        /* \"#utility.yul\":25087:25097   */\n      dup6\n        /* \"#utility.yul\":25084:25102   */\n      lt\n        /* \"#utility.yul\":25081:25130   */\n      iszero\n      tag_491\n      jumpi\n        /* \"#utility.yul\":25120:25128   */\n      dup2\n        /* \"#utility.yul\":25105:25128   */\n      swap1\n      pop\n        /* \"#utility.yul\":25081:25130   */\n    tag_491:\n        /* \"#utility.yul\":25143:25223   */\n      tag_492\n        /* \"#utility.yul\":25199:25221   */\n      tag_493\n        /* \"#utility.yul\":25217:25220   */\n      dup6\n        /* \"#utility.yul\":25199:25221   */\n      tag_254\n      jump\t// in\n    tag_493:\n        /* \"#utility.yul\":25189:25197   */\n      dup4\n        /* \"#utility.yul\":25185:25222   */\n      add\n        /* \"#utility.yul\":25172:25183   */\n      dup3\n        /* \"#utility.yul\":25143:25223   */\n      tag_263\n      jump\t// in\n    tag_492:\n        /* \"#utility.yul\":24802:25233   */\n      pop\n      pop\n        /* \"#utility.yul\":24787:25233   */\n    tag_488:\n        /* \"#utility.yul\":24697:25240   */\n      pop\n      pop\n      pop\n      jump\t// out\n        /* \"#utility.yul\":25246:25363   */\n    tag_265:\n        /* \"#utility.yul\":25300:25308   */\n      0x00\n        /* \"#utility.yul\":25350:25355   */\n      dup3\n        /* \"#utility.yul\":25344:25348   */\n      dup3\n        /* \"#utility.yul\":25340:25356   */\n      shr\n        /* \"#utility.yul\":25319:25356   */\n      swap1\n      pop\n        /* \"#utility.yul\":25246:25363   */\n      swap3\n      swap2\n      pop\n      pop\n      jump\t// out\n        /* \"#utility.yul\":25369:25538   */\n    tag_266:\n        /* \"#utility.yul\":25413:25419   */\n      0x00\n        /* \"#utility.yul\":25446:25497   */\n      tag_496\n        /* \"#utility.yul\":25494:25495   */\n      0x00\n        /* \"#utility.yul\":25490:25496   */\n      not\n        /* \"#utility.yul\":25482:25487   */\n      dup5\n        /* \"#utility.yul\":25479:25480   */\n      0x08\n        /* \"#utility.yul\":25475:25488   */\n      mul\n        /* \"#utility.yul\":25446:25497   */\n      tag_265\n      jump\t// in\n    tag_496:\n        /* \"#utility.yul\":25442:25498   */\n      not\n        /* \"#utility.yul\":25527:25531   */\n      dup1\n        /* \"#utility.yul\":25521:25525   */\n      dup4\n        /* \"#utility.yul\":25517:25532   */\n      and\n        /* \"#utility.yul\":25507:25532   */\n      swap2\n      pop\n        /* \"#utility.yul\":25420:25538   */\n      pop\n        /* \"#utility.yul\":25369:25538   */\n      swap3\n      swap2\n      pop\n      pop\n      jump\t// out\n        /* \"#utility.yul\":25543:25838   */\n    tag_267:\n        /* \"#utility.yul\":25619:25623   */\n      0x00\n        /* \"#utility.yul\":25765:25794   */\n      tag_498\n        /* \"#utility.yul\":25790:25793   */\n      dup4\n        /* \"#utility.yul\":25784:25788   */\n      dup4\n        /* \"#utility.yul\":25765:25794   */\n      tag_266\n      jump\t// in\n    tag_498:\n        /* \"#utility.yul\":25757:25794   */\n      swap2\n      pop\n        /* \"#utility.yul\":25827:25830   */\n      dup3\n        /* \"#utility.yul\":25824:25825   */\n      0x02\n        /* \"#utility.yul\":25820:25831   */\n      mul\n        /* \"#utility.yul\":25814:25818   */\n      dup3\n        /* \"#utility.yul\":25811:25832   */\n      or\n        /* \"#utility.yul\":25803:25832   */\n      swap1\n      pop\n        /* \"#utility.yul\":25543:25838   */\n      swap3\n      swap2\n      pop\n      pop\n      jump\t// out\n        /* \"#utility.yul\":25843:27238   */\n    tag_88:\n        /* \"#utility.yul\":25960:25997   */\n      tag_500\n        /* \"#utility.yul\":25993:25996   */\n      dup3\n        /* \"#utility.yul\":25960:25997   */\n      tag_213\n      jump\t// in\n    tag_500:\n        /* \"#utility.yul\":26062:26080   */\n      0xffffffffffffffff\n        /* \"#utility.yul\":26054:26060   */\n      dup2\n        /* \"#utility.yul\":26051:26081   */\n      gt\n        /* \"#utility.yul\":26048:26104   */\n      iszero\n      tag_501\n      jumpi\n        /* \"#utility.yul\":26084:26102   */\n      tag_502\n      tag_130\n      jump\t// in\n    tag_502:\n        /* \"#utility.yul\":26048:26104   */\n    tag_501:\n        /* \"#utility.yul\":26128:26166   */\n      tag_503\n        /* \"#utility.yul\":26160:26164   */\n      dup3\n        /* \"#utility.yul\":26154:26165   */\n      sload\n        /* \"#utility.yul\":26128:26166   */\n      tag_140\n      jump\t// in\n    tag_503:\n        /* \"#utility.yul\":26213:26280   */\n      tag_504\n        /* \"#utility.yul\":26273:26279   */\n      dup3\n        /* \"#utility.yul\":26265:26271   */\n      dup3\n        /* \"#utility.yul\":26259:26263   */\n      dup6\n        /* \"#utility.yul\":26213:26280   */\n      tag_264\n      jump\t// in\n    tag_504:\n        /* \"#utility.yul\":26307:26308   */\n      0x00\n        /* \"#utility.yul\":26331:26335   */\n      0x20\n        /* \"#utility.yul\":26318:26335   */\n      swap1\n      pop\n        /* \"#utility.yul\":26363:26365   */\n      0x1f\n        /* \"#utility.yul\":26355:26361   */\n      dup4\n        /* \"#utility.yul\":26352:26366   */\n      gt\n        /* \"#utility.yul\":26380:26381   */\n      0x01\n        /* \"#utility.yul\":26375:26993   */\n      dup2\n      eq\n      tag_506\n      jumpi\n        /* \"#utility.yul\":27037:27038   */\n      0x00\n        /* \"#utility.yul\":27054:27060   */\n      dup5\n        /* \"#utility.yul\":27051:27128   */\n      iszero\n      tag_507\n      jumpi\n        /* \"#utility.yul\":27103:27112   */\n      dup3\n        /* \"#utility.yul\":27098:27101   */\n      dup8\n        /* \"#utility.yul\":27094:27113   */\n      add\n        /* \"#utility.yul\":27088:27114   */\n      mload\n        /* \"#utility.yul\":27079:27114   */\n      swap1\n      pop\n        /* \"#utility.yul\":27051:27128   */\n    tag_507:\n        /* \"#utility.yul\":27154:27221   */\n      tag_508\n        /* \"#utility.yul\":27214:27220   */\n      dup6\n        /* \"#utility.yul\":27207:27212   */\n      dup3\n        /* \"#utility.yul\":27154:27221   */\n      tag_267\n      jump\t// in\n    tag_508:\n        /* \"#utility.yul\":27148:27152   */\n      dup7\n        /* \"#utility.yul\":27141:27222   */\n      sstore\n        /* \"#utility.yul\":27010:27232   */\n      pop\n        /* \"#utility.yul\":26345:27232   */\n      jump(tag_505)\n        /* \"#utility.yul\":26375:26993   */\n    tag_506:\n        /* \"#utility.yul\":26427:26431   */\n      0x1f\n        /* \"#utility.yul\":26423:26432   */\n      not\n        /* \"#utility.yul\":26415:26421   */\n      dup5\n        /* \"#utility.yul\":26411:26433   */\n      and\n        /* \"#utility.yul\":26461:26498   */\n      tag_509\n        /* \"#utility.yul\":26493:26497   */\n      dup7\n        /* \"#utility.yul\":26461:26498   */\n      tag_253\n      jump\t// in\n    tag_509:\n        /* \"#utility.yul\":26520:26521   */\n      0x00\n        /* \"#utility.yul\":26534:26742   */\n    tag_510:\n        /* \"#utility.yul\":26548:26555   */\n      dup3\n        /* \"#utility.yul\":26545:26546   */\n      dup2\n        /* \"#utility.yul\":26542:26556   */\n      lt\n        /* \"#utility.yul\":26534:26742   */\n      iszero\n      tag_512\n      jumpi\n        /* \"#utility.yul\":26627:26636   */\n      dup5\n        /* \"#utility.yul\":26622:26625   */\n      dup10\n        /* \"#utility.yul\":26618:26637   */\n      add\n        /* \"#utility.yul\":26612:26638   */\n      mload\n        /* \"#utility.yul\":26604:26610   */\n      dup3\n        /* \"#utility.yul\":26597:26639   */\n      sstore\n        /* \"#utility.yul\":26678:26679   */\n      0x01\n        /* \"#utility.yul\":26670:26676   */\n      dup3\n        /* \"#utility.yul\":26666:26680   */\n      add\n        /* \"#utility.yul\":26656:26680   */\n      swap2\n      pop\n        /* \"#utility.yul\":26725:26727   */\n      0x20\n        /* \"#utility.yul\":26714:26723   */\n      dup6\n        /* \"#utility.yul\":26710:26728   */\n      add\n        /* \"#utility.yul\":26697:26728   */\n      swap5\n      pop\n        /* \"#utility.yul\":26571:26575   */\n      0x20\n        /* \"#utility.yul\":26568:26569   */\n      dup2\n        /* \"#utility.yul\":26564:26576   */\n      add\n        /* \"#utility.yul\":26559:26576   */\n      swap1\n      pop\n        /* \"#utility.yul\":26534:26742   */\n      jump(tag_510)\n    tag_512:\n        /* \"#utility.yul\":26770:26776   */\n      dup7\n        /* \"#utility.yul\":26761:26768   */\n      dup4\n        /* \"#utility.yul\":26758:26777   */\n      lt\n        /* \"#utility.yul\":26755:26934   */\n      iszero\n      tag_513\n      jumpi\n        /* \"#utility.yul\":26828:26837   */\n      dup5\n        /* \"#utility.yul\":26823:26826   */\n      dup10\n        /* \"#utility.yul\":26819:26838   */\n      add\n        /* \"#utility.yul\":26813:26839   */\n      mload\n        /* \"#utility.yul\":26871:26919   */\n      tag_514\n        /* \"#utility.yul\":26913:26917   */\n      0x1f\n        /* \"#utility.yul\":26905:26911   */\n      dup10\n        /* \"#utility.yul\":26901:26918   */\n      and\n        /* \"#utility.yul\":26890:26899   */\n      dup3\n        /* \"#utility.yul\":26871:26919   */\n      tag_266\n      jump\t// in\n    tag_514:\n        /* \"#utility.yul\":26863:26869   */\n      dup4\n        /* \"#utility.yul\":26856:26920   */\n      sstore\n        /* \"#utility.yul\":26778:26934   */\n      pop\n        /* \"#utility.yul\":26755:26934   */\n    tag_513:\n        /* \"#utility.yul\":26980:26981   */\n      0x01\n        /* \"#utility.yul\":26976:26977   */\n      0x02\n        /* \"#utility.yul\":26968:26974   */\n      dup9\n        /* \"#utility.yul\":26964:26978   */\n      mul\n        /* \"#utility.yul\":26960:26982   */\n      add\n        /* \"#utility.yul\":26954:26958   */\n      dup9\n        /* \"#utility.yul\":26947:26983   */\n      sstore\n        /* \"#utility.yul\":26382:26993   */\n      pop\n      pop\n      pop\n        /* \"#utility.yul\":26345:27232   */\n    tag_505:\n      pop\n        /* \"#utility.yul\":25935:27238   */\n      pop\n      pop\n      pop\n        /* \"#utility.yul\":25843:27238   */\n      pop\n      pop\n      jump\t// out\n        /* \"#utility.yul\":27244:27412   */\n    tag_268:\n        /* \"#utility.yul\":27384:27404   */\n      0x416c726561647920526567697374657265640000000000000000000000000000\n        /* \"#utility.yul\":27380:27381   */\n      0x00\n        /* \"#utility.yul\":27372:27378   */\n      dup3\n        /* \"#utility.yul\":27368:27382   */\n      add\n        /* \"#utility.yul\":27361:27405   */\n      mstore\n        /* \"#utility.yul\":27244:27412   */\n      pop\n      jump\t// out\n        /* \"#utility.yul\":27418:27784   */\n    tag_269:\n        /* \"#utility.yul\":27560:27563   */\n      0x00\n        /* \"#utility.yul\":27581:27648   */\n      tag_517\n        /* \"#utility.yul\":27645:27647   */\n      0x12\n        /* \"#utility.yul\":27640:27643   */\n      dup4\n        /* \"#utility.yul\":27581:27648   */\n      tag_238\n      jump\t// in\n    tag_517:\n        /* \"#utility.yul\":27574:27648   */\n      swap2\n      pop\n        /* \"#utility.yul\":27657:27750   */\n      tag_518\n        /* \"#utility.yul\":27746:27749   */\n      dup3\n        /* \"#utility.yul\":27657:27750   */\n      tag_268\n      jump\t// in\n    tag_518:\n        /* \"#utility.yul\":27775:27777   */\n      0x20\n        /* \"#utility.yul\":27770:27773   */\n      dup3\n        /* \"#utility.yul\":27766:27778   */\n      add\n        /* \"#utility.yul\":27759:27778   */\n      swap1\n      pop\n        /* \"#utility.yul\":27418:27784   */\n      swap2\n      swap1\n      pop\n      jump\t// out\n        /* \"#utility.yul\":27790:28209   */\n    tag_97:\n        /* \"#utility.yul\":27956:27960   */\n      0x00\n        /* \"#utility.yul\":27994:27996   */\n      0x20\n        /* \"#utility.yul\":27983:27992   */\n      dup3\n        /* \"#utility.yul\":27979:27997   */\n      add\n        /* \"#utility.yul\":27971:27997   */\n      swap1\n      pop\n        /* \"#utility.yul\":28043:28052   */\n      dup2\n        /* \"#utility.yul\":28037:28041   */\n      dup2\n        /* \"#utility.yul\":28033:28053   */\n      sub\n        /* \"#utility.yul\":28029:28030   */\n      0x00\n        /* \"#utility.yul\":28018:28027   */\n      dup4\n        /* \"#utility.yul\":28014:28031   */\n      add\n        /* \"#utility.yul\":28007:28054   */\n      mstore\n        /* \"#utility.yul\":28071:28202   */\n      tag_520\n        /* \"#utility.yul\":28197:28201   */\n      dup2\n        /* \"#utility.yul\":28071:28202   */\n      tag_269\n      jump\t// in\n    tag_520:\n        /* \"#utility.yul\":28063:28202   */\n      swap1\n      pop\n        /* \"#utility.yul\":27790:28209   */\n      swap2\n      swap1\n      pop\n      jump\t// out\n        /* \"#utility.yul\":28215:28392   */\n    tag_270:\n        /* \"#utility.yul\":28355:28384   */\n      0x43616e64696461746520526567697374726174696f6e2046756c6c0000000000\n        /* \"#utility.yul\":28351:28352   */\n      0x00\n        /* \"#utility.yul\":28343:28349   */\n      dup3\n        /* \"#utility.yul\":28339:28353   */\n      add\n        /* \"#utility.yul\":28332:28385   */\n      mstore\n        /* \"#utility.yul\":28215:28392   */\n      pop\n      jump\t// out\n        /* \"#utility.yul\":28398:28764   */\n    tag_271:\n        /* \"#utility.yul\":28540:28543   */\n      0x00\n        /* \"#utility.yul\":28561:28628   */\n      tag_523\n        /* \"#utility.yul\":28625:28627   */\n      0x1b\n        /* \"#utility.yul\":28620:28623   */\n      dup4\n        /* \"#utility.yul\":28561:28628   */\n      tag_238\n      jump\t// in\n    tag_523:\n        /* \"#utility.yul\":28554:28628   */\n      swap2\n      pop\n        /* \"#utility.yul\":28637:28730   */\n      tag_524\n        /* \"#utility.yul\":28726:28729   */\n      dup3\n        /* \"#utility.yul\":28637:28730   */\n      tag_270\n      jump\t// in\n    tag_524:\n        /* \"#utility.yul\":28755:28757   */\n      0x20\n        /* \"#utility.yul\":28750:28753   */\n      dup3\n        /* \"#utility.yul\":28746:28758   */\n      add\n        /* \"#utility.yul\":28739:28758   */\n      swap1\n      pop\n        /* \"#utility.yul\":28398:28764   */\n      swap2\n      swap1\n      pop\n      jump\t// out\n        /* \"#utility.yul\":28770:29189   */\n    tag_100:\n        /* \"#utility.yul\":28936:28940   */\n      0x00\n        /* \"#utility.yul\":28974:28976   */\n      0x20\n        /* \"#utility.yul\":28963:28972   */\n      dup3\n        /* \"#utility.yul\":28959:28977   */\n      add\n        /* \"#utility.yul\":28951:28977   */\n      swap1\n      pop\n        /* \"#utility.yul\":29023:29032   */\n      dup2\n        /* \"#utility.yul\":29017:29021   */\n      dup2\n        /* \"#utility.yul\":29013:29033   */\n      sub\n        /* \"#utility.yul\":29009:29010   */\n      0x00\n        /* \"#utility.yul\":28998:29007   */\n      dup4\n        /* \"#utility.yul\":28994:29011   */\n      add\n        /* \"#utility.yul\":28987:29034   */\n      mstore\n        /* \"#utility.yul\":29051:29182   */\n      tag_526\n        /* \"#utility.yul\":29177:29181   */\n      dup2\n        /* \"#utility.yul\":29051:29182   */\n      tag_271\n      jump\t// in\n    tag_526:\n        /* \"#utility.yul\":29043:29182   */\n      swap1\n      pop\n        /* \"#utility.yul\":28770:29189   */\n      swap2\n      swap1\n      pop\n      jump\t// out\n        /* \"#utility.yul\":29195:29424   */\n    tag_272:\n        /* \"#utility.yul\":29335:29369   */\n      0x456c656374696f6e20436f6d6d6973696f6e206e6f7420616c6c6f7765642074\n        /* \"#utility.yul\":29331:29332   */\n      0x00\n        /* \"#utility.yul\":29323:29329   */\n      dup3\n        /* \"#utility.yul\":29319:29333   */\n      add\n        /* \"#utility.yul\":29312:29370   */\n      mstore\n        /* \"#utility.yul\":29404:29416   */\n      0x6f20726567697374657200000000000000000000000000000000000000000000\n        /* \"#utility.yul\":29399:29401   */\n      0x20\n        /* \"#utility.yul\":29391:29397   */\n      dup3\n        /* \"#utility.yul\":29387:29402   */\n      add\n        /* \"#utility.yul\":29380:29417   */\n      mstore\n        /* \"#utility.yul\":29195:29424   */\n      pop\n      jump\t// out\n        /* \"#utility.yul\":29430:29796   */\n    tag_273:\n        /* \"#utility.yul\":29572:29575   */\n      0x00\n        /* \"#utility.yul\":29593:29660   */\n      tag_529\n        /* \"#utility.yul\":29657:29659   */\n      0x2a\n        /* \"#utility.yul\":29652:29655   */\n      dup4\n        /* \"#utility.yul\":29593:29660   */\n      tag_238\n      jump\t// in\n    tag_529:\n        /* \"#utility.yul\":29586:29660   */\n      swap2\n      pop\n        /* \"#utility.yul\":29669:29762   */\n      tag_530\n        /* \"#utility.yul\":29758:29761   */\n      dup3\n        /* \"#utility.yul\":29669:29762   */\n      tag_272\n      jump\t// in\n    tag_530:\n        /* \"#utility.yul\":29787:29789   */\n      0x40\n        /* \"#utility.yul\":29782:29785   */\n      dup3\n        /* \"#utility.yul\":29778:29790   */\n      add\n        /* \"#utility.yul\":29771:29790   */\n      swap1\n      pop\n        /* \"#utility.yul\":29430:29796   */\n      swap2\n      swap1\n      pop\n      jump\t// out\n        /* \"#utility.yul\":29802:30221   */\n    tag_103:\n        /* \"#utility.yul\":29968:29972   */\n      0x00\n        /* \"#utility.yul\":30006:30008   */\n      0x20\n        /* \"#utility.yul\":29995:30004   */\n      dup3\n        /* \"#utility.yul\":29991:30009   */\n      add\n        /* \"#utility.yul\":29983:30009   */\n      swap1\n      pop\n        /* \"#utility.yul\":30055:30064   */\n      dup2\n        /* \"#utility.yul\":30049:30053   */\n      dup2\n        /* \"#utility.yul\":30045:30065   */\n      sub\n        /* \"#utility.yul\":30041:30042   */\n      0x00\n        /* \"#utility.yul\":30030:30039   */\n      dup4\n        /* \"#utility.yul\":30026:30043   */\n      add\n        /* \"#utility.yul\":30019:30066   */\n      mstore\n        /* \"#utility.yul\":30083:30214   */\n      tag_532\n        /* \"#utility.yul\":30209:30213   */\n      dup2\n        /* \"#utility.yul\":30083:30214   */\n      tag_273\n      jump\t// in\n    tag_532:\n        /* \"#utility.yul\":30075:30214   */\n      swap1\n      pop\n        /* \"#utility.yul\":29802:30221   */\n      swap2\n      swap1\n      pop\n      jump\t// out\n        /* \"#utility.yul\":30227:30458   */\n    tag_274:\n        /* \"#utility.yul\":30367:30401   */\n      0x5f656e6454696d654475726174696f6e206d7573742062652067726561746572\n        /* \"#utility.yul\":30363:30364   */\n      0x00\n        /* \"#utility.yul\":30355:30361   */\n      dup3\n        /* \"#utility.yul\":30351:30365   */\n      add\n        /* \"#utility.yul\":30344:30402   */\n      mstore\n        /* \"#utility.yul\":30436:30450   */\n      0x207468616e203120686f75720000000000000000000000000000000000000000\n        /* \"#utility.yul\":30431:30433   */\n      0x20\n        /* \"#utility.yul\":30423:30429   */\n      dup3\n        /* \"#utility.yul\":30419:30434   */\n      add\n        /* \"#utility.yul\":30412:30451   */\n      mstore\n        /* \"#utility.yul\":30227:30458   */\n      pop\n      jump\t// out\n        /* \"#utility.yul\":30464:30830   */\n    tag_275:\n        /* \"#utility.yul\":30606:30609   */\n      0x00\n        /* \"#utility.yul\":30627:30694   */\n      tag_535\n        /* \"#utility.yul\":30691:30693   */\n      0x2c\n        /* \"#utility.yul\":30686:30689   */\n      dup4\n        /* \"#utility.yul\":30627:30694   */\n      tag_238\n      jump\t// in\n    tag_535:\n        /* \"#utility.yul\":30620:30694   */\n      swap2\n      pop\n        /* \"#utility.yul\":30703:30796   */\n      tag_536\n        /* \"#utility.yul\":30792:30795   */\n      dup3\n        /* \"#utility.yul\":30703:30796   */\n      tag_274\n      jump\t// in\n    tag_536:\n        /* \"#utility.yul\":30821:30823   */\n      0x40\n        /* \"#utility.yul\":30816:30819   */\n      dup3\n        /* \"#utility.yul\":30812:30824   */\n      add\n        /* \"#utility.yul\":30805:30824   */\n      swap1\n      pop\n        /* \"#utility.yul\":30464:30830   */\n      swap2\n      swap1\n      pop\n      jump\t// out\n        /* \"#utility.yul\":30836:31255   */\n    tag_121:\n        /* \"#utility.yul\":31002:31006   */\n      0x00\n        /* \"#utility.yul\":31040:31042   */\n      0x20\n        /* \"#utility.yul\":31029:31038   */\n      dup3\n        /* \"#utility.yul\":31025:31043   */\n      add\n        /* \"#utility.yul\":31017:31043   */\n      swap1\n      pop\n        /* \"#utility.yul\":31089:31098   */\n      dup2\n        /* \"#utility.yul\":31083:31087   */\n      dup2\n        /* \"#utility.yul\":31079:31099   */\n      sub\n        /* \"#utility.yul\":31075:31076   */\n      0x00\n        /* \"#utility.yul\":31064:31073   */\n      dup4\n        /* \"#utility.yul\":31060:31077   */\n      add\n        /* \"#utility.yul\":31053:31100   */\n      mstore\n        /* \"#utility.yul\":31117:31248   */\n      tag_538\n        /* \"#utility.yul\":31243:31247   */\n      dup2\n        /* \"#utility.yul\":31117:31248   */\n      tag_275\n      jump\t// in\n    tag_538:\n        /* \"#utility.yul\":31109:31248   */\n      swap1\n      pop\n        /* \"#utility.yul\":30836:31255   */\n      swap2\n      swap1\n      pop\n      jump\t// out\n        /* \"#utility.yul\":31261:31452   */\n    tag_123:\n        /* \"#utility.yul\":31301:31304   */\n      0x00\n        /* \"#utility.yul\":31320:31340   */\n      tag_540\n        /* \"#utility.yul\":31338:31339   */\n      dup3\n        /* \"#utility.yul\":31320:31340   */\n      tag_197\n      jump\t// in\n    tag_540:\n        /* \"#utility.yul\":31315:31340   */\n      swap2\n      pop\n        /* \"#utility.yul\":31354:31374   */\n      tag_541\n        /* \"#utility.yul\":31372:31373   */\n      dup4\n        /* \"#utility.yul\":31354:31374   */\n      tag_197\n      jump\t// in\n    tag_541:\n        /* \"#utility.yul\":31349:31374   */\n      swap3\n      pop\n        /* \"#utility.yul\":31397:31398   */\n      dup3\n        /* \"#utility.yul\":31394:31395   */\n      dup3\n        /* \"#utility.yul\":31390:31399   */\n      add\n        /* \"#utility.yul\":31383:31399   */\n      swap1\n      pop\n        /* \"#utility.yul\":31418:31421   */\n      dup1\n        /* \"#utility.yul\":31415:31416   */\n      dup3\n        /* \"#utility.yul\":31412:31422   */\n      gt\n        /* \"#utility.yul\":31409:31445   */\n      iszero\n      tag_542\n      jumpi\n        /* \"#utility.yul\":31425:31443   */\n      tag_543\n      tag_247\n      jump\t// in\n    tag_543:\n        /* \"#utility.yul\":31409:31445   */\n    tag_542:\n        /* \"#utility.yul\":31261:31452   */\n      swap3\n      swap2\n      pop\n      pop\n      jump\t// out\n        /* \"#utility.yul\":31458:31652   */\n    tag_127:\n        /* \"#utility.yul\":31498:31502   */\n      0x00\n        /* \"#utility.yul\":31518:31538   */\n      tag_545\n        /* \"#utility.yul\":31536:31537   */\n      dup3\n        /* \"#utility.yul\":31518:31538   */\n      tag_197\n      jump\t// in\n    tag_545:\n        /* \"#utility.yul\":31513:31538   */\n      swap2\n      pop\n        /* \"#utility.yul\":31552:31572   */\n      tag_546\n        /* \"#utility.yul\":31570:31571   */\n      dup4\n        /* \"#utility.yul\":31552:31572   */\n      tag_197\n      jump\t// in\n    tag_546:\n        /* \"#utility.yul\":31547:31572   */\n      swap3\n      pop\n        /* \"#utility.yul\":31596:31597   */\n      dup3\n        /* \"#utility.yul\":31593:31594   */\n      dup3\n        /* \"#utility.yul\":31589:31598   */\n      sub\n        /* \"#utility.yul\":31581:31598   */\n      swap1\n      pop\n        /* \"#utility.yul\":31620:31621   */\n      dup2\n        /* \"#utility.yul\":31614:31618   */\n      dup2\n        /* \"#utility.yul\":31611:31622   */\n      gt\n        /* \"#utility.yul\":31608:31645   */\n      iszero\n      tag_547\n      jumpi\n        /* \"#utility.yul\":31625:31643   */\n      tag_548\n      tag_247\n      jump\t// in\n    tag_548:\n        /* \"#utility.yul\":31608:31645   */\n    tag_547:\n        /* \"#utility.yul\":31458:31652   */\n      swap3\n      swap2\n      pop\n      pop\n      jump\t// out\n        /* \"#utility.yul\":31658:31838   */\n    tag_151:\n        /* \"#utility.yul\":31706:31783   */\n      0x4e487b7100000000000000000000000000000000000000000000000000000000\n        /* \"#utility.yul\":31703:31704   */\n      0x00\n        /* \"#utility.yul\":31696:31784   */\n      mstore\n        /* \"#utility.yul\":31803:31807   */\n      0x32\n        /* \"#utility.yul\":31800:31801   */\n      0x04\n        /* \"#utility.yul\":31793:31808   */\n      mstore\n        /* \"#utility.yul\":31827:31831   */\n      0x24\n        /* \"#utility.yul\":31824:31825   */\n      0x00\n        /* \"#utility.yul\":31817:31832   */\n      revert\n\n    auxdata: 0xa2646970667358221220f2f8040f5b54b576819cb66d0099f9fc83b2d1d7bec9030ce7a25d37a37c7c6964736f6c634300081a0033\n}\n",
				"bytecode": {
					"linkReferences": {},
					"object": "6080604052600160025560016003553480156018575f80fd5b50335f806101000a81548173ffffffffffffffffffffffffffffffffffffffff021916908373ffffffffffffffffffffffffffffffffffffffff1602179055506121a9806100655f395ff3fe608060405234801561000f575f80fd5b506004361061009c575f3560e01c80639fa4e440116100645780639fa4e4401461011c578063a15a36c714610126578063b28d92ae14610142578063dfbf53ae14610160578063fdbc40061461017e5761009c565b80632c0a3f89146100a0578063581c281c146100bc5780636ce2ccc0146100da57806381ba732f146100e4578063982c777d14610100575b5f80fd5b6100ba60048036038101906100b591906112a0565b61019c565b005b6100c461036e565b6040516100d19190611351565b60405180910390f35b6100e26103b8565b005b6100fe60048036038101906100f991906113ee565b610567565b005b61011a6004803603810190610115919061145f565b610723565b005b610124610a11565b005b610140600480360381019061013b91906112a0565b610aba565b005b61014a610bb5565b6040516101579190611747565b60405180910390f35b610168610dbe565b6040516101759190611776565b60405180910390f35b610186610de3565b60405161019391906118ea565b60405180910390f35b6004544210156101e1576040517f08c379a00000000000000000000000000000000000000000000000000000000081526004016101d890611964565b60405180910390fd5b5f60075f8481526020019081526020015f206004015414610237576040517f08c379a000000000000000000000000000000000000000000000000000000000815260040161022e906119cc565b60405180910390fd5b3373ffffffffffffffffffffffffffffffffffffffff1660075f8481526020019081526020015f206005015f9054906101000a900473ffffffffffffffffffffffffffffffffffffffff1673ffffffffffffffffffffffffffffffffffffffff16146102d8576040517f08c379a00000000000000000000000000000000000000000000000000000000081526004016102cf90611a34565b60405180910390fd5b600181101580156102e95750600381105b610328576040517f08c379a000000000000000000000000000000000000000000000000000000000815260040161031f90611a9c565b60405180910390fd5b8060075f8481526020019081526020015f206004018190555060085f8281526020019081526020015f206006015f81548092919061036590611ae7565b91905055505050565b5f8060045403610380575f90506103b5565b426005541180156103a257505f151560065f9054906101000a900460ff161515145b156103b057600190506103b5565b600290505b90565b3373ffffffffffffffffffffffffffffffffffffffff165f8054906101000a900473ffffffffffffffffffffffffffffffffffffffff1673ffffffffffffffffffffffffffffffffffffffff1614610445576040517f08c379a000000000000000000000000000000000000000000000000000000000815260040161043c90611b78565b60405180910390fd5b60085f600281526020019081526020015f206006015460085f600181526020019081526020015f206006015411156104f05760085f600181526020019081526020015f206005015f9054906101000a900473ffffffffffffffffffffffffffffffffffffffff1660015f6101000a81548173ffffffffffffffffffffffffffffffffffffffff021916908373ffffffffffffffffffffffffffffffffffffffff160217905550610565565b60085f600281526020019081526020015f206005015f9054906101000a900473ffffffffffffffffffffffffffffffffffffffff1660015f6101000a81548173ffffffffffffffffffffffffffffffffffffffff021916908373ffffffffffffffffffffffffffffffffffffffff1602179055505b565b6105703361107c565b6105af576040517f08c379a00000000000000000000000000000000000000000000000000000000081526004016105a690611be0565b60405180910390fd5b6040518060c0016040528085858080601f0160208091040260200160405190810160405280939291908181526020018383808284375f81840152601f19601f8201169050808301925050505050505081526020018381526020016002548152602001826003811115610624576106236112de565b5b81526020015f81526020013373ffffffffffffffffffffffffffffffffffffffff1681525060075f60025481526020019081526020015f205f820151815f01908161066f9190611e25565b5060208201518160010155604082015181600201556060820151816003015f6101000a81548160ff021916908360038111156106ae576106ad6112de565b5b02179055506080820151816004015560a0820151816005015f6101000a81548173ffffffffffffffffffffffffffffffffffffffff021916908373ffffffffffffffffffffffffffffffffffffffff16021790555090505060025f81548092919061071890611ae7565b919050555050505050565b61072c33611114565b61076b576040517f08c379a000000000000000000000000000000000000000000000000000000000815260040161076290611f3e565b60405180910390fd5b60038054106107af576040517f08c379a00000000000000000000000000000000000000000000000000000000081526004016107a690611fa6565b60405180910390fd5b5f8054906101000a900473ffffffffffffffffffffffffffffffffffffffff1673ffffffffffffffffffffffffffffffffffffffff163373ffffffffffffffffffffffffffffffffffffffff160361083c576040517f08c379a000000000000000000000000000000000000000000000000000000000815260040161083390612034565b60405180910390fd5b6040518060e0016040528087878080601f0160208091040260200160405190810160405280939291908181526020018383808284375f81840152601f19601f82011690508083019250505050505050815260200185858080601f0160208091040260200160405190810160405280939291908181526020018383808284375f81840152601f19601f8201169050808301925050505050505081526020018381526020018260038111156108f2576108f16112de565b5b815260200160035481526020013373ffffffffffffffffffffffffffffffffffffffff1681526020015f81525060085f60035481526020019081526020015f205f820151815f0190816109459190611e25565b50602082015181600101908161095b9190611e25565b50604082015181600201556060820151816003015f6101000a81548160ff021916908360038111156109905761098f6112de565b5b02179055506080820151816004015560a0820151816005015f6101000a81548173ffffffffffffffffffffffffffffffffffffffff021916908373ffffffffffffffffffffffffffffffffffffffff16021790555060c0820151816006015590505060035f815480929190610a0490611ae7565b9190505550505050505050565b3373ffffffffffffffffffffffffffffffffffffffff165f8054906101000a900473ffffffffffffffffffffffffffffffffffffffff1673ffffffffffffffffffffffffffffffffffffffff1614610a9e576040517f08c379a0000000000000000000000000000000000000000000000000000000008152600401610a9590611b78565b60405180910390fd5b600160065f6101000a81548160ff021916908315150217905550565b3373ffffffffffffffffffffffffffffffffffffffff165f8054906101000a900473ffffffffffffffffffffffffffffffffffffffff1673ffffffffffffffffffffffffffffffffffffffff1614610b47576040517f08c379a0000000000000000000000000000000000000000000000000000000008152600401610b3e90611b78565b60405180910390fd5b610e108111610b8b576040517f08c379a0000000000000000000000000000000000000000000000000000000008152600401610b82906120c2565b60405180910390fd5b8142610b9791906120e0565b60048190555080600454610bab91906120e0565b6005819055505050565b60605f6001600254610bc79190612113565b67ffffffffffffffff811115610be057610bdf611bfe565b5b604051908082528060200260200182016040528015610c1957816020015b610c066111ac565b815260200190600190039081610bfe5790505b5090505f5b8151811015610db65760075f600183610c3791906120e0565b81526020019081526020015f206040518060c00160405290815f82018054610c5e90611c58565b80601f0160208091040260200160405190810160405280929190818152602001828054610c8a90611c58565b8015610cd55780601f10610cac57610100808354040283529160200191610cd5565b820191905f5260205f20905b815481529060010190602001808311610cb857829003601f168201915b505050505081526020016001820154815260200160028201548152602001600382015f9054906101000a900460ff166003811115610d1657610d156112de565b5b6003811115610d2857610d276112de565b5b815260200160048201548152602001600582015f9054906101000a900473ffffffffffffffffffffffffffffffffffffffff1673ffffffffffffffffffffffffffffffffffffffff1673ffffffffffffffffffffffffffffffffffffffff1681525050828281518110610d9e57610d9d612146565b5b60200260200101819052508080600101915050610c1e565b508091505090565b60015f9054906101000a900473ffffffffffffffffffffffffffffffffffffffff1681565b60605f6001600354610df59190612113565b67ffffffffffffffff811115610e0e57610e0d611bfe565b5b604051908082528060200260200182016040528015610e4757816020015b610e34611205565b815260200190600190039081610e2c5790505b5090505f5b81518110156110745760085f600183610e6591906120e0565b81526020019081526020015f206040518060e00160405290815f82018054610e8c90611c58565b80601f0160208091040260200160405190810160405280929190818152602001828054610eb890611c58565b8015610f035780601f10610eda57610100808354040283529160200191610f03565b820191905f5260205f20905b815481529060010190602001808311610ee657829003601f168201915b50505050508152602001600182018054610f1c90611c58565b80601f0160208091040260200160405190810160405280929190818152602001828054610f4890611c58565b8015610f935780601f10610f6a57610100808354040283529160200191610f93565b820191905f5260205f20905b815481529060010190602001808311610f7657829003601f168201915b5050505050815260200160028201548152602001600382015f9054906101000a900460ff166003811115610fca57610fc96112de565b5b6003811115610fdc57610fdb6112de565b5b815260200160048201548152602001600582015f9054906101000a900473ffffffffffffffffffffffffffffffffffffffff1673ffffffffffffffffffffffffffffffffffffffff1673ffffffffffffffffffffffffffffffffffffffff16815260200160068201548152505082828151811061105c5761105b612146565b5b60200260200101819052508080600101915050610e4c565b508091505090565b5f80600190505b600254811015611109578273ffffffffffffffffffffffffffffffffffffffff1660075f8381526020019081526020015f206005015f9054906101000a900473ffffffffffffffffffffffffffffffffffffffff1673ffffffffffffffffffffffffffffffffffffffff16036110fc575f91505061110f565b8080600101915050611083565b50600190505b919050565b5f80600190505b6003548110156111a1578273ffffffffffffffffffffffffffffffffffffffff1660085f8381526020019081526020015f206005015f9054906101000a900473ffffffffffffffffffffffffffffffffffffffff1673ffffffffffffffffffffffffffffffffffffffff1603611194575f9150506111a7565b808060010191505061111b565b50600190505b919050565b6040518060c00160405280606081526020015f81526020015f81526020015f60038111156111dd576111dc6112de565b5b81526020015f81526020015f73ffffffffffffffffffffffffffffffffffffffff1681525090565b6040518060e0016040528060608152602001606081526020015f81526020015f6003811115611237576112366112de565b5b81526020015f81526020015f73ffffffffffffffffffffffffffffffffffffffff1681526020015f81525090565b5f80fd5b5f80fd5b5f819050919050565b61127f8161126d565b8114611289575f80fd5b50565b5f8135905061129a81611276565b92915050565b5f80604083850312156112b6576112b5611265565b5b5f6112c38582860161128c565b92505060206112d48582860161128c565b9150509250929050565b7f4e487b71000000000000000000000000000000000000000000000000000000005f52602160045260245ffd5b6003811061131c5761131b6112de565b5b50565b5f81905061132c8261130b565b919050565b5f61133b8261131f565b9050919050565b61134b81611331565b82525050565b5f6020820190506113645f830184611342565b92915050565b5f80fd5b5f80fd5b5f80fd5b5f8083601f84011261138b5761138a61136a565b5b8235905067ffffffffffffffff8111156113a8576113a761136e565b5b6020830191508360018202830111156113c4576113c3611372565b5b9250929050565b600481106113d7575f80fd5b50565b5f813590506113e8816113cb565b92915050565b5f805f806060858703121561140657611405611265565b5b5f85013567ffffffffffffffff81111561142357611422611269565b5b61142f87828801611376565b945094505060206114428782880161128c565b9250506040611453878288016113da565b91505092959194509250565b5f805f805f806080878903121561147957611478611265565b5b5f87013567ffffffffffffffff81111561149657611495611269565b5b6114a289828a01611376565b9650965050602087013567ffffffffffffffff8111156114c5576114c4611269565b5b6114d189828a01611376565b945094505060406114e489828a0161128c565b92505060606114f589828a016113da565b9150509295509295509295565b5f81519050919050565b5f82825260208201905092915050565b5f819050602082019050919050565b5f81519050919050565b5f82825260208201905092915050565b8281835e5f83830152505050565b5f601f19601f8301169050919050565b5f61156d8261152b565b6115778185611535565b9350611587818560208601611545565b61159081611553565b840191505092915050565b6115a48161126d565b82525050565b600481106115bb576115ba6112de565b5b50565b5f8190506115cb826115aa565b919050565b5f6115da826115be565b9050919050565b6115ea816115d0565b82525050565b5f73ffffffffffffffffffffffffffffffffffffffff82169050919050565b5f611619826115f0565b9050919050565b6116298161160f565b82525050565b5f60c083015f8301518482035f8601526116498282611563565b915050602083015161165e602086018261159b565b506040830151611671604086018261159b565b50606083015161168460608601826115e1565b506080830151611697608086018261159b565b5060a08301516116aa60a0860182611620565b508091505092915050565b5f6116c0838361162f565b905092915050565b5f602082019050919050565b5f6116de82611502565b6116e8818561150c565b9350836020820285016116fa8561151c565b805f5b85811015611735578484038952815161171685826116b5565b9450611721836116c8565b925060208a019950506001810190506116fd565b50829750879550505050505092915050565b5f6020820190508181035f83015261175f81846116d4565b905092915050565b6117708161160f565b82525050565b5f6020820190506117895f830184611767565b92915050565b5f81519050919050565b5f82825260208201905092915050565b5f819050602082019050919050565b5f60e083015f8301518482035f8601526117d28282611563565b915050602083015184820360208601526117ec8282611563565b9150506040830151611801604086018261159b565b50606083015161181460608601826115e1565b506080830151611827608086018261159b565b5060a083015161183a60a0860182611620565b5060c083015161184d60c086018261159b565b508091505092915050565b5f61186383836117b8565b905092915050565b5f602082019050919050565b5f6118818261178f565b61188b8185611799565b93508360208202850161189d856117a9565b805f5b858110156118d857848403895281516118b98582611858565b94506118c48361186b565b925060208a019950506001810190506118a0565b50829750879550505050505092915050565b5f6020820190508181035f8301526119028184611877565b905092915050565b5f82825260208201905092915050565b7f566f74696e6720686173206e6f742073746172746564207965740000000000005f82015250565b5f61194e601a8361190a565b91506119598261191a565b602082019050919050565b5f6020820190508181035f83015261197b81611942565b9050919050565b7f596f75206861766520616c726561647920766f746564000000000000000000005f82015250565b5f6119b660168361190a565b91506119c182611982565b602082019050919050565b5f6020820190508181035f8301526119e3816119aa565b9050919050565b7f596f7520617265206e6f7420617574686f72697a6564000000000000000000005f82015250565b5f611a1e60168361190a565b9150611a29826119ea565b602082019050919050565b5f6020820190508181035f830152611a4b81611a12565b9050919050565b7f43616e646964617465204964206973206e6f7420636f727265637400000000005f82015250565b5f611a86601b8361190a565b9150611a9182611a52565b602082019050919050565b5f6020820190508181035f830152611ab381611a7a565b9050919050565b7f4e487b71000000000000000000000000000000000000000000000000000000005f52601160045260245ffd5b5f611af18261126d565b91507fffffffffffffffffffffffffffffffffffffffffffffffffffffffffffffffff8203611b2357611b22611aba565b5b600182019050919050565b7f556e617574686f72697a656420416363657373000000000000000000000000005f82015250565b5f611b6260138361190a565b9150611b6d82611b2e565b602082019050919050565b5f6020820190508181035f830152611b8f81611b56565b9050919050565b7f596f752061726520616c726561647920726567697374657265640000000000005f82015250565b5f611bca601a8361190a565b9150611bd582611b96565b602082019050919050565b5f6020820190508181035f830152611bf781611bbe565b9050919050565b7f4e487b71000000000000000000000000000000000000000000000000000000005f52604160045260245ffd5b7f4e487b71000000000000000000000000000000000000000000000000000000005f52602260045260245ffd5b5f6002820490506001821680611c6f57607f821691505b602082108103611c8257611c81611c2b565b5b50919050565b5f819050815f5260205f209050919050565b5f6020601f8301049050919050565b5f82821b905092915050565b5f60088302611ce47fffffffffffffffffffffffffffffffffffffffffffffffffffffffffffffffff82611ca9565b611cee8683611ca9565b95508019841693508086168417925050509392505050565b5f819050919050565b5f611d29611d24611d1f8461126d565b611d06565b61126d565b9050919050565b5f819050919050565b611d4283611d0f565b611d56611d4e82611d30565b848454611cb5565b825550505050565b5f90565b611d6a611d5e565b611d75818484611d39565b505050565b5b81811015611d9857611d8d5f82611d62565b600181019050611d7b565b5050565b601f821115611ddd57611dae81611c88565b611db784611c9a565b81016020851015611dc6578190505b611dda611dd285611c9a565b830182611d7a565b50505b505050565b5f82821c905092915050565b5f611dfd5f1984600802611de2565b1980831691505092915050565b5f611e158383611dee565b9150826002028217905092915050565b611e2e8261152b565b67ffffffffffffffff811115611e4757611e46611bfe565b5b611e518254611c58565b611e5c828285611d9c565b5f60209050601f831160018114611e8d575f8415611e7b578287015190505b611e858582611e0a565b865550611eec565b601f198416611e9b86611c88565b5f5b82811015611ec257848901518255600182019150602085019450602081019050611e9d565b86831015611edf5784890151611edb601f891682611dee565b8355505b6001600288020188555050505b505050505050565b7f416c7265616479205265676973746572656400000000000000000000000000005f82015250565b5f611f2860128361190a565b9150611f3382611ef4565b602082019050919050565b5f6020820190508181035f830152611f5581611f1c565b9050919050565b7f43616e64696461746520526567697374726174696f6e2046756c6c00000000005f82015250565b5f611f90601b8361190a565b9150611f9b82611f5c565b602082019050919050565b5f6020820190508181035f830152611fbd81611f84565b9050919050565b7f456c656374696f6e20436f6d6d6973696f6e206e6f7420616c6c6f77656420745f8201527f6f20726567697374657200000000000000000000000000000000000000000000602082015250565b5f61201e602a8361190a565b915061202982611fc4565b604082019050919050565b5f6020820190508181035f83015261204b81612012565b9050919050565b7f5f656e6454696d654475726174696f6e206d75737420626520677265617465725f8201527f207468616e203120686f75720000000000000000000000000000000000000000602082015250565b5f6120ac602c8361190a565b91506120b782612052565b604082019050919050565b5f6020820190508181035f8301526120d9816120a0565b9050919050565b5f6120ea8261126d565b91506120f58361126d565b925082820190508082111561210d5761210c611aba565b5b92915050565b5f61211d8261126d565b91506121288361126d565b92508282039050818111156121405761213f611aba565b5b92915050565b7f4e487b71000000000000000000000000000000000000000000000000000000005f52603260045260245ffdfea2646970667358221220f2f8040f5b54b576819cb66d0099f9fc83b2d1d7bec9030ce7a25d37a37c7c6964736f6c634300081a0033",
					"opcodes": "PUSH1 0x80 PUSH1 0x40 MSTORE PUSH1 0x1 PUSH1 0x2 SSTORE PUSH1 0x1 PUSH1 0x3 SSTORE CALLVALUE DUP1 ISZERO PUSH1 0x18 JUMPI PUSH0 DUP1 REVERT JUMPDEST POP CALLER PUSH0 DUP1 PUSH2 0x100 EXP DUP2 SLOAD DUP2 PUSH20 0xFFFFFFFFFFFFFFFFFFFFFFFFFFFFFFFFFFFFFFFF MUL NOT AND SWAP1 DUP4 PUSH20 0xFFFFFFFFFFFFFFFFFFFFFFFFFFFFFFFFFFFFFFFF AND MUL OR SWAP1 SSTORE POP PUSH2 0x21A9 DUP1 PUSH2 0x65 PUSH0 CODECOPY PUSH0 RETURN INVALID PUSH1 0x80 PUSH1 0x40 MSTORE CALLVALUE DUP1 ISZERO PUSH2 0xF JUMPI PUSH0 DUP1 REVERT JUMPDEST POP PUSH1 0x4 CALLDATASIZE LT PUSH2 0x9C JUMPI PUSH0 CALLDATALOAD PUSH1 0xE0 SHR DUP1 PUSH4 0x9FA4E440 GT PUSH2 0x64 JUMPI DUP1 PUSH4 0x9FA4E440 EQ PUSH2 0x11C JUMPI DUP1 PUSH4 0xA15A36C7 EQ PUSH2 0x126 JUMPI DUP1 PUSH4 0xB28D92AE EQ PUSH2 0x142 JUMPI DUP1 PUSH4 0xDFBF53AE EQ PUSH2 0x160 JUMPI DUP1 PUSH4 0xFDBC4006 EQ PUSH2 0x17E JUMPI PUSH2 0x9C JUMP JUMPDEST DUP1 PUSH4 0x2C0A3F89 EQ PUSH2 0xA0 JUMPI DUP1 PUSH4 0x581C281C EQ PUSH2 0xBC JUMPI DUP1 PUSH4 0x6CE2CCC0 EQ PUSH2 0xDA JUMPI DUP1 PUSH4 0x81BA732F EQ PUSH2 0xE4 JUMPI DUP1 PUSH4 0x982C777D EQ PUSH2 0x100 JUMPI JUMPDEST PUSH0 DUP1 REVERT JUMPDEST PUSH2 0xBA PUSH1 0x4 DUP1 CALLDATASIZE SUB DUP2 ADD SWAP1 PUSH2 0xB5 SWAP2 SWAP1 PUSH2 0x12A0 JUMP JUMPDEST PUSH2 0x19C JUMP JUMPDEST STOP JUMPDEST PUSH2 0xC4 PUSH2 0x36E JUMP JUMPDEST PUSH1 0x40 MLOAD PUSH2 0xD1 SWAP2 SWAP1 PUSH2 0x1351 JUMP JUMPDEST PUSH1 0x40 MLOAD DUP1 SWAP2 SUB SWAP1 RETURN JUMPDEST PUSH2 0xE2 PUSH2 0x3B8 JUMP JUMPDEST STOP JUMPDEST PUSH2 0xFE PUSH1 0x4 DUP1 CALLDATASIZE SUB DUP2 ADD SWAP1 PUSH2 0xF9 SWAP2 SWAP1 PUSH2 0x13EE JUMP JUMPDEST PUSH2 0x567 JUMP JUMPDEST STOP JUMPDEST PUSH2 0x11A PUSH1 0x4 DUP1 CALLDATASIZE SUB DUP2 ADD SWAP1 PUSH2 0x115 SWAP2 SWAP1 PUSH2 0x145F JUMP JUMPDEST PUSH2 0x723 JUMP JUMPDEST STOP JUMPDEST PUSH2 0x124 PUSH2 0xA11 JUMP JUMPDEST STOP JUMPDEST PUSH2 0x140 PUSH1 0x4 DUP1 CALLDATASIZE SUB DUP2 ADD SWAP1 PUSH2 0x13B SWAP2 SWAP1 PUSH2 0x12A0 JUMP JUMPDEST PUSH2 0xABA JUMP JUMPDEST STOP JUMPDEST PUSH2 0x14A PUSH2 0xBB5 JUMP JUMPDEST PUSH1 0x40 MLOAD PUSH2 0x157 SWAP2 SWAP1 PUSH2 0x1747 JUMP JUMPDEST PUSH1 0x40 MLOAD DUP1 SWAP2 SUB SWAP1 RETURN JUMPDEST PUSH2 0x168 PUSH2 0xDBE JUMP JUMPDEST PUSH1 0x40 MLOAD PUSH2 0x175 SWAP2 SWAP1 PUSH2 0x1776 JUMP JUMPDEST PUSH1 0x40 MLOAD DUP1 SWAP2 SUB SWAP1 RETURN JUMPDEST PUSH2 0x186 PUSH2 0xDE3 JUMP JUMPDEST PUSH1 0x40 MLOAD PUSH2 0x193 SWAP2 SWAP1 PUSH2 0x18EA JUMP JUMPDEST PUSH1 0x40 MLOAD DUP1 SWAP2 SUB SWAP1 RETURN JUMPDEST PUSH1 0x4 SLOAD TIMESTAMP LT ISZERO PUSH2 0x1E1 JUMPI PUSH1 0x40 MLOAD PUSH32 0x8C379A000000000000000000000000000000000000000000000000000000000 DUP2 MSTORE PUSH1 0x4 ADD PUSH2 0x1D8 SWAP1 PUSH2 0x1964 JUMP JUMPDEST PUSH1 0x40 MLOAD DUP1 SWAP2 SUB SWAP1 REVERT JUMPDEST PUSH0 PUSH1 0x7 PUSH0 DUP5 DUP2 MSTORE PUSH1 0x20 ADD SWAP1 DUP2 MSTORE PUSH1 0x20 ADD PUSH0 KECCAK256 PUSH1 0x4 ADD SLOAD EQ PUSH2 0x237 JUMPI PUSH1 0x40 MLOAD PUSH32 0x8C379A000000000000000000000000000000000000000000000000000000000 DUP2 MSTORE PUSH1 0x4 ADD PUSH2 0x22E SWAP1 PUSH2 0x19CC JUMP JUMPDEST PUSH1 0x40 MLOAD DUP1 SWAP2 SUB SWAP1 REVERT JUMPDEST CALLER PUSH20 0xFFFFFFFFFFFFFFFFFFFFFFFFFFFFFFFFFFFFFFFF AND PUSH1 0x7 PUSH0 DUP5 DUP2 MSTORE PUSH1 0x20 ADD SWAP1 DUP2 MSTORE PUSH1 0x20 ADD PUSH0 KECCAK256 PUSH1 0x5 ADD PUSH0 SWAP1 SLOAD SWAP1 PUSH2 0x100 EXP SWAP1 DIV PUSH20 0xFFFFFFFFFFFFFFFFFFFFFFFFFFFFFFFFFFFFFFFF AND PUSH20 0xFFFFFFFFFFFFFFFFFFFFFFFFFFFFFFFFFFFFFFFF AND EQ PUSH2 0x2D8 JUMPI PUSH1 0x40 MLOAD PUSH32 0x8C379A000000000000000000000000000000000000000000000000000000000 DUP2 MSTORE PUSH1 0x4 ADD PUSH2 0x2CF SWAP1 PUSH2 0x1A34 JUMP JUMPDEST PUSH1 0x40 MLOAD DUP1 SWAP2 SUB SWAP1 REVERT JUMPDEST PUSH1 0x1 DUP2 LT ISZERO DUP1 ISZERO PUSH2 0x2E9 JUMPI POP PUSH1 0x3 DUP2 LT JUMPDEST PUSH2 0x328 JUMPI PUSH1 0x40 MLOAD PUSH32 0x8C379A000000000000000000000000000000000000000000000000000000000 DUP2 MSTORE PUSH1 0x4 ADD PUSH2 0x31F SWAP1 PUSH2 0x1A9C JUMP JUMPDEST PUSH1 0x40 MLOAD DUP1 SWAP2 SUB SWAP1 REVERT JUMPDEST DUP1 PUSH1 0x7 PUSH0 DUP5 DUP2 MSTORE PUSH1 0x20 ADD SWAP1 DUP2 MSTORE PUSH1 0x20 ADD PUSH0 KECCAK256 PUSH1 0x4 ADD DUP2 SWAP1 SSTORE POP PUSH1 0x8 PUSH0 DUP3 DUP2 MSTORE PUSH1 0x20 ADD SWAP1 DUP2 MSTORE PUSH1 0x20 ADD PUSH0 KECCAK256 PUSH1 0x6 ADD PUSH0 DUP2 SLOAD DUP1 SWAP3 SWAP2 SWAP1 PUSH2 0x365 SWAP1 PUSH2 0x1AE7 JUMP JUMPDEST SWAP2 SWAP1 POP SSTORE POP POP POP JUMP JUMPDEST PUSH0 DUP1 PUSH1 0x4 SLOAD SUB PUSH2 0x380 JUMPI PUSH0 SWAP1 POP PUSH2 0x3B5 JUMP JUMPDEST TIMESTAMP PUSH1 0x5 SLOAD GT DUP1 ISZERO PUSH2 0x3A2 JUMPI POP PUSH0 ISZERO ISZERO PUSH1 0x6 PUSH0 SWAP1 SLOAD SWAP1 PUSH2 0x100 EXP SWAP1 DIV PUSH1 0xFF AND ISZERO ISZERO EQ JUMPDEST ISZERO PUSH2 0x3B0 JUMPI PUSH1 0x1 SWAP1 POP PUSH2 0x3B5 JUMP JUMPDEST PUSH1 0x2 SWAP1 POP JUMPDEST SWAP1 JUMP JUMPDEST CALLER PUSH20 0xFFFFFFFFFFFFFFFFFFFFFFFFFFFFFFFFFFFFFFFF AND PUSH0 DUP1 SLOAD SWAP1 PUSH2 0x100 EXP SWAP1 DIV PUSH20 0xFFFFFFFFFFFFFFFFFFFFFFFFFFFFFFFFFFFFFFFF AND PUSH20 0xFFFFFFFFFFFFFFFFFFFFFFFFFFFFFFFFFFFFFFFF AND EQ PUSH2 0x445 JUMPI PUSH1 0x40 MLOAD PUSH32 0x8C379A000000000000000000000000000000000000000000000000000000000 DUP2 MSTORE PUSH1 0x4 ADD PUSH2 0x43C SWAP1 PUSH2 0x1B78 JUMP JUMPDEST PUSH1 0x40 MLOAD DUP1 SWAP2 SUB SWAP1 REVERT JUMPDEST PUSH1 0x8 PUSH0 PUSH1 0x2 DUP2 MSTORE PUSH1 0x20 ADD SWAP1 DUP2 MSTORE PUSH1 0x20 ADD PUSH0 KECCAK256 PUSH1 0x6 ADD SLOAD PUSH1 0x8 PUSH0 PUSH1 0x1 DUP2 MSTORE PUSH1 0x20 ADD SWAP1 DUP2 MSTORE PUSH1 0x20 ADD PUSH0 KECCAK256 PUSH1 0x6 ADD SLOAD GT ISZERO PUSH2 0x4F0 JUMPI PUSH1 0x8 PUSH0 PUSH1 0x1 DUP2 MSTORE PUSH1 0x20 ADD SWAP1 DUP2 MSTORE PUSH1 0x20 ADD PUSH0 KECCAK256 PUSH1 0x5 ADD PUSH0 SWAP1 SLOAD SWAP1 PUSH2 0x100 EXP SWAP1 DIV PUSH20 0xFFFFFFFFFFFFFFFFFFFFFFFFFFFFFFFFFFFFFFFF AND PUSH1 0x1 PUSH0 PUSH2 0x100 EXP DUP2 SLOAD DUP2 PUSH20 0xFFFFFFFFFFFFFFFFFFFFFFFFFFFFFFFFFFFFFFFF MUL NOT AND SWAP1 DUP4 PUSH20 0xFFFFFFFFFFFFFFFFFFFFFFFFFFFFFFFFFFFFFFFF AND MUL OR SWAP1 SSTORE POP PUSH2 0x565 JUMP JUMPDEST PUSH1 0x8 PUSH0 PUSH1 0x2 DUP2 MSTORE PUSH1 0x20 ADD SWAP1 DUP2 MSTORE PUSH1 0x20 ADD PUSH0 KECCAK256 PUSH1 0x5 ADD PUSH0 SWAP1 SLOAD SWAP1 PUSH2 0x100 EXP SWAP1 DIV PUSH20 0xFFFFFFFFFFFFFFFFFFFFFFFFFFFFFFFFFFFFFFFF AND PUSH1 0x1 PUSH0 PUSH2 0x100 EXP DUP2 SLOAD DUP2 PUSH20 0xFFFFFFFFFFFFFFFFFFFFFFFFFFFFFFFFFFFFFFFF MUL NOT AND SWAP1 DUP4 PUSH20 0xFFFFFFFFFFFFFFFFFFFFFFFFFFFFFFFFFFFFFFFF AND MUL OR SWAP1 SSTORE POP JUMPDEST JUMP JUMPDEST PUSH2 0x570 CALLER PUSH2 0x107C JUMP JUMPDEST PUSH2 0x5AF JUMPI PUSH1 0x40 MLOAD PUSH32 0x8C379A000000000000000000000000000000000000000000000000000000000 DUP2 MSTORE PUSH1 0x4 ADD PUSH2 0x5A6 SWAP1 PUSH2 0x1BE0 JUMP JUMPDEST PUSH1 0x40 MLOAD DUP1 SWAP2 SUB SWAP1 REVERT JUMPDEST PUSH1 0x40 MLOAD DUP1 PUSH1 0xC0 ADD PUSH1 0x40 MSTORE DUP1 DUP6 DUP6 DUP1 DUP1 PUSH1 0x1F ADD PUSH1 0x20 DUP1 SWAP2 DIV MUL PUSH1 0x20 ADD PUSH1 0x40 MLOAD SWAP1 DUP2 ADD PUSH1 0x40 MSTORE DUP1 SWAP4 SWAP3 SWAP2 SWAP1 DUP2 DUP2 MSTORE PUSH1 0x20 ADD DUP4 DUP4 DUP1 DUP3 DUP5 CALLDATACOPY PUSH0 DUP2 DUP5 ADD MSTORE PUSH1 0x1F NOT PUSH1 0x1F DUP3 ADD AND SWAP1 POP DUP1 DUP4 ADD SWAP3 POP POP POP POP POP POP POP DUP2 MSTORE PUSH1 0x20 ADD DUP4 DUP2 MSTORE PUSH1 0x20 ADD PUSH1 0x2 SLOAD DUP2 MSTORE PUSH1 0x20 ADD DUP3 PUSH1 0x3 DUP2 GT ISZERO PUSH2 0x624 JUMPI PUSH2 0x623 PUSH2 0x12DE JUMP JUMPDEST JUMPDEST DUP2 MSTORE PUSH1 0x20 ADD PUSH0 DUP2 MSTORE PUSH1 0x20 ADD CALLER PUSH20 0xFFFFFFFFFFFFFFFFFFFFFFFFFFFFFFFFFFFFFFFF AND DUP2 MSTORE POP PUSH1 0x7 PUSH0 PUSH1 0x2 SLOAD DUP2 MSTORE PUSH1 0x20 ADD SWAP1 DUP2 MSTORE PUSH1 0x20 ADD PUSH0 KECCAK256 PUSH0 DUP3 ADD MLOAD DUP2 PUSH0 ADD SWAP1 DUP2 PUSH2 0x66F SWAP2 SWAP1 PUSH2 0x1E25 JUMP JUMPDEST POP PUSH1 0x20 DUP3 ADD MLOAD DUP2 PUSH1 0x1 ADD SSTORE PUSH1 0x40 DUP3 ADD MLOAD DUP2 PUSH1 0x2 ADD SSTORE PUSH1 0x60 DUP3 ADD MLOAD DUP2 PUSH1 0x3 ADD PUSH0 PUSH2 0x100 EXP DUP2 SLOAD DUP2 PUSH1 0xFF MUL NOT AND SWAP1 DUP4 PUSH1 0x3 DUP2 GT ISZERO PUSH2 0x6AE JUMPI PUSH2 0x6AD PUSH2 0x12DE JUMP JUMPDEST JUMPDEST MUL OR SWAP1 SSTORE POP PUSH1 0x80 DUP3 ADD MLOAD DUP2 PUSH1 0x4 ADD SSTORE PUSH1 0xA0 DUP3 ADD MLOAD DUP2 PUSH1 0x5 ADD PUSH0 PUSH2 0x100 EXP DUP2 SLOAD DUP2 PUSH20 0xFFFFFFFFFFFFFFFFFFFFFFFFFFFFFFFFFFFFFFFF MUL NOT AND SWAP1 DUP4 PUSH20 0xFFFFFFFFFFFFFFFFFFFFFFFFFFFFFFFFFFFFFFFF AND MUL OR SWAP1 SSTORE POP SWAP1 POP POP PUSH1 0x2 PUSH0 DUP2 SLOAD DUP1 SWAP3 SWAP2 SWAP1 PUSH2 0x718 SWAP1 PUSH2 0x1AE7 JUMP JUMPDEST SWAP2 SWAP1 POP SSTORE POP POP POP POP POP JUMP JUMPDEST PUSH2 0x72C CALLER PUSH2 0x1114 JUMP JUMPDEST PUSH2 0x76B JUMPI PUSH1 0x40 MLOAD PUSH32 0x8C379A000000000000000000000000000000000000000000000000000000000 DUP2 MSTORE PUSH1 0x4 ADD PUSH2 0x762 SWAP1 PUSH2 0x1F3E JUMP JUMPDEST PUSH1 0x40 MLOAD DUP1 SWAP2 SUB SWAP1 REVERT JUMPDEST PUSH1 0x3 DUP1 SLOAD LT PUSH2 0x7AF JUMPI PUSH1 0x40 MLOAD PUSH32 0x8C379A000000000000000000000000000000000000000000000000000000000 DUP2 MSTORE PUSH1 0x4 ADD PUSH2 0x7A6 SWAP1 PUSH2 0x1FA6 JUMP JUMPDEST PUSH1 0x40 MLOAD DUP1 SWAP2 SUB SWAP1 REVERT JUMPDEST PUSH0 DUP1 SLOAD SWAP1 PUSH2 0x100 EXP SWAP1 DIV PUSH20 0xFFFFFFFFFFFFFFFFFFFFFFFFFFFFFFFFFFFFFFFF AND PUSH20 0xFFFFFFFFFFFFFFFFFFFFFFFFFFFFFFFFFFFFFFFF AND CALLER PUSH20 0xFFFFFFFFFFFFFFFFFFFFFFFFFFFFFFFFFFFFFFFF AND SUB PUSH2 0x83C JUMPI PUSH1 0x40 MLOAD PUSH32 0x8C379A000000000000000000000000000000000000000000000000000000000 DUP2 MSTORE PUSH1 0x4 ADD PUSH2 0x833 SWAP1 PUSH2 0x2034 JUMP JUMPDEST PUSH1 0x40 MLOAD DUP1 SWAP2 SUB SWAP1 REVERT JUMPDEST PUSH1 0x40 MLOAD DUP1 PUSH1 0xE0 ADD PUSH1 0x40 MSTORE DUP1 DUP8 DUP8 DUP1 DUP1 PUSH1 0x1F ADD PUSH1 0x20 DUP1 SWAP2 DIV MUL PUSH1 0x20 ADD PUSH1 0x40 MLOAD SWAP1 DUP2 ADD PUSH1 0x40 MSTORE DUP1 SWAP4 SWAP3 SWAP2 SWAP1 DUP2 DUP2 MSTORE PUSH1 0x20 ADD DUP4 DUP4 DUP1 DUP3 DUP5 CALLDATACOPY PUSH0 DUP2 DUP5 ADD MSTORE PUSH1 0x1F NOT PUSH1 0x1F DUP3 ADD AND SWAP1 POP DUP1 DUP4 ADD SWAP3 POP POP POP POP POP POP POP DUP2 MSTORE PUSH1 0x20 ADD DUP6 DUP6 DUP1 DUP1 PUSH1 0x1F ADD PUSH1 0x20 DUP1 SWAP2 DIV MUL PUSH1 0x20 ADD PUSH1 0x40 MLOAD SWAP1 DUP2 ADD PUSH1 0x40 MSTORE DUP1 SWAP4 SWAP3 SWAP2 SWAP1 DUP2 DUP2 MSTORE PUSH1 0x20 ADD DUP4 DUP4 DUP1 DUP3 DUP5 CALLDATACOPY PUSH0 DUP2 DUP5 ADD MSTORE PUSH1 0x1F NOT PUSH1 0x1F DUP3 ADD AND SWAP1 POP DUP1 DUP4 ADD SWAP3 POP POP POP POP POP POP POP DUP2 MSTORE PUSH1 0x20 ADD DUP4 DUP2 MSTORE PUSH1 0x20 ADD DUP3 PUSH1 0x3 DUP2 GT ISZERO PUSH2 0x8F2 JUMPI PUSH2 0x8F1 PUSH2 0x12DE JUMP JUMPDEST JUMPDEST DUP2 MSTORE PUSH1 0x20 ADD PUSH1 0x3 SLOAD DUP2 MSTORE PUSH1 0x20 ADD CALLER PUSH20 0xFFFFFFFFFFFFFFFFFFFFFFFFFFFFFFFFFFFFFFFF AND DUP2 MSTORE PUSH1 0x20 ADD PUSH0 DUP2 MSTORE POP PUSH1 0x8 PUSH0 PUSH1 0x3 SLOAD DUP2 MSTORE PUSH1 0x20 ADD SWAP1 DUP2 MSTORE PUSH1 0x20 ADD PUSH0 KECCAK256 PUSH0 DUP3 ADD MLOAD DUP2 PUSH0 ADD SWAP1 DUP2 PUSH2 0x945 SWAP2 SWAP1 PUSH2 0x1E25 JUMP JUMPDEST POP PUSH1 0x20 DUP3 ADD MLOAD DUP2 PUSH1 0x1 ADD SWAP1 DUP2 PUSH2 0x95B SWAP2 SWAP1 PUSH2 0x1E25 JUMP JUMPDEST POP PUSH1 0x40 DUP3 ADD MLOAD DUP2 PUSH1 0x2 ADD SSTORE PUSH1 0x60 DUP3 ADD MLOAD DUP2 PUSH1 0x3 ADD PUSH0 PUSH2 0x100 EXP DUP2 SLOAD DUP2 PUSH1 0xFF MUL NOT AND SWAP1 DUP4 PUSH1 0x3 DUP2 GT ISZERO PUSH2 0x990 JUMPI PUSH2 0x98F PUSH2 0x12DE JUMP JUMPDEST JUMPDEST MUL OR SWAP1 SSTORE POP PUSH1 0x80 DUP3 ADD MLOAD DUP2 PUSH1 0x4 ADD SSTORE PUSH1 0xA0 DUP3 ADD MLOAD DUP2 PUSH1 0x5 ADD PUSH0 PUSH2 0x100 EXP DUP2 SLOAD DUP2 PUSH20 0xFFFFFFFFFFFFFFFFFFFFFFFFFFFFFFFFFFFFFFFF MUL NOT AND SWAP1 DUP4 PUSH20 0xFFFFFFFFFFFFFFFFFFFFFFFFFFFFFFFFFFFFFFFF AND MUL OR SWAP1 SSTORE POP PUSH1 0xC0 DUP3 ADD MLOAD DUP2 PUSH1 0x6 ADD SSTORE SWAP1 POP POP PUSH1 0x3 PUSH0 DUP2 SLOAD DUP1 SWAP3 SWAP2 SWAP1 PUSH2 0xA04 SWAP1 PUSH2 0x1AE7 JUMP JUMPDEST SWAP2 SWAP1 POP SSTORE POP POP POP POP POP POP POP JUMP JUMPDEST CALLER PUSH20 0xFFFFFFFFFFFFFFFFFFFFFFFFFFFFFFFFFFFFFFFF AND PUSH0 DUP1 SLOAD SWAP1 PUSH2 0x100 EXP SWAP1 DIV PUSH20 0xFFFFFFFFFFFFFFFFFFFFFFFFFFFFFFFFFFFFFFFF AND PUSH20 0xFFFFFFFFFFFFFFFFFFFFFFFFFFFFFFFFFFFFFFFF AND EQ PUSH2 0xA9E JUMPI PUSH1 0x40 MLOAD PUSH32 0x8C379A000000000000000000000000000000000000000000000000000000000 DUP2 MSTORE PUSH1 0x4 ADD PUSH2 0xA95 SWAP1 PUSH2 0x1B78 JUMP JUMPDEST PUSH1 0x40 MLOAD DUP1 SWAP2 SUB SWAP1 REVERT JUMPDEST PUSH1 0x1 PUSH1 0x6 PUSH0 PUSH2 0x100 EXP DUP2 SLOAD DUP2 PUSH1 0xFF MUL NOT AND SWAP1 DUP4 ISZERO ISZERO MUL OR SWAP1 SSTORE POP JUMP JUMPDEST CALLER PUSH20 0xFFFFFFFFFFFFFFFFFFFFFFFFFFFFFFFFFFFFFFFF AND PUSH0 DUP1 SLOAD SWAP1 PUSH2 0x100 EXP SWAP1 DIV PUSH20 0xFFFFFFFFFFFFFFFFFFFFFFFFFFFFFFFFFFFFFFFF AND PUSH20 0xFFFFFFFFFFFFFFFFFFFFFFFFFFFFFFFFFFFFFFFF AND EQ PUSH2 0xB47 JUMPI PUSH1 0x40 MLOAD PUSH32 0x8C379A000000000000000000000000000000000000000000000000000000000 DUP2 MSTORE PUSH1 0x4 ADD PUSH2 0xB3E SWAP1 PUSH2 0x1B78 JUMP JUMPDEST PUSH1 0x40 MLOAD DUP1 SWAP2 SUB SWAP1 REVERT JUMPDEST PUSH2 0xE10 DUP2 GT PUSH2 0xB8B JUMPI PUSH1 0x40 MLOAD PUSH32 0x8C379A000000000000000000000000000000000000000000000000000000000 DUP2 MSTORE PUSH1 0x4 ADD PUSH2 0xB82 SWAP1 PUSH2 0x20C2 JUMP JUMPDEST PUSH1 0x40 MLOAD DUP1 SWAP2 SUB SWAP1 REVERT JUMPDEST DUP2 TIMESTAMP PUSH2 0xB97 SWAP2 SWAP1 PUSH2 0x20E0 JUMP JUMPDEST PUSH1 0x4 DUP2 SWAP1 SSTORE POP DUP1 PUSH1 0x4 SLOAD PUSH2 0xBAB SWAP2 SWAP1 PUSH2 0x20E0 JUMP JUMPDEST PUSH1 0x5 DUP2 SWAP1 SSTORE POP POP POP JUMP JUMPDEST PUSH1 0x60 PUSH0 PUSH1 0x1 PUSH1 0x2 SLOAD PUSH2 0xBC7 SWAP2 SWAP1 PUSH2 0x2113 JUMP JUMPDEST PUSH8 0xFFFFFFFFFFFFFFFF DUP2 GT ISZERO PUSH2 0xBE0 JUMPI PUSH2 0xBDF PUSH2 0x1BFE JUMP JUMPDEST JUMPDEST PUSH1 0x40 MLOAD SWAP1 DUP1 DUP3 MSTORE DUP1 PUSH1 0x20 MUL PUSH1 0x20 ADD DUP3 ADD PUSH1 0x40 MSTORE DUP1 ISZERO PUSH2 0xC19 JUMPI DUP2 PUSH1 0x20 ADD JUMPDEST PUSH2 0xC06 PUSH2 0x11AC JUMP JUMPDEST DUP2 MSTORE PUSH1 0x20 ADD SWAP1 PUSH1 0x1 SWAP1 SUB SWAP1 DUP2 PUSH2 0xBFE JUMPI SWAP1 POP JUMPDEST POP SWAP1 POP PUSH0 JUMPDEST DUP2 MLOAD DUP2 LT ISZERO PUSH2 0xDB6 JUMPI PUSH1 0x7 PUSH0 PUSH1 0x1 DUP4 PUSH2 0xC37 SWAP2 SWAP1 PUSH2 0x20E0 JUMP JUMPDEST DUP2 MSTORE PUSH1 0x20 ADD SWAP1 DUP2 MSTORE PUSH1 0x20 ADD PUSH0 KECCAK256 PUSH1 0x40 MLOAD DUP1 PUSH1 0xC0 ADD PUSH1 0x40 MSTORE SWAP1 DUP2 PUSH0 DUP3 ADD DUP1 SLOAD PUSH2 0xC5E SWAP1 PUSH2 0x1C58 JUMP JUMPDEST DUP1 PUSH1 0x1F ADD PUSH1 0x20 DUP1 SWAP2 DIV MUL PUSH1 0x20 ADD PUSH1 0x40 MLOAD SWAP1 DUP2 ADD PUSH1 0x40 MSTORE DUP1 SWAP3 SWAP2 SWAP1 DUP2 DUP2 MSTORE PUSH1 0x20 ADD DUP3 DUP1 SLOAD PUSH2 0xC8A SWAP1 PUSH2 0x1C58 JUMP JUMPDEST DUP1 ISZERO PUSH2 0xCD5 JUMPI DUP1 PUSH1 0x1F LT PUSH2 0xCAC JUMPI PUSH2 0x100 DUP1 DUP4 SLOAD DIV MUL DUP4 MSTORE SWAP2 PUSH1 0x20 ADD SWAP2 PUSH2 0xCD5 JUMP JUMPDEST DUP3 ADD SWAP2 SWAP1 PUSH0 MSTORE PUSH1 0x20 PUSH0 KECCAK256 SWAP1 JUMPDEST DUP2 SLOAD DUP2 MSTORE SWAP1 PUSH1 0x1 ADD SWAP1 PUSH1 0x20 ADD DUP1 DUP4 GT PUSH2 0xCB8 JUMPI DUP3 SWAP1 SUB PUSH1 0x1F AND DUP3 ADD SWAP2 JUMPDEST POP POP POP POP POP DUP2 MSTORE PUSH1 0x20 ADD PUSH1 0x1 DUP3 ADD SLOAD DUP2 MSTORE PUSH1 0x20 ADD PUSH1 0x2 DUP3 ADD SLOAD DUP2 MSTORE PUSH1 0x20 ADD PUSH1 0x3 DUP3 ADD PUSH0 SWAP1 SLOAD SWAP1 PUSH2 0x100 EXP SWAP1 DIV PUSH1 0xFF AND PUSH1 0x3 DUP2 GT ISZERO PUSH2 0xD16 JUMPI PUSH2 0xD15 PUSH2 0x12DE JUMP JUMPDEST JUMPDEST PUSH1 0x3 DUP2 GT ISZERO PUSH2 0xD28 JUMPI PUSH2 0xD27 PUSH2 0x12DE JUMP JUMPDEST JUMPDEST DUP2 MSTORE PUSH1 0x20 ADD PUSH1 0x4 DUP3 ADD SLOAD DUP2 MSTORE PUSH1 0x20 ADD PUSH1 0x5 DUP3 ADD PUSH0 SWAP1 SLOAD SWAP1 PUSH2 0x100 EXP SWAP1 DIV PUSH20 0xFFFFFFFFFFFFFFFFFFFFFFFFFFFFFFFFFFFFFFFF AND PUSH20 0xFFFFFFFFFFFFFFFFFFFFFFFFFFFFFFFFFFFFFFFF AND PUSH20 0xFFFFFFFFFFFFFFFFFFFFFFFFFFFFFFFFFFFFFFFF AND DUP2 MSTORE POP POP DUP3 DUP3 DUP2 MLOAD DUP2 LT PUSH2 0xD9E JUMPI PUSH2 0xD9D PUSH2 0x2146 JUMP JUMPDEST JUMPDEST PUSH1 0x20 MUL PUSH1 0x20 ADD ADD DUP2 SWAP1 MSTORE POP DUP1 DUP1 PUSH1 0x1 ADD SWAP2 POP POP PUSH2 0xC1E JUMP JUMPDEST POP DUP1 SWAP2 POP POP SWAP1 JUMP JUMPDEST PUSH1 0x1 PUSH0 SWAP1 SLOAD SWAP1 PUSH2 0x100 EXP SWAP1 DIV PUSH20 0xFFFFFFFFFFFFFFFFFFFFFFFFFFFFFFFFFFFFFFFF AND DUP2 JUMP JUMPDEST PUSH1 0x60 PUSH0 PUSH1 0x1 PUSH1 0x3 SLOAD PUSH2 0xDF5 SWAP2 SWAP1 PUSH2 0x2113 JUMP JUMPDEST PUSH8 0xFFFFFFFFFFFFFFFF DUP2 GT ISZERO PUSH2 0xE0E JUMPI PUSH2 0xE0D PUSH2 0x1BFE JUMP JUMPDEST JUMPDEST PUSH1 0x40 MLOAD SWAP1 DUP1 DUP3 MSTORE DUP1 PUSH1 0x20 MUL PUSH1 0x20 ADD DUP3 ADD PUSH1 0x40 MSTORE DUP1 ISZERO PUSH2 0xE47 JUMPI DUP2 PUSH1 0x20 ADD JUMPDEST PUSH2 0xE34 PUSH2 0x1205 JUMP JUMPDEST DUP2 MSTORE PUSH1 0x20 ADD SWAP1 PUSH1 0x1 SWAP1 SUB SWAP1 DUP2 PUSH2 0xE2C JUMPI SWAP1 POP JUMPDEST POP SWAP1 POP PUSH0 JUMPDEST DUP2 MLOAD DUP2 LT ISZERO PUSH2 0x1074 JUMPI PUSH1 0x8 PUSH0 PUSH1 0x1 DUP4 PUSH2 0xE65 SWAP2 SWAP1 PUSH2 0x20E0 JUMP JUMPDEST DUP2 MSTORE PUSH1 0x20 ADD SWAP1 DUP2 MSTORE PUSH1 0x20 ADD PUSH0 KECCAK256 PUSH1 0x40 MLOAD DUP1 PUSH1 0xE0 ADD PUSH1 0x40 MSTORE SWAP1 DUP2 PUSH0 DUP3 ADD DUP1 SLOAD PUSH2 0xE8C SWAP1 PUSH2 0x1C58 JUMP JUMPDEST DUP1 PUSH1 0x1F ADD PUSH1 0x20 DUP1 SWAP2 DIV MUL PUSH1 0x20 ADD PUSH1 0x40 MLOAD SWAP1 DUP2 ADD PUSH1 0x40 MSTORE DUP1 SWAP3 SWAP2 SWAP1 DUP2 DUP2 MSTORE PUSH1 0x20 ADD DUP3 DUP1 SLOAD PUSH2 0xEB8 SWAP1 PUSH2 0x1C58 JUMP JUMPDEST DUP1 ISZERO PUSH2 0xF03 JUMPI DUP1 PUSH1 0x1F LT PUSH2 0xEDA JUMPI PUSH2 0x100 DUP1 DUP4 SLOAD DIV MUL DUP4 MSTORE SWAP2 PUSH1 0x20 ADD SWAP2 PUSH2 0xF03 JUMP JUMPDEST DUP3 ADD SWAP2 SWAP1 PUSH0 MSTORE PUSH1 0x20 PUSH0 KECCAK256 SWAP1 JUMPDEST DUP2 SLOAD DUP2 MSTORE SWAP1 PUSH1 0x1 ADD SWAP1 PUSH1 0x20 ADD DUP1 DUP4 GT PUSH2 0xEE6 JUMPI DUP3 SWAP1 SUB PUSH1 0x1F AND DUP3 ADD SWAP2 JUMPDEST POP POP POP POP POP DUP2 MSTORE PUSH1 0x20 ADD PUSH1 0x1 DUP3 ADD DUP1 SLOAD PUSH2 0xF1C SWAP1 PUSH2 0x1C58 JUMP JUMPDEST DUP1 PUSH1 0x1F ADD PUSH1 0x20 DUP1 SWAP2 DIV MUL PUSH1 0x20 ADD PUSH1 0x40 MLOAD SWAP1 DUP2 ADD PUSH1 0x40 MSTORE DUP1 SWAP3 SWAP2 SWAP1 DUP2 DUP2 MSTORE PUSH1 0x20 ADD DUP3 DUP1 SLOAD PUSH2 0xF48 SWAP1 PUSH2 0x1C58 JUMP JUMPDEST DUP1 ISZERO PUSH2 0xF93 JUMPI DUP1 PUSH1 0x1F LT PUSH2 0xF6A JUMPI PUSH2 0x100 DUP1 DUP4 SLOAD DIV MUL DUP4 MSTORE SWAP2 PUSH1 0x20 ADD SWAP2 PUSH2 0xF93 JUMP JUMPDEST DUP3 ADD SWAP2 SWAP1 PUSH0 MSTORE PUSH1 0x20 PUSH0 KECCAK256 SWAP1 JUMPDEST DUP2 SLOAD DUP2 MSTORE SWAP1 PUSH1 0x1 ADD SWAP1 PUSH1 0x20 ADD DUP1 DUP4 GT PUSH2 0xF76 JUMPI DUP3 SWAP1 SUB PUSH1 0x1F AND DUP3 ADD SWAP2 JUMPDEST POP POP POP POP POP DUP2 MSTORE PUSH1 0x20 ADD PUSH1 0x2 DUP3 ADD SLOAD DUP2 MSTORE PUSH1 0x20 ADD PUSH1 0x3 DUP3 ADD PUSH0 SWAP1 SLOAD SWAP1 PUSH2 0x100 EXP SWAP1 DIV PUSH1 0xFF AND PUSH1 0x3 DUP2 GT ISZERO PUSH2 0xFCA JUMPI PUSH2 0xFC9 PUSH2 0x12DE JUMP JUMPDEST JUMPDEST PUSH1 0x3 DUP2 GT ISZERO PUSH2 0xFDC JUMPI PUSH2 0xFDB PUSH2 0x12DE JUMP JUMPDEST JUMPDEST DUP2 MSTORE PUSH1 0x20 ADD PUSH1 0x4 DUP3 ADD SLOAD DUP2 MSTORE PUSH1 0x20 ADD PUSH1 0x5 DUP3 ADD PUSH0 SWAP1 SLOAD SWAP1 PUSH2 0x100 EXP SWAP1 DIV PUSH20 0xFFFFFFFFFFFFFFFFFFFFFFFFFFFFFFFFFFFFFFFF AND PUSH20 0xFFFFFFFFFFFFFFFFFFFFFFFFFFFFFFFFFFFFFFFF AND PUSH20 0xFFFFFFFFFFFFFFFFFFFFFFFFFFFFFFFFFFFFFFFF AND DUP2 MSTORE PUSH1 0x20 ADD PUSH1 0x6 DUP3 ADD SLOAD DUP2 MSTORE POP POP DUP3 DUP3 DUP2 MLOAD DUP2 LT PUSH2 0x105C JUMPI PUSH2 0x105B PUSH2 0x2146 JUMP JUMPDEST JUMPDEST PUSH1 0x20 MUL PUSH1 0x20 ADD ADD DUP2 SWAP1 MSTORE POP DUP1 DUP1 PUSH1 0x1 ADD SWAP2 POP POP PUSH2 0xE4C JUMP JUMPDEST POP DUP1 SWAP2 POP POP SWAP1 JUMP JUMPDEST PUSH0 DUP1 PUSH1 0x1 SWAP1 POP JUMPDEST PUSH1 0x2 SLOAD DUP2 LT ISZERO PUSH2 0x1109 JUMPI DUP3 PUSH20 0xFFFFFFFFFFFFFFFFFFFFFFFFFFFFFFFFFFFFFFFF AND PUSH1 0x7 PUSH0 DUP4 DUP2 MSTORE PUSH1 0x20 ADD SWAP1 DUP2 MSTORE PUSH1 0x20 ADD PUSH0 KECCAK256 PUSH1 0x5 ADD PUSH0 SWAP1 SLOAD SWAP1 PUSH2 0x100 EXP SWAP1 DIV PUSH20 0xFFFFFFFFFFFFFFFFFFFFFFFFFFFFFFFFFFFFFFFF AND PUSH20 0xFFFFFFFFFFFFFFFFFFFFFFFFFFFFFFFFFFFFFFFF AND SUB PUSH2 0x10FC JUMPI PUSH0 SWAP2 POP POP PUSH2 0x110F JUMP JUMPDEST DUP1 DUP1 PUSH1 0x1 ADD SWAP2 POP POP PUSH2 0x1083 JUMP JUMPDEST POP PUSH1 0x1 SWAP1 POP JUMPDEST SWAP2 SWAP1 POP JUMP JUMPDEST PUSH0 DUP1 PUSH1 0x1 SWAP1 POP JUMPDEST PUSH1 0x3 SLOAD DUP2 LT ISZERO PUSH2 0x11A1 JUMPI DUP3 PUSH20 0xFFFFFFFFFFFFFFFFFFFFFFFFFFFFFFFFFFFFFFFF AND PUSH1 0x8 PUSH0 DUP4 DUP2 MSTORE PUSH1 0x20 ADD SWAP1 DUP2 MSTORE PUSH1 0x20 ADD PUSH0 KECCAK256 PUSH1 0x5 ADD PUSH0 SWAP1 SLOAD SWAP1 PUSH2 0x100 EXP SWAP1 DIV PUSH20 0xFFFFFFFFFFFFFFFFFFFFFFFFFFFFFFFFFFFFFFFF AND PUSH20 0xFFFFFFFFFFFFFFFFFFFFFFFFFFFFFFFFFFFFFFFF AND SUB PUSH2 0x1194 JUMPI PUSH0 SWAP2 POP POP PUSH2 0x11A7 JUMP JUMPDEST DUP1 DUP1 PUSH1 0x1 ADD SWAP2 POP POP PUSH2 0x111B JUMP JUMPDEST POP PUSH1 0x1 SWAP1 POP JUMPDEST SWAP2 SWAP1 POP JUMP JUMPDEST PUSH1 0x40 MLOAD DUP1 PUSH1 0xC0 ADD PUSH1 0x40 MSTORE DUP1 PUSH1 0x60 DUP2 MSTORE PUSH1 0x20 ADD PUSH0 DUP2 MSTORE PUSH1 0x20 ADD PUSH0 DUP2 MSTORE PUSH1 0x20 ADD PUSH0 PUSH1 0x3 DUP2 GT ISZERO PUSH2 0x11DD JUMPI PUSH2 0x11DC PUSH2 0x12DE JUMP JUMPDEST JUMPDEST DUP2 MSTORE PUSH1 0x20 ADD PUSH0 DUP2 MSTORE PUSH1 0x20 ADD PUSH0 PUSH20 0xFFFFFFFFFFFFFFFFFFFFFFFFFFFFFFFFFFFFFFFF AND DUP2 MSTORE POP SWAP1 JUMP JUMPDEST PUSH1 0x40 MLOAD DUP1 PUSH1 0xE0 ADD PUSH1 0x40 MSTORE DUP1 PUSH1 0x60 DUP2 MSTORE PUSH1 0x20 ADD PUSH1 0x60 DUP2 MSTORE PUSH1 0x20 ADD PUSH0 DUP2 MSTORE PUSH1 0x20 ADD PUSH0 PUSH1 0x3 DUP2 GT ISZERO PUSH2 0x1237 JUMPI PUSH2 0x1236 PUSH2 0x12DE JUMP JUMPDEST JUMPDEST DUP2 MSTORE PUSH1 0x20 ADD PUSH0 DUP2 MSTORE PUSH1 0x20 ADD PUSH0 PUSH20 0xFFFFFFFFFFFFFFFFFFFFFFFFFFFFFFFFFFFFFFFF AND DUP2 MSTORE PUSH1 0x20 ADD PUSH0 DUP2 MSTORE POP SWAP1 JUMP JUMPDEST PUSH0 DUP1 REVERT JUMPDEST PUSH0 DUP1 REVERT JUMPDEST PUSH0 DUP2 SWAP1 POP SWAP2 SWAP1 POP JUMP JUMPDEST PUSH2 0x127F DUP2 PUSH2 0x126D JUMP JUMPDEST DUP2 EQ PUSH2 0x1289 JUMPI PUSH0 DUP1 REVERT JUMPDEST POP JUMP JUMPDEST PUSH0 DUP2 CALLDATALOAD SWAP1 POP PUSH2 0x129A DUP2 PUSH2 0x1276 JUMP JUMPDEST SWAP3 SWAP2 POP POP JUMP JUMPDEST PUSH0 DUP1 PUSH1 0x40 DUP4 DUP6 SUB SLT ISZERO PUSH2 0x12B6 JUMPI PUSH2 0x12B5 PUSH2 0x1265 JUMP JUMPDEST JUMPDEST PUSH0 PUSH2 0x12C3 DUP6 DUP3 DUP7 ADD PUSH2 0x128C JUMP JUMPDEST SWAP3 POP POP PUSH1 0x20 PUSH2 0x12D4 DUP6 DUP3 DUP7 ADD PUSH2 0x128C JUMP JUMPDEST SWAP2 POP POP SWAP3 POP SWAP3 SWAP1 POP JUMP JUMPDEST PUSH32 0x4E487B7100000000000000000000000000000000000000000000000000000000 PUSH0 MSTORE PUSH1 0x21 PUSH1 0x4 MSTORE PUSH1 0x24 PUSH0 REVERT JUMPDEST PUSH1 0x3 DUP2 LT PUSH2 0x131C JUMPI PUSH2 0x131B PUSH2 0x12DE JUMP JUMPDEST JUMPDEST POP JUMP JUMPDEST PUSH0 DUP2 SWAP1 POP PUSH2 0x132C DUP3 PUSH2 0x130B JUMP JUMPDEST SWAP2 SWAP1 POP JUMP JUMPDEST PUSH0 PUSH2 0x133B DUP3 PUSH2 0x131F JUMP JUMPDEST SWAP1 POP SWAP2 SWAP1 POP JUMP JUMPDEST PUSH2 0x134B DUP2 PUSH2 0x1331 JUMP JUMPDEST DUP3 MSTORE POP POP JUMP JUMPDEST PUSH0 PUSH1 0x20 DUP3 ADD SWAP1 POP PUSH2 0x1364 PUSH0 DUP4 ADD DUP5 PUSH2 0x1342 JUMP JUMPDEST SWAP3 SWAP2 POP POP JUMP JUMPDEST PUSH0 DUP1 REVERT JUMPDEST PUSH0 DUP1 REVERT JUMPDEST PUSH0 DUP1 REVERT JUMPDEST PUSH0 DUP1 DUP4 PUSH1 0x1F DUP5 ADD SLT PUSH2 0x138B JUMPI PUSH2 0x138A PUSH2 0x136A JUMP JUMPDEST JUMPDEST DUP3 CALLDATALOAD SWAP1 POP PUSH8 0xFFFFFFFFFFFFFFFF DUP2 GT ISZERO PUSH2 0x13A8 JUMPI PUSH2 0x13A7 PUSH2 0x136E JUMP JUMPDEST JUMPDEST PUSH1 0x20 DUP4 ADD SWAP2 POP DUP4 PUSH1 0x1 DUP3 MUL DUP4 ADD GT ISZERO PUSH2 0x13C4 JUMPI PUSH2 0x13C3 PUSH2 0x1372 JUMP JUMPDEST JUMPDEST SWAP3 POP SWAP3 SWAP1 POP JUMP JUMPDEST PUSH1 0x4 DUP2 LT PUSH2 0x13D7 JUMPI PUSH0 DUP1 REVERT JUMPDEST POP JUMP JUMPDEST PUSH0 DUP2 CALLDATALOAD SWAP1 POP PUSH2 0x13E8 DUP2 PUSH2 0x13CB JUMP JUMPDEST SWAP3 SWAP2 POP POP JUMP JUMPDEST PUSH0 DUP1 PUSH0 DUP1 PUSH1 0x60 DUP6 DUP8 SUB SLT ISZERO PUSH2 0x1406 JUMPI PUSH2 0x1405 PUSH2 0x1265 JUMP JUMPDEST JUMPDEST PUSH0 DUP6 ADD CALLDATALOAD PUSH8 0xFFFFFFFFFFFFFFFF DUP2 GT ISZERO PUSH2 0x1423 JUMPI PUSH2 0x1422 PUSH2 0x1269 JUMP JUMPDEST JUMPDEST PUSH2 0x142F DUP8 DUP3 DUP9 ADD PUSH2 0x1376 JUMP JUMPDEST SWAP5 POP SWAP5 POP POP PUSH1 0x20 PUSH2 0x1442 DUP8 DUP3 DUP9 ADD PUSH2 0x128C JUMP JUMPDEST SWAP3 POP POP PUSH1 0x40 PUSH2 0x1453 DUP8 DUP3 DUP9 ADD PUSH2 0x13DA JUMP JUMPDEST SWAP2 POP POP SWAP3 SWAP6 SWAP2 SWAP5 POP SWAP3 POP JUMP JUMPDEST PUSH0 DUP1 PUSH0 DUP1 PUSH0 DUP1 PUSH1 0x80 DUP8 DUP10 SUB SLT ISZERO PUSH2 0x1479 JUMPI PUSH2 0x1478 PUSH2 0x1265 JUMP JUMPDEST JUMPDEST PUSH0 DUP8 ADD CALLDATALOAD PUSH8 0xFFFFFFFFFFFFFFFF DUP2 GT ISZERO PUSH2 0x1496 JUMPI PUSH2 0x1495 PUSH2 0x1269 JUMP JUMPDEST JUMPDEST PUSH2 0x14A2 DUP10 DUP3 DUP11 ADD PUSH2 0x1376 JUMP JUMPDEST SWAP7 POP SWAP7 POP POP PUSH1 0x20 DUP8 ADD CALLDATALOAD PUSH8 0xFFFFFFFFFFFFFFFF DUP2 GT ISZERO PUSH2 0x14C5 JUMPI PUSH2 0x14C4 PUSH2 0x1269 JUMP JUMPDEST JUMPDEST PUSH2 0x14D1 DUP10 DUP3 DUP11 ADD PUSH2 0x1376 JUMP JUMPDEST SWAP5 POP SWAP5 POP POP PUSH1 0x40 PUSH2 0x14E4 DUP10 DUP3 DUP11 ADD PUSH2 0x128C JUMP JUMPDEST SWAP3 POP POP PUSH1 0x60 PUSH2 0x14F5 DUP10 DUP3 DUP11 ADD PUSH2 0x13DA JUMP JUMPDEST SWAP2 POP POP SWAP3 SWAP6 POP SWAP3 SWAP6 POP SWAP3 SWAP6 JUMP JUMPDEST PUSH0 DUP2 MLOAD SWAP1 POP SWAP2 SWAP1 POP JUMP JUMPDEST PUSH0 DUP3 DUP3 MSTORE PUSH1 0x20 DUP3 ADD SWAP1 POP SWAP3 SWAP2 POP POP JUMP JUMPDEST PUSH0 DUP2 SWAP1 POP PUSH1 0x20 DUP3 ADD SWAP1 POP SWAP2 SWAP1 POP JUMP JUMPDEST PUSH0 DUP2 MLOAD SWAP1 POP SWAP2 SWAP1 POP JUMP JUMPDEST PUSH0 DUP3 DUP3 MSTORE PUSH1 0x20 DUP3 ADD SWAP1 POP SWAP3 SWAP2 POP POP JUMP JUMPDEST DUP3 DUP2 DUP4 MCOPY PUSH0 DUP4 DUP4 ADD MSTORE POP POP POP JUMP JUMPDEST PUSH0 PUSH1 0x1F NOT PUSH1 0x1F DUP4 ADD AND SWAP1 POP SWAP2 SWAP1 POP JUMP JUMPDEST PUSH0 PUSH2 0x156D DUP3 PUSH2 0x152B JUMP JUMPDEST PUSH2 0x1577 DUP2 DUP6 PUSH2 0x1535 JUMP JUMPDEST SWAP4 POP PUSH2 0x1587 DUP2 DUP6 PUSH1 0x20 DUP7 ADD PUSH2 0x1545 JUMP JUMPDEST PUSH2 0x1590 DUP2 PUSH2 0x1553 JUMP JUMPDEST DUP5 ADD SWAP2 POP POP SWAP3 SWAP2 POP POP JUMP JUMPDEST PUSH2 0x15A4 DUP2 PUSH2 0x126D JUMP JUMPDEST DUP3 MSTORE POP POP JUMP JUMPDEST PUSH1 0x4 DUP2 LT PUSH2 0x15BB JUMPI PUSH2 0x15BA PUSH2 0x12DE JUMP JUMPDEST JUMPDEST POP JUMP JUMPDEST PUSH0 DUP2 SWAP1 POP PUSH2 0x15CB DUP3 PUSH2 0x15AA JUMP JUMPDEST SWAP2 SWAP1 POP JUMP JUMPDEST PUSH0 PUSH2 0x15DA DUP3 PUSH2 0x15BE JUMP JUMPDEST SWAP1 POP SWAP2 SWAP1 POP JUMP JUMPDEST PUSH2 0x15EA DUP2 PUSH2 0x15D0 JUMP JUMPDEST DUP3 MSTORE POP POP JUMP JUMPDEST PUSH0 PUSH20 0xFFFFFFFFFFFFFFFFFFFFFFFFFFFFFFFFFFFFFFFF DUP3 AND SWAP1 POP SWAP2 SWAP1 POP JUMP JUMPDEST PUSH0 PUSH2 0x1619 DUP3 PUSH2 0x15F0 JUMP JUMPDEST SWAP1 POP SWAP2 SWAP1 POP JUMP JUMPDEST PUSH2 0x1629 DUP2 PUSH2 0x160F JUMP JUMPDEST DUP3 MSTORE POP POP JUMP JUMPDEST PUSH0 PUSH1 0xC0 DUP4 ADD PUSH0 DUP4 ADD MLOAD DUP5 DUP3 SUB PUSH0 DUP7 ADD MSTORE PUSH2 0x1649 DUP3 DUP3 PUSH2 0x1563 JUMP JUMPDEST SWAP2 POP POP PUSH1 0x20 DUP4 ADD MLOAD PUSH2 0x165E PUSH1 0x20 DUP7 ADD DUP3 PUSH2 0x159B JUMP JUMPDEST POP PUSH1 0x40 DUP4 ADD MLOAD PUSH2 0x1671 PUSH1 0x40 DUP7 ADD DUP3 PUSH2 0x159B JUMP JUMPDEST POP PUSH1 0x60 DUP4 ADD MLOAD PUSH2 0x1684 PUSH1 0x60 DUP7 ADD DUP3 PUSH2 0x15E1 JUMP JUMPDEST POP PUSH1 0x80 DUP4 ADD MLOAD PUSH2 0x1697 PUSH1 0x80 DUP7 ADD DUP3 PUSH2 0x159B JUMP JUMPDEST POP PUSH1 0xA0 DUP4 ADD MLOAD PUSH2 0x16AA PUSH1 0xA0 DUP7 ADD DUP3 PUSH2 0x1620 JUMP JUMPDEST POP DUP1 SWAP2 POP POP SWAP3 SWAP2 POP POP JUMP JUMPDEST PUSH0 PUSH2 0x16C0 DUP4 DUP4 PUSH2 0x162F JUMP JUMPDEST SWAP1 POP SWAP3 SWAP2 POP POP JUMP JUMPDEST PUSH0 PUSH1 0x20 DUP3 ADD SWAP1 POP SWAP2 SWAP1 POP JUMP JUMPDEST PUSH0 PUSH2 0x16DE DUP3 PUSH2 0x1502 JUMP JUMPDEST PUSH2 0x16E8 DUP2 DUP6 PUSH2 0x150C JUMP JUMPDEST SWAP4 POP DUP4 PUSH1 0x20 DUP3 MUL DUP6 ADD PUSH2 0x16FA DUP6 PUSH2 0x151C JUMP JUMPDEST DUP1 PUSH0 JUMPDEST DUP6 DUP2 LT ISZERO PUSH2 0x1735 JUMPI DUP5 DUP5 SUB DUP10 MSTORE DUP2 MLOAD PUSH2 0x1716 DUP6 DUP3 PUSH2 0x16B5 JUMP JUMPDEST SWAP5 POP PUSH2 0x1721 DUP4 PUSH2 0x16C8 JUMP JUMPDEST SWAP3 POP PUSH1 0x20 DUP11 ADD SWAP10 POP POP PUSH1 0x1 DUP2 ADD SWAP1 POP PUSH2 0x16FD JUMP JUMPDEST POP DUP3 SWAP8 POP DUP8 SWAP6 POP POP POP POP POP POP SWAP3 SWAP2 POP POP JUMP JUMPDEST PUSH0 PUSH1 0x20 DUP3 ADD SWAP1 POP DUP2 DUP2 SUB PUSH0 DUP4 ADD MSTORE PUSH2 0x175F DUP2 DUP5 PUSH2 0x16D4 JUMP JUMPDEST SWAP1 POP SWAP3 SWAP2 POP POP JUMP JUMPDEST PUSH2 0x1770 DUP2 PUSH2 0x160F JUMP JUMPDEST DUP3 MSTORE POP POP JUMP JUMPDEST PUSH0 PUSH1 0x20 DUP3 ADD SWAP1 POP PUSH2 0x1789 PUSH0 DUP4 ADD DUP5 PUSH2 0x1767 JUMP JUMPDEST SWAP3 SWAP2 POP POP JUMP JUMPDEST PUSH0 DUP2 MLOAD SWAP1 POP SWAP2 SWAP1 POP JUMP JUMPDEST PUSH0 DUP3 DUP3 MSTORE PUSH1 0x20 DUP3 ADD SWAP1 POP SWAP3 SWAP2 POP POP JUMP JUMPDEST PUSH0 DUP2 SWAP1 POP PUSH1 0x20 DUP3 ADD SWAP1 POP SWAP2 SWAP1 POP JUMP JUMPDEST PUSH0 PUSH1 0xE0 DUP4 ADD PUSH0 DUP4 ADD MLOAD DUP5 DUP3 SUB PUSH0 DUP7 ADD MSTORE PUSH2 0x17D2 DUP3 DUP3 PUSH2 0x1563 JUMP JUMPDEST SWAP2 POP POP PUSH1 0x20 DUP4 ADD MLOAD DUP5 DUP3 SUB PUSH1 0x20 DUP7 ADD MSTORE PUSH2 0x17EC DUP3 DUP3 PUSH2 0x1563 JUMP JUMPDEST SWAP2 POP POP PUSH1 0x40 DUP4 ADD MLOAD PUSH2 0x1801 PUSH1 0x40 DUP7 ADD DUP3 PUSH2 0x159B JUMP JUMPDEST POP PUSH1 0x60 DUP4 ADD MLOAD PUSH2 0x1814 PUSH1 0x60 DUP7 ADD DUP3 PUSH2 0x15E1 JUMP JUMPDEST POP PUSH1 0x80 DUP4 ADD MLOAD PUSH2 0x1827 PUSH1 0x80 DUP7 ADD DUP3 PUSH2 0x159B JUMP JUMPDEST POP PUSH1 0xA0 DUP4 ADD MLOAD PUSH2 0x183A PUSH1 0xA0 DUP7 ADD DUP3 PUSH2 0x1620 JUMP JUMPDEST POP PUSH1 0xC0 DUP4 ADD MLOAD PUSH2 0x184D PUSH1 0xC0 DUP7 ADD DUP3 PUSH2 0x159B JUMP JUMPDEST POP DUP1 SWAP2 POP POP SWAP3 SWAP2 POP POP JUMP JUMPDEST PUSH0 PUSH2 0x1863 DUP4 DUP4 PUSH2 0x17B8 JUMP JUMPDEST SWAP1 POP SWAP3 SWAP2 POP POP JUMP JUMPDEST PUSH0 PUSH1 0x20 DUP3 ADD SWAP1 POP SWAP2 SWAP1 POP JUMP JUMPDEST PUSH0 PUSH2 0x1881 DUP3 PUSH2 0x178F JUMP JUMPDEST PUSH2 0x188B DUP2 DUP6 PUSH2 0x1799 JUMP JUMPDEST SWAP4 POP DUP4 PUSH1 0x20 DUP3 MUL DUP6 ADD PUSH2 0x189D DUP6 PUSH2 0x17A9 JUMP JUMPDEST DUP1 PUSH0 JUMPDEST DUP6 DUP2 LT ISZERO PUSH2 0x18D8 JUMPI DUP5 DUP5 SUB DUP10 MSTORE DUP2 MLOAD PUSH2 0x18B9 DUP6 DUP3 PUSH2 0x1858 JUMP JUMPDEST SWAP5 POP PUSH2 0x18C4 DUP4 PUSH2 0x186B JUMP JUMPDEST SWAP3 POP PUSH1 0x20 DUP11 ADD SWAP10 POP POP PUSH1 0x1 DUP2 ADD SWAP1 POP PUSH2 0x18A0 JUMP JUMPDEST POP DUP3 SWAP8 POP DUP8 SWAP6 POP POP POP POP POP POP SWAP3 SWAP2 POP POP JUMP JUMPDEST PUSH0 PUSH1 0x20 DUP3 ADD SWAP1 POP DUP2 DUP2 SUB PUSH0 DUP4 ADD MSTORE PUSH2 0x1902 DUP2 DUP5 PUSH2 0x1877 JUMP JUMPDEST SWAP1 POP SWAP3 SWAP2 POP POP JUMP JUMPDEST PUSH0 DUP3 DUP3 MSTORE PUSH1 0x20 DUP3 ADD SWAP1 POP SWAP3 SWAP2 POP POP JUMP JUMPDEST PUSH32 0x566F74696E6720686173206E6F74207374617274656420796574000000000000 PUSH0 DUP3 ADD MSTORE POP JUMP JUMPDEST PUSH0 PUSH2 0x194E PUSH1 0x1A DUP4 PUSH2 0x190A JUMP JUMPDEST SWAP2 POP PUSH2 0x1959 DUP3 PUSH2 0x191A JUMP JUMPDEST PUSH1 0x20 DUP3 ADD SWAP1 POP SWAP2 SWAP1 POP JUMP JUMPDEST PUSH0 PUSH1 0x20 DUP3 ADD SWAP1 POP DUP2 DUP2 SUB PUSH0 DUP4 ADD MSTORE PUSH2 0x197B DUP2 PUSH2 0x1942 JUMP JUMPDEST SWAP1 POP SWAP2 SWAP1 POP JUMP JUMPDEST PUSH32 0x596F75206861766520616C726561647920766F74656400000000000000000000 PUSH0 DUP3 ADD MSTORE POP JUMP JUMPDEST PUSH0 PUSH2 0x19B6 PUSH1 0x16 DUP4 PUSH2 0x190A JUMP JUMPDEST SWAP2 POP PUSH2 0x19C1 DUP3 PUSH2 0x1982 JUMP JUMPDEST PUSH1 0x20 DUP3 ADD SWAP1 POP SWAP2 SWAP1 POP JUMP JUMPDEST PUSH0 PUSH1 0x20 DUP3 ADD SWAP1 POP DUP2 DUP2 SUB PUSH0 DUP4 ADD MSTORE PUSH2 0x19E3 DUP2 PUSH2 0x19AA JUMP JUMPDEST SWAP1 POP SWAP2 SWAP1 POP JUMP JUMPDEST PUSH32 0x596F7520617265206E6F7420617574686F72697A656400000000000000000000 PUSH0 DUP3 ADD MSTORE POP JUMP JUMPDEST PUSH0 PUSH2 0x1A1E PUSH1 0x16 DUP4 PUSH2 0x190A JUMP JUMPDEST SWAP2 POP PUSH2 0x1A29 DUP3 PUSH2 0x19EA JUMP JUMPDEST PUSH1 0x20 DUP3 ADD SWAP1 POP SWAP2 SWAP1 POP JUMP JUMPDEST PUSH0 PUSH1 0x20 DUP3 ADD SWAP1 POP DUP2 DUP2 SUB PUSH0 DUP4 ADD MSTORE PUSH2 0x1A4B DUP2 PUSH2 0x1A12 JUMP JUMPDEST SWAP1 POP SWAP2 SWAP1 POP JUMP JUMPDEST PUSH32 0x43616E646964617465204964206973206E6F7420636F72726563740000000000 PUSH0 DUP3 ADD MSTORE POP JUMP JUMPDEST PUSH0 PUSH2 0x1A86 PUSH1 0x1B DUP4 PUSH2 0x190A JUMP JUMPDEST SWAP2 POP PUSH2 0x1A91 DUP3 PUSH2 0x1A52 JUMP JUMPDEST PUSH1 0x20 DUP3 ADD SWAP1 POP SWAP2 SWAP1 POP JUMP JUMPDEST PUSH0 PUSH1 0x20 DUP3 ADD SWAP1 POP DUP2 DUP2 SUB PUSH0 DUP4 ADD MSTORE PUSH2 0x1AB3 DUP2 PUSH2 0x1A7A JUMP JUMPDEST SWAP1 POP SWAP2 SWAP1 POP JUMP JUMPDEST PUSH32 0x4E487B7100000000000000000000000000000000000000000000000000000000 PUSH0 MSTORE PUSH1 0x11 PUSH1 0x4 MSTORE PUSH1 0x24 PUSH0 REVERT JUMPDEST PUSH0 PUSH2 0x1AF1 DUP3 PUSH2 0x126D JUMP JUMPDEST SWAP2 POP PUSH32 0xFFFFFFFFFFFFFFFFFFFFFFFFFFFFFFFFFFFFFFFFFFFFFFFFFFFFFFFFFFFFFFFF DUP3 SUB PUSH2 0x1B23 JUMPI PUSH2 0x1B22 PUSH2 0x1ABA JUMP JUMPDEST JUMPDEST PUSH1 0x1 DUP3 ADD SWAP1 POP SWAP2 SWAP1 POP JUMP JUMPDEST PUSH32 0x556E617574686F72697A65642041636365737300000000000000000000000000 PUSH0 DUP3 ADD MSTORE POP JUMP JUMPDEST PUSH0 PUSH2 0x1B62 PUSH1 0x13 DUP4 PUSH2 0x190A JUMP JUMPDEST SWAP2 POP PUSH2 0x1B6D DUP3 PUSH2 0x1B2E JUMP JUMPDEST PUSH1 0x20 DUP3 ADD SWAP1 POP SWAP2 SWAP1 POP JUMP JUMPDEST PUSH0 PUSH1 0x20 DUP3 ADD SWAP1 POP DUP2 DUP2 SUB PUSH0 DUP4 ADD MSTORE PUSH2 0x1B8F DUP2 PUSH2 0x1B56 JUMP JUMPDEST SWAP1 POP SWAP2 SWAP1 POP JUMP JUMPDEST PUSH32 0x596F752061726520616C72656164792072656769737465726564000000000000 PUSH0 DUP3 ADD MSTORE POP JUMP JUMPDEST PUSH0 PUSH2 0x1BCA PUSH1 0x1A DUP4 PUSH2 0x190A JUMP JUMPDEST SWAP2 POP PUSH2 0x1BD5 DUP3 PUSH2 0x1B96 JUMP JUMPDEST PUSH1 0x20 DUP3 ADD SWAP1 POP SWAP2 SWAP1 POP JUMP JUMPDEST PUSH0 PUSH1 0x20 DUP3 ADD SWAP1 POP DUP2 DUP2 SUB PUSH0 DUP4 ADD MSTORE PUSH2 0x1BF7 DUP2 PUSH2 0x1BBE JUMP JUMPDEST SWAP1 POP SWAP2 SWAP1 POP JUMP JUMPDEST PUSH32 0x4E487B7100000000000000000000000000000000000000000000000000000000 PUSH0 MSTORE PUSH1 0x41 PUSH1 0x4 MSTORE PUSH1 0x24 PUSH0 REVERT JUMPDEST PUSH32 0x4E487B7100000000000000000000000000000000000000000000000000000000 PUSH0 MSTORE PUSH1 0x22 PUSH1 0x4 MSTORE PUSH1 0x24 PUSH0 REVERT JUMPDEST PUSH0 PUSH1 0x2 DUP3 DIV SWAP1 POP PUSH1 0x1 DUP3 AND DUP1 PUSH2 0x1C6F JUMPI PUSH1 0x7F DUP3 AND SWAP2 POP JUMPDEST PUSH1 0x20 DUP3 LT DUP2 SUB PUSH2 0x1C82 JUMPI PUSH2 0x1C81 PUSH2 0x1C2B JUMP JUMPDEST JUMPDEST POP SWAP2 SWAP1 POP JUMP JUMPDEST PUSH0 DUP2 SWAP1 POP DUP2 PUSH0 MSTORE PUSH1 0x20 PUSH0 KECCAK256 SWAP1 POP SWAP2 SWAP1 POP JUMP JUMPDEST PUSH0 PUSH1 0x20 PUSH1 0x1F DUP4 ADD DIV SWAP1 POP SWAP2 SWAP1 POP JUMP JUMPDEST PUSH0 DUP3 DUP3 SHL SWAP1 POP SWAP3 SWAP2 POP POP JUMP JUMPDEST PUSH0 PUSH1 0x8 DUP4 MUL PUSH2 0x1CE4 PUSH32 0xFFFFFFFFFFFFFFFFFFFFFFFFFFFFFFFFFFFFFFFFFFFFFFFFFFFFFFFFFFFFFFFF DUP3 PUSH2 0x1CA9 JUMP JUMPDEST PUSH2 0x1CEE DUP7 DUP4 PUSH2 0x1CA9 JUMP JUMPDEST SWAP6 POP DUP1 NOT DUP5 AND SWAP4 POP DUP1 DUP7 AND DUP5 OR SWAP3 POP POP POP SWAP4 SWAP3 POP POP POP JUMP JUMPDEST PUSH0 DUP2 SWAP1 POP SWAP2 SWAP1 POP JUMP JUMPDEST PUSH0 PUSH2 0x1D29 PUSH2 0x1D24 PUSH2 0x1D1F DUP5 PUSH2 0x126D JUMP JUMPDEST PUSH2 0x1D06 JUMP JUMPDEST PUSH2 0x126D JUMP JUMPDEST SWAP1 POP SWAP2 SWAP1 POP JUMP JUMPDEST PUSH0 DUP2 SWAP1 POP SWAP2 SWAP1 POP JUMP JUMPDEST PUSH2 0x1D42 DUP4 PUSH2 0x1D0F JUMP JUMPDEST PUSH2 0x1D56 PUSH2 0x1D4E DUP3 PUSH2 0x1D30 JUMP JUMPDEST DUP5 DUP5 SLOAD PUSH2 0x1CB5 JUMP JUMPDEST DUP3 SSTORE POP POP POP POP JUMP JUMPDEST PUSH0 SWAP1 JUMP JUMPDEST PUSH2 0x1D6A PUSH2 0x1D5E JUMP JUMPDEST PUSH2 0x1D75 DUP2 DUP5 DUP5 PUSH2 0x1D39 JUMP JUMPDEST POP POP POP JUMP JUMPDEST JUMPDEST DUP2 DUP2 LT ISZERO PUSH2 0x1D98 JUMPI PUSH2 0x1D8D PUSH0 DUP3 PUSH2 0x1D62 JUMP JUMPDEST PUSH1 0x1 DUP2 ADD SWAP1 POP PUSH2 0x1D7B JUMP JUMPDEST POP POP JUMP JUMPDEST PUSH1 0x1F DUP3 GT ISZERO PUSH2 0x1DDD JUMPI PUSH2 0x1DAE DUP2 PUSH2 0x1C88 JUMP JUMPDEST PUSH2 0x1DB7 DUP5 PUSH2 0x1C9A JUMP JUMPDEST DUP2 ADD PUSH1 0x20 DUP6 LT ISZERO PUSH2 0x1DC6 JUMPI DUP2 SWAP1 POP JUMPDEST PUSH2 0x1DDA PUSH2 0x1DD2 DUP6 PUSH2 0x1C9A JUMP JUMPDEST DUP4 ADD DUP3 PUSH2 0x1D7A JUMP JUMPDEST POP POP JUMPDEST POP POP POP JUMP JUMPDEST PUSH0 DUP3 DUP3 SHR SWAP1 POP SWAP3 SWAP2 POP POP JUMP JUMPDEST PUSH0 PUSH2 0x1DFD PUSH0 NOT DUP5 PUSH1 0x8 MUL PUSH2 0x1DE2 JUMP JUMPDEST NOT DUP1 DUP4 AND SWAP2 POP POP SWAP3 SWAP2 POP POP JUMP JUMPDEST PUSH0 PUSH2 0x1E15 DUP4 DUP4 PUSH2 0x1DEE JUMP JUMPDEST SWAP2 POP DUP3 PUSH1 0x2 MUL DUP3 OR SWAP1 POP SWAP3 SWAP2 POP POP JUMP JUMPDEST PUSH2 0x1E2E DUP3 PUSH2 0x152B JUMP JUMPDEST PUSH8 0xFFFFFFFFFFFFFFFF DUP2 GT ISZERO PUSH2 0x1E47 JUMPI PUSH2 0x1E46 PUSH2 0x1BFE JUMP JUMPDEST JUMPDEST PUSH2 0x1E51 DUP3 SLOAD PUSH2 0x1C58 JUMP JUMPDEST PUSH2 0x1E5C DUP3 DUP3 DUP6 PUSH2 0x1D9C JUMP JUMPDEST PUSH0 PUSH1 0x20 SWAP1 POP PUSH1 0x1F DUP4 GT PUSH1 0x1 DUP2 EQ PUSH2 0x1E8D JUMPI PUSH0 DUP5 ISZERO PUSH2 0x1E7B JUMPI DUP3 DUP8 ADD MLOAD SWAP1 POP JUMPDEST PUSH2 0x1E85 DUP6 DUP3 PUSH2 0x1E0A JUMP JUMPDEST DUP7 SSTORE POP PUSH2 0x1EEC JUMP JUMPDEST PUSH1 0x1F NOT DUP5 AND PUSH2 0x1E9B DUP7 PUSH2 0x1C88 JUMP JUMPDEST PUSH0 JUMPDEST DUP3 DUP2 LT ISZERO PUSH2 0x1EC2 JUMPI DUP5 DUP10 ADD MLOAD DUP3 SSTORE PUSH1 0x1 DUP3 ADD SWAP2 POP PUSH1 0x20 DUP6 ADD SWAP5 POP PUSH1 0x20 DUP2 ADD SWAP1 POP PUSH2 0x1E9D JUMP JUMPDEST DUP7 DUP4 LT ISZERO PUSH2 0x1EDF JUMPI DUP5 DUP10 ADD MLOAD PUSH2 0x1EDB PUSH1 0x1F DUP10 AND DUP3 PUSH2 0x1DEE JUMP JUMPDEST DUP4 SSTORE POP JUMPDEST PUSH1 0x1 PUSH1 0x2 DUP9 MUL ADD DUP9 SSTORE POP POP POP JUMPDEST POP POP POP POP POP POP JUMP JUMPDEST PUSH32 0x416C726561647920526567697374657265640000000000000000000000000000 PUSH0 DUP3 ADD MSTORE POP JUMP JUMPDEST PUSH0 PUSH2 0x1F28 PUSH1 0x12 DUP4 PUSH2 0x190A JUMP JUMPDEST SWAP2 POP PUSH2 0x1F33 DUP3 PUSH2 0x1EF4 JUMP JUMPDEST PUSH1 0x20 DUP3 ADD SWAP1 POP SWAP2 SWAP1 POP JUMP JUMPDEST PUSH0 PUSH1 0x20 DUP3 ADD SWAP1 POP DUP2 DUP2 SUB PUSH0 DUP4 ADD MSTORE PUSH2 0x1F55 DUP2 PUSH2 0x1F1C JUMP JUMPDEST SWAP1 POP SWAP2 SWAP1 POP JUMP JUMPDEST PUSH32 0x43616E64696461746520526567697374726174696F6E2046756C6C0000000000 PUSH0 DUP3 ADD MSTORE POP JUMP JUMPDEST PUSH0 PUSH2 0x1F90 PUSH1 0x1B DUP4 PUSH2 0x190A JUMP JUMPDEST SWAP2 POP PUSH2 0x1F9B DUP3 PUSH2 0x1F5C JUMP JUMPDEST PUSH1 0x20 DUP3 ADD SWAP1 POP SWAP2 SWAP1 POP JUMP JUMPDEST PUSH0 PUSH1 0x20 DUP3 ADD SWAP1 POP DUP2 DUP2 SUB PUSH0 DUP4 ADD MSTORE PUSH2 0x1FBD DUP2 PUSH2 0x1F84 JUMP JUMPDEST SWAP1 POP SWAP2 SWAP1 POP JUMP JUMPDEST PUSH32 0x456C656374696F6E20436F6D6D6973696F6E206E6F7420616C6C6F7765642074 PUSH0 DUP3 ADD MSTORE PUSH32 0x6F20726567697374657200000000000000000000000000000000000000000000 PUSH1 0x20 DUP3 ADD MSTORE POP JUMP JUMPDEST PUSH0 PUSH2 0x201E PUSH1 0x2A DUP4 PUSH2 0x190A JUMP JUMPDEST SWAP2 POP PUSH2 0x2029 DUP3 PUSH2 0x1FC4 JUMP JUMPDEST PUSH1 0x40 DUP3 ADD SWAP1 POP SWAP2 SWAP1 POP JUMP JUMPDEST PUSH0 PUSH1 0x20 DUP3 ADD SWAP1 POP DUP2 DUP2 SUB PUSH0 DUP4 ADD MSTORE PUSH2 0x204B DUP2 PUSH2 0x2012 JUMP JUMPDEST SWAP1 POP SWAP2 SWAP1 POP JUMP JUMPDEST PUSH32 0x5F656E6454696D654475726174696F6E206D7573742062652067726561746572 PUSH0 DUP3 ADD MSTORE PUSH32 0x207468616E203120686F75720000000000000000000000000000000000000000 PUSH1 0x20 DUP3 ADD MSTORE POP JUMP JUMPDEST PUSH0 PUSH2 0x20AC PUSH1 0x2C DUP4 PUSH2 0x190A JUMP JUMPDEST SWAP2 POP PUSH2 0x20B7 DUP3 PUSH2 0x2052 JUMP JUMPDEST PUSH1 0x40 DUP3 ADD SWAP1 POP SWAP2 SWAP1 POP JUMP JUMPDEST PUSH0 PUSH1 0x20 DUP3 ADD SWAP1 POP DUP2 DUP2 SUB PUSH0 DUP4 ADD MSTORE PUSH2 0x20D9 DUP2 PUSH2 0x20A0 JUMP JUMPDEST SWAP1 POP SWAP2 SWAP1 POP JUMP JUMPDEST PUSH0 PUSH2 0x20EA DUP3 PUSH2 0x126D JUMP JUMPDEST SWAP2 POP PUSH2 0x20F5 DUP4 PUSH2 0x126D JUMP JUMPDEST SWAP3 POP DUP3 DUP3 ADD SWAP1 POP DUP1 DUP3 GT ISZERO PUSH2 0x210D JUMPI PUSH2 0x210C PUSH2 0x1ABA JUMP JUMPDEST JUMPDEST SWAP3 SWAP2 POP POP JUMP JUMPDEST PUSH0 PUSH2 0x211D DUP3 PUSH2 0x126D JUMP JUMPDEST SWAP2 POP PUSH2 0x2128 DUP4 PUSH2 0x126D JUMP JUMPDEST SWAP3 POP DUP3 DUP3 SUB SWAP1 POP DUP2 DUP2 GT ISZERO PUSH2 0x2140 JUMPI PUSH2 0x213F PUSH2 0x1ABA JUMP JUMPDEST JUMPDEST SWAP3 SWAP2 POP POP JUMP JUMPDEST PUSH32 0x4E487B7100000000000000000000000000000000000000000000000000000000 PUSH0 MSTORE PUSH1 0x32 PUSH1 0x4 MSTORE PUSH1 0x24 PUSH0 REVERT INVALID LOG2 PUSH5 0x6970667358 0x22 SLT KECCAK256 CALLCODE 0xF8 DIV 0xF JUMPDEST SLOAD 0xB5 PUSH23 0x819CB66D0099F9FC83B2D1D7BEC9030CE7A25D37A37C7C PUSH10 0x64736F6C634300081A00 CALLER "
				},
				"gasEstimates": {
					"creation": {
						"codeDepositCost": "1723400",
						"executionCost": "70288",
						"totalCost": "1793688"
					},
					"external": {
						"announceVotingResult()": "33238",
						"castVote(uint256,uint256)": "infinite",
						"emergencyStopVoting()": "26575",
						"getCandidateList()": "infinite",
						"getVoterList()": "infinite",
						"getVotingStatus()": "6885",
						"registerCandidate(string,string,uint256,uint8)": "infinite",
						"registerVoter(string,uint256,uint8)": "infinite",
						"setVotingPeriod(uint256,uint256)": "infinite",
						"winner()": "2574"
					},
					"internal": {
						"isCandidateNotRegistered(address)": "infinite",
						"isVoterNotRegistered(address)": "infinite"
					}
				},
				"methodIdentifiers": {
					"announceVotingResult()": "6ce2ccc0",
					"castVote(uint256,uint256)": "2c0a3f89",
					"emergencyStopVoting()": "9fa4e440",
					"getCandidateList()": "fdbc4006",
					"getVoterList()": "b28d92ae",
					"getVotingStatus()": "581c281c",
					"registerCandidate(string,string,uint256,uint8)": "982c777d",
					"registerVoter(string,uint256,uint8)": "81ba732f",
					"setVotingPeriod(uint256,uint256)": "a15a36c7",
					"winner()": "dfbf53ae"
				}
			},
			"storageLayout": {
				"storage": [
					{
						"astId": 33,
						"contract": "contracts/1_Storage.sol:Vote",
						"label": "electionCommission",
						"offset": 0,
						"slot": "0",
						"type": "t_address"
					},
					{
						"astId": 35,
						"contract": "contracts/1_Storage.sol:Vote",
						"label": "winner",
						"offset": 0,
						"slot": "1",
						"type": "t_address"
					},
					{
						"astId": 38,
						"contract": "contracts/1_Storage.sol:Vote",
						"label": "nextVoterId",
						"offset": 0,
						"slot": "2",
						"type": "t_uint256"
					},
					{
						"astId": 41,
						"contract": "contracts/1_Storage.sol:Vote",
						"label": "nextCandidateId",
						"offset": 0,
						"slot": "3",
						"type": "t_uint256"
					},
					{
						"astId": 43,
						"contract": "contracts/1_Storage.sol:Vote",
						"label": "startTime",
						"offset": 0,
						"slot": "4",
						"type": "t_uint256"
					},
					{
						"astId": 45,
						"contract": "contracts/1_Storage.sol:Vote",
						"label": "endTime",
						"offset": 0,
						"slot": "5",
						"type": "t_uint256"
					},
					{
						"astId": 47,
						"contract": "contracts/1_Storage.sol:Vote",
						"label": "stopVoting",
						"offset": 0,
						"slot": "6",
						"type": "t_bool"
					},
					{
						"astId": 52,
						"contract": "contracts/1_Storage.sol:Vote",
						"label": "voterDetails",
						"offset": 0,
						"slot": "7",
						"type": "t_mapping(t_uint256,t_struct(Voter)15_storage)"
					},
					{
						"astId": 57,
						"contract": "contracts/1_Storage.sol:Vote",
						"label": "candidateDetails",
						"offset": 0,
						"slot": "8",
						"type": "t_mapping(t_uint256,t_struct(Candidate)31_storage)"
					}
				],
				"types": {
					"t_address": {
						"encoding": "inplace",
						"label": "address",
						"numberOfBytes": "20"
					},
					"t_bool": {
						"encoding": "inplace",
						"label": "bool",
						"numberOfBytes": "1"
					},
					"t_enum(Gender)66": {
						"encoding": "inplace",
						"label": "enum Vote.Gender",
						"numberOfBytes": "1"
					},
					"t_mapping(t_uint256,t_struct(Candidate)31_storage)": {
						"encoding": "mapping",
						"key": "t_uint256",
						"label": "mapping(uint256 => struct Vote.Candidate)",
						"numberOfBytes": "32",
						"value": "t_struct(Candidate)31_storage"
					},
					"t_mapping(t_uint256,t_struct(Voter)15_storage)": {
						"encoding": "mapping",
						"key": "t_uint256",
						"label": "mapping(uint256 => struct Vote.Voter)",
						"numberOfBytes": "32",
						"value": "t_struct(Voter)15_storage"
					},
					"t_string_storage": {
						"encoding": "bytes",
						"label": "string",
						"numberOfBytes": "32"
					},
					"t_struct(Candidate)31_storage": {
						"encoding": "inplace",
						"label": "struct Vote.Candidate",
						"members": [
							{
								"astId": 17,
								"contract": "contracts/1_Storage.sol:Vote",
								"label": "name",
								"offset": 0,
								"slot": "0",
								"type": "t_string_storage"
							},
							{
								"astId": 19,
								"contract": "contracts/1_Storage.sol:Vote",
								"label": "party",
								"offset": 0,
								"slot": "1",
								"type": "t_string_storage"
							},
							{
								"astId": 21,
								"contract": "contracts/1_Storage.sol:Vote",
								"label": "age",
								"offset": 0,
								"slot": "2",
								"type": "t_uint256"
							},
							{
								"astId": 24,
								"contract": "contracts/1_Storage.sol:Vote",
								"label": "gender",
								"offset": 0,
								"slot": "3",
								"type": "t_enum(Gender)66"
							},
							{
								"astId": 26,
								"contract": "contracts/1_Storage.sol:Vote",
								"label": "candidateId",
								"offset": 0,
								"slot": "4",
								"type": "t_uint256"
							},
							{
								"astId": 28,
								"contract": "contracts/1_Storage.sol:Vote",
								"label": "candidateAddress",
								"offset": 0,
								"slot": "5",
								"type": "t_address"
							},
							{
								"astId": 30,
								"contract": "contracts/1_Storage.sol:Vote",
								"label": "votes",
								"offset": 0,
								"slot": "6",
								"type": "t_uint256"
							}
						],
						"numberOfBytes": "224"
					},
					"t_struct(Voter)15_storage": {
						"encoding": "inplace",
						"label": "struct Vote.Voter",
						"members": [
							{
								"astId": 3,
								"contract": "contracts/1_Storage.sol:Vote",
								"label": "name",
								"offset": 0,
								"slot": "0",
								"type": "t_string_storage"
							},
							{
								"astId": 5,
								"contract": "contracts/1_Storage.sol:Vote",
								"label": "age",
								"offset": 0,
								"slot": "1",
								"type": "t_uint256"
							},
							{
								"astId": 7,
								"contract": "contracts/1_Storage.sol:Vote",
								"label": "voterId",
								"offset": 0,
								"slot": "2",
								"type": "t_uint256"
							},
							{
								"astId": 10,
								"contract": "contracts/1_Storage.sol:Vote",
								"label": "gender",
								"offset": 0,
								"slot": "3",
								"type": "t_enum(Gender)66"
							},
							{
								"astId": 12,
								"contract": "contracts/1_Storage.sol:Vote",
								"label": "voteCandidateId",
								"offset": 0,
								"slot": "4",
								"type": "t_uint256"
							},
							{
								"astId": 14,
								"contract": "contracts/1_Storage.sol:Vote",
								"label": "voterAddress",
								"offset": 0,
								"slot": "5",
								"type": "t_address"
							}
						],
						"numberOfBytes": "192"
					},
					"t_uint256": {
						"encoding": "inplace",
						"label": "uint256",
						"numberOfBytes": "32"
					}
				}
			},
			"userdoc": {
				"kind": "user",
				"methods": {},
				"version": 1
			}
		}
	}
}